:020000040000FA
:100000000C9462000C948A000C948A000C948A0070
:100010000C948A000C948A000C948A000C948A0038
:100020000C948A000C948A000C948A000C948A0028
:100030000C948A000C948A000C948A000C948A0018
:100040000C94D8070C948A000C94A6070C94800793
:100050000C948A000C948A000C948A000C948A00F8
:100060000C948A000C948A000000000023002600F3
:10007000290000000000240027002A0000000000E2
:10008000250028002B0000000008000201000003EA
:10009000040700000000000000000404040404043D
:1000A0000404020202020202030303030303010227
:1000B00004081020408001020408102001020408F6
:1000C0001020220811241FBECFEFD8E0DEBFCDBF25
:1000D00012E0A0E0B1E0E4ECFCE102C005900D927A
:1000E000A234B107D9F723E0A2E4B2E001C01D9227
:1000F000A431B207E1F710E0C2E6D0E004C02197D6
:10010000FE010E94260DC136D107C9F70E949B0847
:100110000C94600E0C940000AF92BF92CF92DF92CD
:10012000EF92FF920F931F93CF93DF936C017B01AC
:100130008B01040F151FEB015E01AE18BF08C0173D
:10014000D10759F06991D601ED91FC910190F081B0
:10015000E02DC6010995892B79F7C501DF91CF9173
:100160001F910F91FF90EF90DF90CF90BF90AF90D5
:100170000895FC01538D448D252F30E0842F90E0AD
:10018000821B930B541710F0CF9608950197089592
:10019000FC01918D828D981761F0A28DAE0FBF2F5B
:1001A000B11D5D968C91928D9F5F9F73928F90E0B1
:1001B00008958FEF9FEF0895FC01918D828D981720
:1001C00031F0828DE80FF11D858D90E008958FEF5D
:1001D0009FEF0895FC01918D228D892F90E0805C26
:1001E0009F4F821B91098F73992708958FE492E0A6
:1001F0000E94EA0021E0892B09F420E0822F089573
:1002000080E090E0892B29F00E94F60081110C9487
:1002100000000895FC01A48DA80FB92FB11DA35AA9
:10022000BF4F2C91848D90E001968F739927848F16
:10023000A689B7892C93A089B1898C918370806439
:100240008C93938D848D981306C00288F389E02DDA
:1002500080818F7D80830895EF92FF920F931F938B
:10026000CF93DF93EC0181E0888F9B8D8C8D981369
:100270001AC0E889F989808185FF15C09FB7F89475
:10028000EE89FF896083E889F989808183708064C1
:1002900080839FBF81E090E0DF91CF911F910F910C
:1002A000FF90EF900895F62E0B8D10E00F5F1F4F1B
:1002B0000F731127E02E8C8D8E110CC00FB607FC2A
:1002C000FACFE889F989808185FFF5CFCE010E94B8
:1002D0000A01F1CFEB8DEC0FFD2FF11DE35AFF4F1B
:1002E000F0829FB7F8940B8FEA89FB898081806246
:1002F000CFCFCF93DF93EC01888D8823B9F0AA8903
:10030000BB89E889F9898C9185FD03C0808186FDD0
:100310000DC00FB607FCF7CF8C9185FFF2CF80811F
:1003200085FFEDCFCE010E940A01E9CFDF91CF9189
:10033000089590E0FC01EA57FF4F2491FC01E2553B
:10034000FF4F3491FC01E656FF4FE491EE23C9F0D4
:10035000222339F0233001F1A8F4213019F12230A1
:1003600029F1F0E0EE0FFF1FE458FF4FA591B49183
:100370008FB7F894EC91611126C030953E233C93E1
:100380008FBF08952730A9F02830C9F0243049F7ED
:10039000809180008F7D03C0809180008F77809353
:1003A0008000DFCF84B58F7784BDDBCF84B58F7DB0
:1003B000FBCF8091B0008F778093B000D2CF809137
:1003C000B0008F7DF9CF3E2BDACFCF93DF9390E053
:1003D000FC01E255FF4F249186569F4FFC0184910A
:1003E0008823D1F090E0880F991FFC01EE58FF4F51
:1003F000A591B491FC01E458FF4FC591D4916230AE
:1004000071F49FB7F8943C91822F809583238C934D
:10041000E8812E2B28839FBFDF91CF9108958FB75E
:10042000F894EC912E2B2C938FBFF6CF3FB7F89416
:100430008091430290914402A0914502B0914602FE
:1004400026B5A89B05C02F3F19F00196A11DB11D2F
:100450003FBFBA2FA92F982F8827BC01CD01620F6B
:10046000711D811D911D42E0660F771F881F991F26
:100470004A95D1F708958F929F92AF92BF92CF92F3
:10048000DF92EF92FF926B017C010E9416024B01FA
:100490005C01C114D104E104F104B9F00E94160218
:1004A000681979098A099B09683E7340810591059D
:1004B00080F321E0C21AD108E108F10888EE880E25
:1004C00083E0981EA11CB11CE4CFFF90EF90DF9059
:1004D000CF90BF90AF909F908F900895FC0183893B
:1004E0008B3051F480E492E4AFE0B0E0FB0184A3F0
:1004F00095A3A6A3B7A3089580E894E8AEE1B0E081
:10050000F5CFCF92DF92EF92FF92CF93DF93DC0192
:100510001796CC911797D0E06111DC2F18962C918B
:10052000189730E0220F331F28593F4F50E040E02A
:10053000F90185919491FC01F080BA0190E080E08E
:10054000EF2DEC23ED1310C04F5F5F4F1D96CD9044
:10055000DD90ED90FC9050976C157D058E059F0504
:1005600038F36FEF7FEFCB01DF91CF91FF90EF90EA
:10057000DF90CF9008958F929F92AF92BF92CF92CB
:10058000DF92EF92FF920F931F93CF93DF93CDB73C
:10059000DEB7C054D1400FB6F894DEBF0FBECDBF5A
:1005A0002FB7F89440914B0250914C0260914D024C
:1005B00070914E022FBFFC01018512852385348581
:1005C0006A017B01C01AD10AE20AF30A9701860187
:1005D000003D174021053105B0F4FC018189C05C64
:1005E000DE4F0FB6F894DEBF0FBECDBFDF91CF91C7
:1005F0001F910F91FF90EF90DF90CF90BF90AF9041
:100600009F908F9008958C01FC01418752876387EA
:1006100074871482138212821182108262E08581B3
:100620000E94E50161E070E080E090E00E943B0202
:1006300061E0F80185810E94E50160E0F8018581B3
:100640000E949901F80186818551823028F58BE25C
:1006500091E10197F1F762E0F80185810E94E501DF
:10066000F801828990E08230910538F0880F991F57
:10067000880F991F05970197F1F7F89460E0C8017A
:100680000E9481026F3F7F4F8F4F9F4F61F4F801AF
:10069000118A789480E0A3CF64E170E080E090E07C
:1006A0000E943B02D8CF61E0C8010E9481026F3FE7
:1006B0007F4F8F4F9F4F59F3CE0101967C015E0112
:1006C0009FEBA91A9EEFB90A670160E0C8010E947A
:1006D0008102F601608371838283938361E0C801A4
:1006E0000E948102F6016483758386839783F8E014
:1006F000CF0ED11CCA14DB0441F7789430E020E01F
:10070000F70180809180A280B38044815581668109
:100710007781FFEF8F169F06AF06BF0631F04F3F80
:100720008FEF58076807780719F4F801118AB2CFDC
:10073000F90183E0F595E7958A95E1F7E00FF11F60
:100740008081880F84169506A606B706F0F0808390
:100750002F5F3F4FF8E0EF0EF11C2832310581F694
:10076000F801448120818181280F3327331F828142
:10077000280F311D8381820F932F911D99274817D0
:10078000190699F681E0818B2ACF8160E0CF089528
:100790000895FC0101900020E9F73197AF01481B53
:1007A000590BBC018FE492E00C948C008F929F92C5
:1007B000AF92BF920F931F93CF93DF93CDB7DEB766
:1007C000A1970FB6F894DEBF0FBECDBF19A242307D
:1007D00008F44AE08E010F5D1F4F842E912CB12C3E
:1007E000A12CA50194010E94E50CE62FB901CA01D4
:1007F000EA30F4F4E05DD801EE938D01232B242B35
:10080000252B79F790E080E0109719F0CD010E9438
:10081000C903A1960FB6F894DEBF0FBECDBFDF911E
:10082000CF911F910F91BF90AF909F908F9008959F
:10083000E95CE1CFCF93DF930E94C903EC0184E32D
:1008400091E00E94C9038C0F9D1FDF91CF91089505
:100850000C94C9034F925F926F927F928F929F92F6
:10086000AF92BF92CF92DF92EF92FF920F931F93BE
:10087000CF936B017C01742EAC019B010E94E00CB4
:10088000882399F087E391E0CF911F910F91FF901A
:10089000EF90DF90CF90BF90AF909F908F907F9020
:1008A0006F905F904F900C94C90346015701E894F4
:1008B000B7F82FEF3FEF4FE75FE7C501B4010E94A4
:1008C000E00C81110DC02FEF3FEF4FE75FE7C5014F
:1008D000B4010E94160B18161CF48BE391E0D4CFE0
:1008E0002FEF3FEF4FE75FE4C701B6010E946E0CA8
:1008F00018161CF48FE391E0C7CF2FEF3FEF4FE7BF
:100900005FECC701B6010E94160B87FDF3CF20E014
:1009100030E0A901C701B6010E94160B10E000E00B
:1009200087FF0AC06DE28FE492E00E942C018C01E7
:10093000F7FAF094F7F8F094C0E060E070E080E03F
:100940009FE37C1641F020E030E040E251E40E9459
:100950001B0BCF5FF6CFA70196010E94AA0A2B01BD
:100960003C010E948D0B4B015C014AE00E94D603C2
:100970007C01E00EF11ECC23C1F1C501B4010E943F
:10098000BC0B9B01AC01C301B2010E94A90A4B013F
:100990005C016EE28FE492E00E942C01E80EF91EE9
:1009A000C15018F120E030E040E251E4C501B4014B
:1009B0000E94730C2B013C010E948D0B4B01B12C4A
:1009C000A12C4AE0C501B4010E94D603E80EF91E2D
:1009D000C501B4010E94BC0B9B01AC01C301B20173
:1009E0000E94A90A4B015C01DBCFC701CF911F9187
:1009F0000F91FF90EF90DF90CF90BF90AF909F90BE
:100A00008F907F906F905F904F900895CF92DF927C
:100A1000EF92FF920F931F93CF93DF93EB01FB01B4
:100A2000349620E2DF011D922A95E9F744E250E076
:100A300060E070E0488359836A837B83FC014481D2
:100A40005581668177814C835D836E837F834CE023
:100A500050E060E070E0488759876A877B872FB74E
:100A6000F89440914B0250914C0260914D0270916C
:100A70004E022FBF488B598B6A8B7B8B028113816F
:100A8000C8010E94BB02882349F0F80186818B309F
:100A900028F08D3040F08551823070F160E070E0D8
:100AA00080EC9FE71BC0618170E090E080E00E94D5
:100AB000BE0B2DEC3CEC4CEC5DE30E94730C6B0127
:100AC0007C01F801608170E090E080E00E94BE0B44
:100AD0009B01AC01C701B6010E94AA0A6C8B7D8BF9
:100AE0008E8B9F8B81E0DF91CF911F910F91FF90B3
:100AF000EF90DF90CF90089560817181762767270E
:100B0000762790E080E00E94BC0B2DEC3CEC4CEC96
:100B10005DE30E94730CE2CF8F929F92AF92BF92DF
:100B2000EF92FF921F93CF93DF93EB01FB0134967B
:100B300020E2DF011D922A95E9F744E250E060E0EF
:100B400070E0488359836A837B83FC01448155812B
:100B5000668177814C835D836E837F834DE050E0B7
:100B600060E070E0488759876A877B872FB7F894E1
:100B700040914B0250914C0260914D0270914E0297
:100B80002FBF488B598B6A8B7B8BE280F380C70128
:100B90000E94BB02882341F0F70186818C3009F462
:100BA00055C038F48B30E1F060E070E080EC9FE7F6
:100BB0003EC085518230C0F71281612F70E0762FE0
:100BC000662766277F778381682B90E080E00E940C
:100BD000BC0B2DEC3CEC4CEC5DE30E94730C51C063
:100BE000628170E090E080E00E94BC0B4B015C01F0
:100BF000F701138117FF0AC0AC019B0160E070E0B0
:100C000080E89FEB0E94A90A4B015C011F70612FD5
:100C100070E090E080E00E94BE0B2DEC3CEC4CECD0
:100C20005DE30E94730CA50194010E94AA0A6C8BDB
:100C30007D8B8E8B9F8B81E0DF91CF911F91FF90F9
:100C4000EF90BF90AF909F908F9008951281612F89
:100C500070E090E080E00E94BC0B4B015C01F7016A
:100C600063816F7070E090E080E00E94BE0B2DEC1D
:100C70003CEC4CEC5DE30E94730CA50194010E94D6
:100C8000AA0A17FFD4CF9058D2CFCF93DF93EB01AE
:100C9000FC0183894BE050E069E471E08C30C1F0E5
:100CA00058F44BE050E063E471E08B3089F04BE0A6
:100CB00050E06BE571E00CC04BE050E06FE471E098
:100CC000853131F04BE050E065E571E0863179F730
:100CD000CE010E94510E1B86DF91CF9108950F9394
:100CE0001F93CF93DF938C01EB0188E2DB011D9210
:100CF0008A95E9F7F801828193810E94450681E097
:100D000090E0A0E0B0E08C879D87AE87BF87F801B8
:100D100084819581A681B781888B998BAA8BBB8BA7
:100D20008CE090E0A0E0B0E08C8B9D8BAE8BBF8B15
:100D3000BE01828193810E946E02D8011296ED91CC
:100D4000FC9183898C3009F441C078F48B3009F12F
:100D5000188E198E1A8E1B8E1C8E1D8E1E8E1F8E47
:100D600018A219A21AA21BA22CC08551823080F7AA
:100D700080E090E0A8ECB2E4888F998FAA8FBB8FB7
:100D80001C8E1D8E1E8E1F8E8DEC9CECACECBDE37C
:100D900014C080E090E0A0EAB2E4888F998FAA8F17
:100DA000BB8F80E090E0A0EAB1E48C8F9D8FAE8F86
:100DB000BF8F80E090E0A0EAB0E488A399A3AAA343
:100DC000BBA3DF91CF911F910F91089580E090E038
:100DD000AEEBB2E4E2CF0F931F93CF93DF938C017E
:100DE000EB0188E2DB011D928A95E9F7F801828127
:100DF00093810E94450681E090E0A0E0B0E08C87FE
:100E00009D87AE87BF87F80184819581A681B781D0
:100E1000888B998BAA8BBB8B8DE090E0A0E0B0E033
:100E20008C8B9D8BAE8BBF8BBE01828193810E9488
:100E30006E02D8011296ED91FC9183898C3091F16C
:100E400078F48B30B1F0188E198E1A8E1B8E1C8E92
:100E50001D8E1E8E1F8E18A219A21AA21BA21DC0C3
:100E60008531A9F1863179F780E090E0AAEFB2E40C
:100E700032C080E090E0A8E4B2E4888F998FAA8F16
:100E8000BB8F1C8E1D8E1E8E1F8E80E090E0A0E01A
:100E9000B0E488A399A3AAA3BBA3DF91CF911F912C
:100EA0000F91089580E090E0A0E7B2E4888F998FD9
:100EB000AA8FBB8F80E090E0A0EAB1EC8C8F9D8F71
:100EC000AE8FBF8F80E090E0A0E0BFE3E2CF80E094
:100ED00090E0A0EAB2E4888F998FAA8FBB8F80E060
:100EE00090E0A0E2B2EC8C8F9D8FAE8FBF8F8DEC27
:100EF0009CECACECBDE3CDCF0C94C80D0C94C80DAC
:100F00001F920F920FB60F9211242F933F934F937E
:100F10005F936F937F938F939F93AF93BF93EF9361
:100F2000FF938FE492E00E940A01FF91EF91BF913D
:100F3000AF919F918F917F916F915F914F913F9171
:100F40002F910F900FBE0F901F9018951F920F9228
:100F50000FB60F9211242F938F939F93EF93FF93CC
:100F6000E0915F02F09160028081E0916502F09172
:100F7000660282FD1BC09081809168028F5F8F7333
:100F800020916902821741F0E0916802F0E0E15B94
:100F9000FD4F958F80936802FF91EF919F918F9104
:100FA0002F910F900FBE0F901F9018958081F4CF56
:100FB0001F920F920FB60F9211242F933F938F938E
:100FC0009F93AF93BF9380914B0290914C02A0915D
:100FD0004D02B0914E023091420223E0230F2D3793
:100FE00058F50196A11DB11D2093420280934B023A
:100FF00090934C02A0934D02B0934E028091430215
:1010000090914402A0914502B09146020196A11D23
:10101000B11D8093430290934402A0934502B09384
:101020004602BF91AF919F918F913F912F910F9069
:101030000FBE0F901F90189526E8230F0296A11D52
:10104000B11DD2CFEFE4F2E01382128288EE93E07A
:10105000A0E0B0E084839583A683B7838AE091E023
:101060009183808385EC90E09587848784EC90E081
:101070009787868780EC90E0918B808B81EC90E065
:10108000938B828B82EC90E0958B848B86EC90E046
:10109000978B868B118E128E138E148EACEEB2E06F
:1010A00085E015968C93159786E116968C93169786
:1010B000E3EBF0E0E4911796EC931797EFE9F0E09B
:1010C000E4911896EC93189740E85EE360E070E0D6
:1010D0001D964D935D936D937C93509753968C938F
:1010E00053978AE291E055969C938E9354970A2EDB
:1010F0001B2E57961C920E92112456974FEF5FEFBE
:10110000BA0158964D935D936D937C935B978CE1F8
:1011100091E05D969C938E935C970A2E1B2E5F96B2
:101120001C920E9211245E9790964D935D936D9351
:101130007C9393970895CF93DF93CDB7DEB7E09775
:101140000FB6F894DEBF0FBECDBF789484B5826031
:1011500084BD84B5816084BD85B5826085BD85B55B
:10116000816085BD80916E00816080936E001092D9
:101170008100809181008260809381008091810054
:1011800081608093810080918000816080938000E5
:101190008091B10084608093B1008091B000816043
:1011A0008093B00080917A00846080937A0080916F
:1011B0007A00826080937A0080917A0081608093C7
:1011C0007A0080917A00806880937A001092C10042
:1011D00062E087E00E94E50161E08CE00E94E501A9
:1011E000E0915F02F091600282E08083E0915B0217
:1011F000F0915C021082E0915D02F0915E028FEC52
:10120000808310926702E0916302F091640286E0AD
:101210008083E0916102F09162028081806180832D
:10122000E0916102F0916202808188608083E091A8
:101230006102F0916202808180688083E0916102A6
:10124000F091620280818F7D808362E08091F10263
:101250000E94E5012FB7F89480914B0290914C02C7
:10126000A0914D02B0914E022FBF805D9740A10921
:10127000B1098093F5029093F602A093F702B09320
:10128000F80287E38093FE0280E691E00E941A0450
:101290008AE291E09AA789A78091020390910303C3
:1012A0009CA78BA78091040390910503A09106034E
:1012B000B09107038DA79EA7AFA7B8ABBE016F5F24
:1012C0007F4FCE0189960E94EB0684E791E00E9451
:1012D0001A0489E991E00E941A0485EA91E00E94CB
:1012E0002804CE0101960E941A0484EB91E00E942A
:1012F0002804698D7A8D8B8D9C8D42E00E942A0492
:1013000083EC91E00E941A0487EC91E00E9428048B
:101310006D8D7E8D8F8D98A142E00E942A0483EC12
:1013200091E00E941A0486ED91E00E94280469A1D0
:101330007AA18BA19CA142E00E942A0483EC91E057
:101340000E941A0484E791E00E941A048CE191E063
:101350009AA789A780910A0390910B039CA78BA75A
:1013600080910C0390910D03A0910E03B0910F0397
:101370008DA79EA7AFA7B8ABBE016F5F7F4FCE0111
:1013800089960E946F0684E791E00E941A0484EE19
:1013900091E00E941A0485EA91E00E942804CE019F
:1013A00001960E941A0484EB91E00E942804698D42
:1013B0007A8D8B8D9C8D42E00E942A048CEE91E008
:1013C0000E941A0487EC91E00E9428046D8D7E8DA6
:1013D0008F8D98A142E00E942A048CEE91E00E9439
:1013E0001A0486ED91E00E94280469A17AA18BA1DC
:1013F0009CA142E00E942A048CEE91E00E941A0413
:1014000084E791E00E941A046DA17EA18FA198A5A6
:1014100028EE33E040E050E00E94070D20934702A1
:10142000309348024093490250934A020AE211E085
:101430008CE1E82E81E0F82E90E0C92E90E0D92EC4
:1014400060914702709148028091490290914A024E
:101450000E943B021AA709A78091020390910303FF
:101460009CA78BA78091040390910503A09106038C
:10147000B09107038DA79EA7AFA7B8ABBE016F5F62
:101480007F4FCE0189960E948C056D897E898F8958
:10149000988D9B01AC010E94E00C882309F448C0A0
:1014A0008EEE91E00E941A04FAA6E9A680910A0342
:1014B00090910B039CA78BA780910C0390910D0337
:1014C000A0910E03B0910F038DA79EA7AFA7B8AB55
:1014D000BE016F5F7F4FCE0189960E9406056D8920
:1014E0007E898F89988D9B01AC010E94E00C81114F
:1014F0002DC08CE192E00E9428046D897E898F893D
:10150000988D42E00E942A048CEE91E00E941A0419
:1015100061E08CE00E949901C114D10409F490CFDC
:101520000E94F600882309F48BCF0E94000088CF28
:101530008EE092E00E9428046D897E898F89988DC3
:1015400042E00E942A0483EC91E0ACCF86E292E074
:10155000DDCF5058BB27AA270E94C10A0C94340C37
:101560000E94260C38F00E942D0C20F039F49F3F89
:1015700019F426F40C94230C0EF4E095E7FB0C947C
:101580001D0CE92F0E94450C58F3BA176207730728
:101590008407950720F079F4A6F50C94670C0EF4F7
:1015A000E0950B2EBA2FA02D0B01B90190010C0173
:1015B000CA01A0011124FF27591B99F0593F50F48B
:1015C000503E68F11A16F040A22F232F342F4427E3
:1015D000585FF3CF469537952795A795F0405395DB
:1015E000C9F77EF41F16BA0B620B730B840BBAF0AB
:1015F0009150A1F0FF0FBB1F661F771F881FC2F716
:101600000EC0BA0F621F731F841F48F48795779529
:101610006795B795F7959E3F08F0B0CF9395880FE3
:1016200008F09927EE0F9795879508950E94F90B7A
:1016300008F481E008950E942F0B0C94340C0E9452
:101640002D0C58F00E94260C40F029F45F3F29F041
:101650000C941D0C51110C94680C0C94230C0E94DA
:10166000450C68F39923B1F3552391F3951B550B62
:10167000BB27AA2762177307840738F09F5F5F4F65
:10168000220F331F441FAA1FA9F335D00E2E3AF0A4
:10169000E0E832D091505040E695001CCAF72BD0BC
:1016A000FE2F29D0660F771F881FBB1F261737070D
:1016B0004807AB07B0E809F0BB0B802DBF01FF273F
:1016C00093585F4F3AF09E3F510578F00C941D0CF3
:1016D0000C94680C5F3FE4F3983ED4F386957795BD
:1016E0006795B795F7959F5FC9F7880F911D9695F8
:1016F000879597F90895E1E0660F771F881FBB1F54
:10170000621773078407BA0720F0621B730B840B00
:10171000BA0BEE1F88F7E09508950E944D0C88F0F3
:101720009F5798F0B92F9927B751B0F0E1F0660FA5
:10173000771F881F991F1AF0BA95C9F714C0B130E6
:1017400091F00E94670CB1E008950C94670C672F2C
:10175000782F8827B85F39F0B93FCCF38695779515
:101760006795B395D9F73EF49095809570956195FE
:101770007F4F8F4F9F4F0895E89409C097FB3EF429
:1017800090958095709561957F4F8F4F9F4F9923CE
:10179000A9F0F92F96E9BB279395F695879577954C
:1017A0006795B795F111F8CFFAF4BB0F11F460FF0C
:1017B0001BC06F5F7F4F8F4F9F4F16C0882311F064
:1017C00096E911C0772321F09EE8872F762F05C078
:1017D000662371F096E8862F70E060E02AF09A9513
:1017E000660F771F881FDAF7880F9695879597F908
:1017F0000895990F0008550FAA0BE0E8FEEF1616A2
:101800001706E807F907C0F012161306E407F507F4
:1018100098F0621B730B840B950B39F40A2661F068
:10182000232B242B252B21F408950A2609F4A1400B
:10183000A6958FEF811D811D089597F99F6780E818
:1018400070E060E008959FEF80EC089500240A9412
:101850001616170618060906089500240A9412168B
:101860001306140605060895092E0394000C11F4BE
:10187000882352F0BB0F40F4BF2B11F460FF04C06B
:101880006F5F7F4F8F4F9F4F089557FD9058440FC4
:10189000551F59F05F3F71F04795880F97FB991FCF
:1018A00061F09F3F79F0879508951216130614068C
:1018B000551FF2CF4695F1DF08C016161706180619
:1018C000991FF1CF86957105610508940895E894F4
:1018D000BB2766277727CB0197F908950E94F90B5C
:1018E00008F48FEF08950E94860C0C94340C0E942B
:1018F000260C38F00E942D0C20F0952311F00C944A
:101900001D0C0C94230C11240C94680C0E94450CA3
:1019100070F3959FC1F3950F50E0551F629FF00142
:10192000729FBB27F00DB11D639FAA27F00DB11D5B
:10193000AA1F649F6627B00DA11D661F829F2227E4
:10194000B00DA11D621F739FB00DA11D621F839F6B
:10195000A00D611D221F749F3327A00D611D231F41
:10196000849F600D211D822F762F6A2F11249F578F
:1019700050409AF0F1F088234AF0EE0FFF1FBB1F92
:10198000661F771F881F91505040A9F79E3F510551
:1019900080F00C941D0C0C94680C5F3FE4F3983EAF
:1019A000D4F3869577956795B795F795E7959F5FFB
:1019B000C1F7FE2B880F911D9695879597F908958D
:1019C0000E94F90B880B990B0895A1E21A2EAA1B0D
:1019D000BB1BFD010DC0AA1FBB1FEE1FFF1FA217DF
:1019E000B307E407F50720F0A21BB30BE40BF50BDC
:1019F000661F771F881F991F1A9469F76095709565
:101A0000809590959B01AC01BD01CF010895052EF5
:101A100097FB1EF400940E941E0D57FD07D00E94F4
:101A2000E50C07FC03D04EF40C941E0D5095409528
:101A3000309521953F4F4F4F5F4F0895909580957A
:101A4000709561957F4F8F4F9F4F0895EE0FFF1F49
:101A50000590F491E02D09940F931F93CF93DF939A
:101A60008230910510F482E090E0E0911203F09151
:101A7000130330E020E0B0E0A0E0309799F42115A6
:101A8000310509F44AC0281B390B24303105D8F53B
:101A90008A819B816115710589F1FB0193838283A2
:101AA000FE0111C0408151810281138148175907FD
:101AB000E0F04817590799F4109761F012960C93CB
:101AC000129713961C933296CF01DF91CF911F91FD
:101AD0000F9108950093120310931303F4CF21156F
:101AE000310551F04217530738F0A901DB019A0183
:101AF000BD01DF01F801C1CFEF01F9CF90931303CE
:101B000080931203CDCFFE01E20FF31F81939193D7
:101B10002250310939832883D7CF20911003309187
:101B20001103232B41F420910201309103013093E2
:101B30001103209310032091000130910101211520
:101B4000310541F42DB73EB7409104015091050194
:101B5000241B350BE0911003F0911103E217F307FA
:101B6000A0F42E1B3F0B2817390778F0AC014E5F0D
:101B70005F4F2417350748F04E0F5F1F5093110336
:101B800040931003819391939FCFF0E0E0E09CCFCE
:101B9000CF93DF930097E9F0FC0132971382128212
:101BA000A0911203B0911303ED0130E020E01097F3
:101BB000A1F420813181820F931F20911003309175
:101BC00011032817390709F061C0F0931103E0935E
:101BD0001003DF91CF910895EA01CE17DF07E8F5F2
:101BE0004A815B819E0141155105B1F7E901FB83F3
:101BF000EA8349915991C40FD51FEC17FD0761F491
:101C0000808191810296840F951FE90199838883D1
:101C1000828193819B838A83F0E0E0E012968D912C
:101C20009C9113970097B9F52D913C911197CD0197
:101C30000296820F931F20911003309111032817F1
:101C4000390739F6309751F51092130310921203A9
:101C5000B0931103A0931003BCCFD383C283408100
:101C60005181840F951FC817D90761F44E5F5F4FEC
:101C700088819981480F591F518340838A819B81B4
:101C8000938382832115310509F0B0CFF0931303BC
:101C9000E09312039ECFFD01DC01C0CF13821282BC
:101CA000D7CFFB01DC014150504048F001900D922C
:101CB0000020C9F701C01D9241505040E0F708953F
:101CC000F894FFCF000014038000000000002C01F6
:101CD0008C00B9007901EA00C800DC0000000000B7
:101CE000C7037C07C80306056F0600000000C70392
:101CF0007E07C8038C05EB060D0A006E616E006955
:101D00006E66006F76660044485431310044485492
:101D10003132004448543231004448543232004495
:101D200048543F005573616E646F206F2053656E99
:101D3000736F7220444854002D2D2D2D2D2D2D2DE7
:101D40002D2D2D2D2D2D2D2D2D2D2D2D2D2D2D2DC3
:101D50002D2D2D2D2D2D2D2D2D2D2D2D0054656D41
:101D600070657261747572610053656E736F723A5B
:101D7000202020202020200056616C6F72206D6191
:101D8000783A2020202000202A430056616C6F7290
:101D9000206D696E3A20202020005265736F6C75AB
:101DA00063616F3A20202000556D696461646500AD
:101DB00025004572726F206E61206C6569747572C2
:101DC000612064612054656D706572617475726123
:101DD000210054656D70657261747572613A2000FE
:101DE000556D69646164653A20004572726F206EBA
:101DF00061206C65697475726120646120556D693C
:061E00006461646521002D
:107E0000112484B714BE81FFF0D085E080938100F7
:107E100082E08093C00088E18093C10086E0809377
:107E2000C20080E18093C4008EE0C9D0259A86E02C
:107E300020E33CEF91E0309385002093840096BBD3
:107E4000B09BFECF1D9AA8958150A9F7CC24DD24C4
:107E500088248394B5E0AB2EA1E19A2EF3E0BF2EE7
:107E6000A2D0813461F49FD0082FAFD0023811F036
:107E7000013811F484E001C083E08DD089C08234E0
:107E800011F484E103C0853419F485E0A6D080C0E4
:107E9000853579F488D0E82EFF2485D0082F10E0AE
:107EA000102F00270E291F29000F111F8ED06801E7
:107EB0006FC0863521F484E090D080E0DECF843638
:107EC00009F040C070D06FD0082F6DD080E0C81688
:107ED00080E7D80618F4F601B7BEE895C0E0D1E017
:107EE00062D089930C17E1F7F0E0CF16F0E7DF06D8
:107EF00018F0F601B7BEE89568D007B600FCFDCFD4
:107F0000A601A0E0B1E02C9130E011968C91119780
:107F100090E0982F8827822B932B1296FA010C0160
:107F200087BEE89511244E5F5F4FF1E0A038BF0790
:107F300051F7F601A7BEE89507B600FCFDCF97BE46
:107F4000E89526C08437B1F42ED02DD0F82E2BD052
:107F50003CD0F601EF2C8F010F5F1F4F84911BD097
:107F6000EA94F801C1F70894C11CD11CFA94CF0C13
:107F7000D11C0EC0853739F428D08EE10CD085E9AC
:107F80000AD08FE07ACF813511F488E018D01DD067
:107F900080E101D065CF982F8091C00085FFFCCF94
:107FA0009093C60008958091C00087FFFCCF809118
:107FB000C00084FD01C0A8958091C6000895E0E648
:107FC000F0E098E1908380830895EDDF803219F02E
:107FD00088E0F5DFFFCF84E1DECF1F93182FE3DFCA
:107FE0001150E9F7F2DF1F91089580E0E8DFEE27F6
:047FF000FF270994CA
:027FFE00040479
:00000001FF
