:100000000C943D010C9423080C94F8070C94CD0734
:100010000C94A2070C9477070C944C070C942107BE
:100020000C94F6060C946E010C946E010C946E0107
:100030000C946E010C946E010C946E010C946E0184
:100040000C946E010C946E010C946E010C946E0174
:100050000C944E080C946E010C946E010C94AC063A
:100060000C946E010C9476060C944C060C946E0164
:100070000C946E010C946E010C946E010C946E0144
:100080000C946E010C946E010C946E010C946E0134
:100090000C946E010C946E010C946E010C946E0124
:1000A0000C946E010C946E010C946E010C946E0114
:1000B0000C946E010C946E010C946E010C946E0104
:1000C0000C946E010C946E010C946E010C946E01F4
:1000D0000C946E010C946E010C946E010C946E01E4
:1000E0000C946E010C9479080C9465030C94300305
:1000F0000C941E030C9449030C94B5010C944B0210
:100100000C946F030C9498020C944F030C946B03A3
:100110000C9453030C943F030C9405020C94570366
:100120000C943C030C9419030C9434030C941005A8
:100130000C94F1010C940F050C945D030C94610375
:100140000C9413020C94E2010C94AE010C94450340
:100150000C94A8010C94380300002100240027000F
:100160002A002D00300033000101000004010701C6
:100170000A0100002200250028002B002E0031007B
:10018000340002010000050108010B0100000A0B08
:1001900002090C0D0E080703040100000000000016
:1001A000000000000000000000000000000000004F
:1001B000000000000000000012111000000000000C
:1001C000000000000000000000000000000000002F
:1001D0000000000020002300260029002C002F0032
:1001E00032000001000003010601090105050505B3
:1001F000070508080808020202020A0A080804049F
:1002000004040101010101010101030303030303CC
:100210000303040707070C0C0C0C0C0C0C0C02025B
:10022000020206060606060606060B0B0B0B0B0B58
:100230000B0B0102102020080810204010204080E5
:10024000020102010804020101020408102040809A
:100250008040201008040201800402018040201028
:100260000804020108040201010204081020408071
:100270000102040810204080790811241FBECFEF2E
:10028000D1E2DEBFCDBF00E00CBF12E0A0E0B2E0E3
:10029000E2ECFBE100E00BBF02C007900D92A43C32
:1002A000B107D9F723E0A4ECB2E001C01D92A13957
:1002B000B207E1F711E0CDE3D1E000E006C02197FD
:1002C0000109802FFE010E94D70DCC33D10780E0B9
:1002D0000807A9F70E94C6080C94DF0D0C940000D3
:1002E000CF92DF92EF92FF92CF93DF93B09185038D
:1002F000A0E08111AB2F8091860390E0880F991FB9
:10030000AC014E525E4FC0908B03D0908C03E090B6
:100310008D03F0908E0330E020E0FA01C591D49176
:10032000E881B90190E080E0EB23EA130AC02F5F77
:100330003F4F6C157D058E059F0578F36FEF7FEFBE
:10034000CB01DF91CF91FF90EF90DF90CF90089598
:100350008091DF028F5F8093DF0208958091E00239
:1003600091E089278093E0020895AF92BF92CF92E7
:10037000DF92EF92FF920F931F93CF93DF936C0165
:100380007B018B01040F151FEB015E01AE18BF0846
:10039000C017D10759F06991D601ED91FC910190F8
:1003A000F081E02DC6011995892B79F7C501DF9100
:1003B000CF911F910F91FF90EF90DF90CF90BF9062
:1003C000AF900895FC01538D448D252F30E0842F8C
:1003D00090E0821B930B541710F0CF96089501976D
:1003E0000895FC01918D828D981761F0A28DAE0F5A
:1003F000BF2FB11D5D968C91928D9F5F9F73928FE1
:1004000090E008958FEF9FEF0895FC01918D828D0C
:10041000981731F0828DE80FF11D858D90E00895D9
:100420008FEF9FEF0895FC01918D228D892F90E031
:10043000805C9F4F821B91098F739927089581EEED
:1004400092E00E94130221E0892B09F420E0822F20
:100450000895FC01A48DA80FB92FB11DA35ABF4F59
:100460002C91848D90E001968F739927848FA689B3
:10047000B7892C93A089B1898C91837080648C9307
:10048000938D848D981306C00288F389E02D8081B6
:100490008F7D80830895EF92FF920F931F93CF93E8
:1004A000DF93EC0181E0888F9B8D8C8D98131AC0AF
:1004B000E889F989808185FF15C09FB7F894EE8996
:1004C000FF896083E889F9898081837080648083F3
:1004D0009FBF81E090E0DF91CF911F910F91FF903E
:1004E000EF900895F62E0B8D10E00F5F1F4F0F73E6
:1004F0001127E02E8C8D8E110CC00FB607FCFACFA1
:10050000E889F989808185FFF5CFCE010E94290213
:10051000F1CFEB8DEC0FFD2FF11DE35AFF4FF08271
:100520009FB7F8940B8FEA89FB8980818062CFCFD7
:10053000CF93DF93EC01888D8823B9F0AA89BB891A
:10054000E889F9898C9185FD03C0808186FD0DC005
:100550000FB607FCF7CF8C9185FFF2CF808185FF26
:10056000EDCFCE010E942902E9CFDF91CF9108950E
:1005700080E090E0892B29F00E941F0281110E94E7
:10058000000080E090E0892B49F080E090E0892B2A
:1005900029F00E94000081110E94000080E090E09C
:1005A000892B49F080E090E0892B29F00E9400001F
:1005B00081110E94000080E090E0892B49F080E0EA
:1005C00090E0892B29F00E94000081110C9400001A
:1005D0000895282F30E0F901E457FE4F9491F90176
:1005E000EE5CFD4F449124513E4FF90124912223AA
:1005F00009F435C0992311F191509231F8F4E92FA3
:10060000F0E08827E95FFC4F8F4F0C94D70D38033B
:100610003C031903300334031E033F03450349031E
:100620004F03530357035D0361031E0365036B030D
:100630006F03809180008F7780938000E22FF0E03D
:10064000EE0FFF1FEE58FE4FA591B4918FB7F894AF
:10065000EC91611148C040954E234C938FBF089593
:10066000809180008F7DE8CF80918000877FE4CFEC
:1006700084B58F7784BDE2CF84B58F7DFBCF809129
:10068000B0008F778093B000D9CF8091B0008F7D7C
:10069000F9CF809190008F7780939000CFCF809199
:1006A00090008F7DF9CF80919000877FF5CF80916A
:1006B000A0008F778093A000C1CF8091A0008F7D94
:1006C000F9CF8091A000877FF5CF809120018F77AF
:1006D00080932001B3CF809120018F7DF9CF80914D
:1006E0002001877FF5CF4E2BB8CFCF93DF9390E0DB
:1006F000FC01EE5CFD4F249184519E4FFC018491DE
:100700008823D1F090E0880F991FFC01E85AFE4F32
:10071000A591B491FC01EE58FE4FC591D491623081
:1007200071F49FB7F8943C91822F809583238C932A
:10073000E8812E2B28839FBFDF91CF9108958FB73B
:10074000F894EC912E2B2C938FBFF6CF3FB7F894F3
:100750008091C9029091CA02A091CB02B091CC02C3
:1007600026B5A89B05C02F3F19F00196A11DB11D0C
:100770003FBFBA2FA92F982F8827BC01CD01620F48
:10078000711D811D911D42E0660F771F881F991F03
:100790004A95D1F708958F929F92AF92BF92CF92D0
:1007A000DF92EF92FF924B015C010E94A6036B0166
:1007B0007C010E94A6036C197D098E099F09683E81
:1007C000734081059105A8F321E0821A9108A108E0
:1007D000B10888EEC80E83E0D81EE11CF11C81141C
:1007E0009104A104B10429F7FF90EF90DF90CF901E
:1007F000BF90AF909F908F9008952FB7F89460911D
:10080000C5027091C6028091C7029091C8022FBFA5
:100810000895CF92DF92EF92FF920F931F93CF93A1
:10082000DF93CDB7DEB7C054D1400FB6F894DEBF2A
:100830000FBECDBF0E94FD03009187031091880376
:100840002091890330918A036B017C01C01AD10A7F
:10085000E20AF30A97018601003D174021053105A0
:1008600090F480918F03C05CDE4F0FB6F894DEBF2A
:100870000FBECDBFDF91CF911F910F91FF90EF90F1
:10088000DF90CF90089560938703709388038093DF
:10089000890390938A03109282031092810310922D
:1008A000800310927F0310927E0362E080918303A5
:1008B0000E94750361E070E080E090E00E94CB034D
:1008C00061E0809183030E94750360E0809183035F
:1008D0000E94E902809184038551823020F58BE2E9
:1008E00091E10197F1F762E0809183030E94750323
:1008F0008091900390E08230910538F0880F991F25
:10090000880F991F05970197F1F7F89480E00E94EE
:1009100070016F3F7F4F8F4F9F4F61F410928F0395
:10092000789480E0A0CF64E170E080E090E00E94E5
:10093000CB03D9CF81E00E9470016F3F7F4F8F4F73
:100940009F4F61F38E010F5F1F4F6E012FEBC21A95
:100950002EEFD20A780180E00E947001F7016083D7
:1009600071838283938381E00E947001F701648325
:10097000758386839783F8E0EF0EF11CEC14FD0479
:1009800051F7789430E020E0F801C080D180E28017
:10099000F3804481558166817781FFEFCF16DF06B2
:1009A000EF06FF0631F04F3F8FEF580768077807D3
:1009B00019F410928F03B5CFF90183E0F595E7950F
:1009C0008A95E1F7E258FC4F8081880FC416D5065E
:1009D000E606F70610F180832F5F3F4F085F1F4F39
:1009E0002832310589F64091820320917E0380915F
:1009F0007F03280F3327331F80918003280F311D79
:100A000080918103820F932F911D99274817190612
:100A100081F681E080938F0326CF8160DCCF08953B
:100A20000895FC0101900020E9F73197AF01481BC0
:100A3000590BBC0181EE92E00C94B5018F929F920C
:100A4000AF92BF920F931F93CF93DF93CDB7DEB7D3
:100A5000A1970FB6F894DEBF0FBECDBF19A24230EA
:100A600008F44AE08E010F5D1F4F842E912CB12CAB
:100A7000A12CA50194010E94B50DE62FB901CA0170
:100A8000EA30F4F4E05DD801EE938D01232B242BA2
:100A9000252B79F790E080E0109719F0CD010E94A6
:100AA0001105A1960FB6F894DEBF0FBECDBFDF9142
:100AB000CF911F910F91BF90AF909F908F9008950D
:100AC000E95CE1CFCF93DF930E941105EC0184E252
:100AD00092E00E9411058C0F9D1FDF91CF91089528
:100AE0004F925F926F927F928F929F92AF92BF923E
:100AF000CF92DF92EF92FF920F931F93CF936B01F0
:100B00007C01742EAC019B010E94B00D882399F0EA
:100B100087E292E0CF911F910F91FF90EF90DF90CD
:100B2000CF90BF90AF909F908F907F906F905F908D
:100B30004F900C94110546015701E894B7F82FEF38
:100B40003FEF4FE75FE7C501B4010E94B00D81118F
:100B50000DC02FEF3FEF4FE75FE7C501B4010E94E3
:100B6000E60B18161CF48BE292E0D4CF2FEF3FEF88
:100B70004FE75FE4C701B6010E943E0D18161CF452
:100B80008FE292E0C7CF2FEF3FEF4FE75FECC70157
:100B9000B6010E94E60B87FDF3CF20E030E0A9010B
:100BA000C701B6010E94E60B10E000E087FF0AC013
:100BB0006DE281EE92E00E944B028C01F7FAF09414
:100BC000F7F8F094C0E060E070E080E09FE37C160E
:100BD00041F020E030E040E251E40E94EB0BCF5FB7
:100BE000F6CFA70196010E947A0B2B013C010E94CF
:100BF0005D0C4B015C014AE00E941E057C01E00E89
:100C0000F11ECC23C1F1C501B4010E948C0C9B01E3
:100C1000AC01C301B2010E94790B4B015C016EE291
:100C200081EE92E00E944B02E80EF91EC15018F1CD
:100C300020E030E040E251E4C501B4010E94430DE0
:100C40002B013C010E945D0C4B01B12CA12C4AE010
:100C5000C501B4010E941E05E80EF91EC501B401CC
:100C60000E948C0C9B01AC01C301B2010E94790B64
:100C70004B015C01DBCFC701CF911F910F91FF901A
:100C8000EF90DF90CF90BF90AF909F908F907F902C
:100C90006F905F904F9008951F920F920FB60F9232
:100CA00011240BB60F922F933F934F935F936F9343
:100CB0007F938F939F93AF93BF93EF93FF9381EEB7
:100CC00092E00E942902FF91EF91BF91AF919F9115
:100CD0008F917F916F915F914F913F912F910F90E5
:100CE0000BBE0F900FBE0F901F9018951F920F9282
:100CF0000FB60F9211240BB60F922F938F939F93E1
:100D0000EF93FF93E091F102F091F2028081E09184
:100D1000F702F091F80282FD1DC090818091FA02E5
:100D20008F5F8F732091FB02821741F0E091FA02EE
:100D3000F0E0EF51FD4F958F8093FA02FF91EF9114
:100D40009F918F912F910F900BBE0F900FBE0F9020
:100D50001F9018958081F2CF1F920F920FB60F92BD
:100D600011242F933F938F939F93AF93BF938091C1
:100D7000C5029091C602A091C702B091C8023091FD
:100D8000C40223E0230F2D3758F50196A11DB11D94
:100D90002093C4028093C5029093C602A093C70219
:100DA000B093C8028091C9029091CA02A091CB026F
:100DB000B091CC020196A11DB11D8093C902909300
:100DC000CA02A093CB02B093CC02BF91AF919F9186
:100DD0008F913F912F910F900FBE0F901F901895FC
:100DE00026E8230F0296A11DB11DD2CF1F920F92AC
:100DF0000FB60F9211240BB60F922F933F934F9380
:100E00005F936F937F938F939F93AF93BF93EF9372
:100E1000FF93E0910E02F0910F021995FF91EF916F
:100E2000BF91AF919F918F917F916F915F914F9102
:100E30003F912F910F900BBE0F900FBE0F901F9000
:100E400018951F920F920FB60F9211240BB60F92A6
:100E50002F933F934F935F936F937F938F939F93C2
:100E6000AF93BF93EF93FF93E0910C02F0910D02CB
:100E70001995FF91EF91BF91AF919F918F917F91C4
:100E80006F915F914F913F912F910F900BBE0F90FB
:100E90000FBE0F901F9018951F920F920FB60F92D2
:100EA00011240BB60F922F933F934F935F936F9341
:100EB0007F938F939F93AF93BF93EF93FF93E091B3
:100EC0000202F09103021995FF91EF91BF91AF914A
:100ED0009F918F917F916F915F914F913F912F9152
:100EE0000F900BBE0F900FBE0F901F9018951F9282
:100EF0000F920FB60F9211240BB60F922F933F93C0
:100F00004F935F936F937F938F939F93AF93BF9311
:100F1000EF93FF93E0910002F09101021995FF9188
:100F2000EF91BF91AF919F918F917F916F915F9161
:100F30004F913F912F910F900BBE0F900FBE0F90CE
:100F40001F9018951F920F920FB60F9211240BB697
:100F50000F922F933F934F935F936F937F938F9352
:100F60009F93AF93BF93EF93FF93E0910A02F091A9
:100F70000B021995FF91EF91BF91AF919F918F91C6
:100F80007F916F915F914F913F912F910F900BBE89
:100F90000F900FBE0F901F9018951F920F920FB6D3
:100FA0000F9211240BB60F922F933F934F935F93A1
:100FB0006F937F938F939F93AF93BF93EF93FF9321
:100FC000E0910802F09109021995FF91EF91BF910C
:100FD000AF919F918F917F916F915F914F913F91D1
:100FE0002F910F900BBE0F900FBE0F901F90189572
:100FF0001F920F920FB60F9211240BB60F922F93E0
:101000003F934F935F936F937F938F939F93AF9390
:10101000BF93EF93FF93E0910602F09107021995B9
:10102000FF91EF91BF91AF919F918F917F916F91C0
:101030005F914F913F912F910F900BBE0F900FBE7C
:101040000F901F9018951F920F920FB60F921124B8
:101050000BB60F922F933F934F935F936F937F93B2
:101060008F939F93AF93BF93EF93FF93E09104020D
:10107000F09105021995FF91EF91BF91AF919F916A
:101080008F917F916F915F914F913F912F910F9031
:101090000BBE0F900FBE0F901F9018951F920F92CE
:1010A0000FB60F9211240BB60F922F933F934F93CD
:1010B0005F936F937F938F939F93AF93BF93EF93C0
:1010C000FF93E0911002F09111021995FF91EF91B9
:1010D000BF91AF919F918F917F916F915F914F9150
:1010E0003F912F910F900BBE0F900FBE0F901F904E
:1010F0001895E1EEF2E01382128288EE93E0A0E010
:10110000B0E084839583A683B78386E192E09183E0
:10111000808385EC90E09587848784EC90E09787C6
:10112000868780EC90E0918B808B81EC90E0938BB4
:10113000828B82EC90E0958B848B86EC90E0978B91
:10114000868B118E128E138E148EAEE7B3E087E07D
:1011500015968C93159786E116968C931697E9E36E
:10116000F2E0E4911796EC931797E3EFF1E0E49146
:101170001896EC93189740E85EE360E070E01D96E7
:101180004D935D936D937C9350970895789484B5B7
:10119000826084BD84B5816084BD85B5826085BD73
:1011A00085B5816085BD80916E00816080936E0001
:1011B00010928100809181008260809381008091F3
:1011C00081008160809381008091800081608093A4
:1011D00080008091B10084608093B1008091B00064
:1011E00081608093B0008091910082608093910033
:1011F0008091910081608093910080919000816046
:10120000809390008091A10082608093A1008091E2
:10121000A10081608093A1008091A00081608093F3
:10122000A0008091210182608093210180912101A1
:101230008160809321018091200181608093200151
:1012400080917A00846080937A0080917A00826035
:1012500080937A0080917A00816080937A008091F7
:101260007A00806880937A001092C10061E088E083
:101270000E94750362E082E00E947503E091F10232
:10128000F091F20282E08083E091ED02F091EE02B3
:101290001082E091EF02F091F0028FEC80831092C7
:1012A000F902E091F502F091F60286E08083E09188
:1012B000F302F091F402808180618083E091F30277
:1012C000F091F402808188608083E091F302F091D4
:1012D000F402808180688083E091F302F091F4024F
:1012E00080818F7D808362E0809183030E947503FB
:1012F0000E94FD03605D7740810991096093870337
:10130000709388038093890390938A0387E3809383
:10131000900380E1809381001092800082E19AE73F
:10132000909387008093860084E1809381008EEA09
:1013300091E0909301028093000280916A008C7F7B
:10134000816080936A00EC9A0E94FD036093CF0253
:101350007093D0028093D1029093D2020E94FD0339
:101360006093D3027093D4028093D5029093D602F7
:10137000C8EAD1E011E08091E002882309F400C1BD
:10138000D0931102C093100210936F008091DF027E
:10139000882331F0813009F408C11092DF02F0C0D7
:1013A0000E940904882341F0809184038C3009F461
:1013B00064C038F48B30F1F060E070E080EC9FE7BF
:1013C00041C085518230C0F700918003602F70E0EA
:1013D000762F662766277F7780918103682B90E0C0
:1013E00080E00E948C0C2DEC3CEC4CEC5DE30E9408
:1013F000430D5FC06091800370E090E080E00E9448
:101400008C0C6B017C010091810307FF0AC0AC01C9
:101410009B0160E070E080E89FEB0E94790B6B011C
:101420007C010F70602F70E090E080E00E948E0CD5
:101430002DEC3CEC4CEC5DE30E94430DA7019601C2
:101440000E947A0B6093DB027093DC028093DD02D2
:101450009093DE020E940904882351F08091840356
:101460008B3030F08D3048F18551823008F48BC0DC
:1014700060E070E080EC9FE73CC000918003602F4B
:1014800070E090E080E00E948C0C6B017C01609128
:1014900081036F7070E090E080E00E948E0C2DEC74
:1014A0003CEC4CEC5DE30E94430DA70196010E94C9
:1014B0007A0B07FFC7CF9058C5CF60917F0370E0CC
:1014C00090E080E00E948E0C2DEC3CEC4CEC5DE357
:1014D0000E94430D6B017C0160917E0370E090E0FF
:1014E00080E00E948E0C9B01AC01C701B6010E94F6
:1014F0007A0B6093D7027093D8028093D9029093AD
:10150000DA020E94FD03C090D302D090D402E09092
:10151000D502F090D6026C197D098E099F09613DB4
:1015200077408105910560F10E94FD036093D3022D
:101530007093D4028093D5029093D60283E392E015
:101540000E9411056091DB027091DC028091DD0246
:101550009091DE0242E00E94700580E492E00E94D9
:1015600011056091D7027091D8028091D9029091B3
:10157000DA0242E00E94700584E292E00E941105C6
:101580000E94B802F8CE60917E0370917F037627A7
:101590006727762790E080E00E948C0C2DEC3CECD5
:1015A0004CEC5DE30E94430DA4CF0E94FD03C0906C
:1015B000CF02D090D002E090D102F090D2026C190C
:1015C0007D098E099F09693B7B4081059105C0F229
:1015D0000E94FD036093CF027093D0028093D102EA
:1015E0009093D202C090DB02D090DC02E090DD024A
:1015F000F090DE0220E030E040E251E4C701B601A5
:101600000E94E60B87FD0BC020E030E04CE852E47E
:10161000C701B6010E943E0D18160CF064C010936D
:10162000CE02C090D702D090D802E090D902F090BC
:10163000DA0220E030E040EA51E4C701B6010E943E
:10164000E60B87FD0BC020E030E040EA52E4C70122
:10165000B6010E943E0D18160CF048C01093CD0242
:101660008091CE02811105C08091CD0260E0882377
:10167000A9F08CE492E00E9462058091CE0288235A
:1016800021F087E692E00E9462058091CD028823D6
:1016900021F087E892E00E94620561E088E00E9404
:1016A000E9026091DB027091DC028091DD02909191
:1016B000DE029B01AC010E94B00D81110FC0609150
:1016C000D7027091D8028091D9029091DA029B01E1
:1016D000AC010E94B00D882309F452CF83EA92E056
:1016E0000E9462054DCF1092CE029BCF1092CD0288
:1016F000B7CF5058BB27AA270E94910B0C94040D1A
:101700000E94F60C38F00E94FD0C20F039F49F3F47
:1017100019F426F40C94F30C0EF4E095E7FB0C940A
:10172000ED0CE92F0E94150D58F3BA1762077307E5
:101730008407950720F079F4A6F50C94370D0EF484
:10174000E0950B2EBA2FA02D0B01B90190010C01D1
:10175000CA01A0011124FF27591B99F0593F50F4E9
:10176000503E68F11A16F040A22F232F342F442741
:10177000585FF3CF469537952795A795F040539539
:10178000C9F77EF41F16BA0B620B730B840BBAF009
:101790009150A1F0FF0FBB1F661F771F881FC2F774
:1017A0000EC0BA0F621F731F841F48F48795779588
:1017B0006795B795F7959E3F08F0B0CF9395880F42
:1017C00008F09927EE0F9795879508950E94C90C08
:1017D00008F481E008950E94FF0B0C94040D0E9410
:1017E000FD0C58F00E94F60C40F029F45F3F29F000
:1017F0000C94ED0C51110C94380D0C94F30C0E94C8
:10180000150D68F39923B1F3552391F3951B550BEF
:10181000BB27AA2762177307840738F09F5F5F4FC3
:10182000220F331F441FAA1FA9F335D00E2E3AF002
:10183000E0E832D091505040E695001CCAF72BD01A
:10184000FE2F29D0660F771F881FBB1F261737076B
:101850004807AB07B0E809F0BB0B802DBF01FF279D
:1018600093585F4F3AF09E3F510578F00C94ED0C81
:101870000C94380D5F3FE4F3983ED4F3869577954A
:101880006795B795F7959F5FC9F7880F911D969556
:10189000879597F90895E1E0660F771F881FBB1FB2
:1018A000621773078407BA0720F0621B730B840B5F
:1018B000BA0BEE1F88F7E09508950E941D0D88F081
:1018C0009F5798F0B92F9927B751B0F0E1F0660F04
:1018D000771F881F991F1AF0BA95C9F714C0B13045
:1018E00091F00E94370DB1E008950C94370D672FE9
:1018F000782F8827B85F39F0B93FCCF38695779574
:101900006795B395D9F73EF490958095709561955C
:101910007F4F8F4F9F4F0895E89409C097FB3EF487
:1019200090958095709561957F4F8F4F9F4F99232C
:10193000A9F0F92F96E9BB279395F69587957795AA
:101940006795B795F111F8CFFAF4BB0F11F460FF6A
:101950001BC06F5F7F4F8F4F9F4F16C0882311F0C2
:1019600096E911C0772321F09EE8872F762F05C0D6
:10197000662371F096E8862F70E060E02AF09A9571
:10198000660F771F881FDAF7880F9695879597F966
:101990000895990F0008550FAA0BE0E8FEEF161600
:1019A0001706E807F907C0F012161306E407F50753
:1019B00098F0621B730B840B950B39F40A2661F0C7
:1019C000232B242B252B21F408950A2609F4A1406A
:1019D000A6958FEF811D811D089597F99F6780E877
:1019E00070E060E008959FEF80EC089500240A9471
:1019F0001616170618060906089500240A941216EA
:101A00001306140605060895092E0394000C11F41C
:101A1000882352F0BB0F40F4BF2B11F460FF04C0C9
:101A20006F5F7F4F8F4F9F4F089557FD9058440F22
:101A3000551F59F05F3F71F04795880F97FB991F2D
:101A400061F09F3F79F087950895121613061406EA
:101A5000551FF2CF4695F1DF08C016161706180677
:101A6000991FF1CF86957105610508940895E89452
:101A7000BB2766277727CB0197F908950E94C90CE9
:101A800008F48FEF08950E94560D0C94040D0E94E7
:101A9000F60C38F00E94FD0C20F0952311F00C9408
:101AA000ED0C0C94F30C11240C94380D0E94150DC0
:101AB00070F3959FC1F3950F50E0551F629FF001A1
:101AC000729FBB27F00DB11D639FAA27F00DB11DBA
:101AD000AA1F649F6627B00DA11D661F829F222743
:101AE000B00DA11D621F739FB00DA11D621F839FCA
:101AF000A00D611D221F749F3327A00D611D231FA0
:101B0000849F600D211D822F762F6A2F11249F57ED
:101B100050409AF0F1F088234AF0EE0FFF1FBB1FF0
:101B2000661F771F881F91505040A9F79E3F5105AF
:101B300080F00C94ED0C0C94380D5F3FE4F3983E6C
:101B4000D4F3869577956795B795F795E7959F5F59
:101B5000C1F7FE2B880F911D9695879597F90895EB
:101B60000E94C90C880B990B0895A1E21A2EAA1B9A
:101B7000BB1BFD010DC0AA1FBB1FEE1FFF1FA2173D
:101B8000B307E407F50720F0A21BB30BE40BF50B3A
:101B9000661F771F881F991F1A9469F760957095C3
:101BA000809590959B01AC01BD01CF010895EE0F8A
:101BB000FF1F881F8BBF0790F691E02D1994F894B2
:021BC000FFCF55
:101BC2000F050F050F050F050F050F050F050F0573
:101BD2001005000000004B02B501E2019802130259
:101BE200F10105020D0A006E616E00696E66006FFA
:101BF20076660054656D70657261747572613A0043
:101C0200432C20556D69646164653A00416C6572CC
:101C12007461206465206C696D6974652065786300
:101C2200656469646F3A002D2054656D7065726158
:101C32007475726120666F726120646F73206C69C3
:101C42006D6974657321002D20556D696461646549
:101C520020666F726120646F73206C696D697465B0
:101C620073210046616C6861206E61206C65697445
:101C720075726120646F2073656E736F72204448C1
:041C820054210000E9
:00000001FF
