:100000000C9439010C946A010C946A010C946A01F5
:100010000C946A010C946A010C946A010C946A01B4
:100020000C946A010C946A010C946A010C946A01A4
:100030000C946A010C946A010C946A010C946A0194
:100040000C946A010C946A010C946A010C946A0184
:100050000C94DC060C946A010C946A010C949206D0
:100060000C946A010C945C060C9432060C946A01A0
:100070000C946A010C946A010C946A010C946A0154
:100080000C946A010C946A010C946A010C946A0144
:100090000C946A010C946A010C946A010C946A0134
:1000A0000C946A010C946A010C946A010C946A0124
:1000B0000C946A010C946A010C946A010C946A0114
:1000C0000C946A010C946A010C946A010C946A0104
:1000D0000C946A010C946A010C946A010C946A01F4
:1000E0000C946A010C942D030C9407070C940405DE
:1000F0000C9440020C94E6010C9460030C944803A9
:100100000C943A030C94AA010C9456030C94FA0133
:100110000C9429030C940E030C9444030C94A40136
:100120000C9413030C9431030C9464030C94080294
:100130000C944C030C9452030C945A030C94340307
:100140000C943E030C94D7010C9425030C948D025F
:1001500000002100240027002A002D003000330079
:1001600001010000040107010A010000220025002E
:1001700028002B002E003100340002010000050190
:1001800008010B0100000A0B02090C0D0E08070301
:10019000040100000000000000000000000000005A
:1001A000000000000000000000000000000000004F
:1001B000121110000000000000000000000000000C
:1001C00000000000000000000000000020002300EC
:1001D000260029002C002F0032000001000003013E
:1001E00006010901050505050705080808080202BA
:1001F00002020A0A080804040404010101010101C1
:1002000001010303030303030303040707070C0CA3
:100210000C0C0C0C0C0C020202020606060606066A
:1002200006060B0B0B0B0B0B0B0B0102102020080F
:100230000810204010204080020102010804020141
:1002400001020408102040808040201008040201B0
:100250008004020180402010080402010804020109
:100260000102040810204080010204081020408090
:10027000070711241FBECFEFD1E2DEBFCDBF00E0E4
:100280000CBF12E0A0E0B2E0E2E8F8E100E00BBF52
:1002900002C007900D92A637B107D9F723E0A6E771
:1002A000B2E001C01D92AD33B207E1F711E0C9E33E
:1002B000D1E000E006C021970109802FFE010E94D5
:1002C000370CC833D10780E00807A9F70E9454070C
:1002D0000C943F0C0C940000CF92DF92EF92FF92AF
:1002E000CF93DF93B0913103A0E08111AB2F8091C8
:1002F000320390E0880F991FAC0146535E4FC090C7
:100300003703D0903803E0903903F0903A0330E09F
:1003100020E0FA01C591D491E881B90190E080E034
:10032000EB23EA130AC02F5F3F4F6C157D058E0546
:100330009F0578F36FEF7FEFCB01DF91CF91FF90B7
:10034000EF90DF90CF90089580918C028F5F809323
:100350008C020895AF92BF92CF92DF92EF92FF92FC
:100360000F931F93CF93DF936C017B018B01040FDD
:10037000151FEB015E01AE18BF08C017D10759F079
:100380006991D601ED91FC910190F081E02DC601BB
:100390001995892B79F7C501DF91CF911F910F91A5
:1003A000FF90EF90DF90CF90BF90AF900895FC0149
:1003B000538D448D252F30E0842F90E0821B930BCA
:1003C000541710F0CF96089501970895FC01918D70
:1003D000828D981761F0A28DAE0FBF2FB11D5D9673
:1003E0008C91928D9F5F9F73928F90E008958FEF15
:1003F0009FEF0895FC01918D828D981731F0828DC9
:10040000E80FF11D858D90E008958FEF9FEF08951F
:10041000FC01918D228D892F90E0805C9F4F821B83
:1004200091098F73992708958DE892E00E94080240
:1004300021E0892B09F420E0822F0895FC01A48D8E
:10044000A80FB92FB11DA35ABF4F2C91848D90E0F6
:1004500001968F739927848FA689B7892C93A089D9
:10046000B1898C91837080648C93938D848D981363
:1004700006C00288F389E02D80818F7D80830895F6
:10048000EF92FF920F931F93CF93DF93EC0181E0E4
:10049000888F9B8D8C8D98131AC0E889F98980818B
:1004A00085FF15C09FB7F894EE89FF896083E889BE
:1004B000F98980818370806480839FBF81E090E0B0
:1004C000DF91CF911F910F91FF90EF900895F62E3D
:1004D0000B8D10E00F5F1F4F0F731127E02E8C8DD7
:1004E0008E110CC00FB607FCFACFE889F98980811C
:1004F00085FFF5CFCE010E941E02F1CFEB8DEC0FF0
:10050000FD2FF11DE35AFF4FF0829FB7F8940B8F38
:10051000EA89FB8980818062CFCFCF93DF93EC01A2
:10052000888D8823B9F0AA89BB89E889F9898C91DB
:1005300085FD03C0808186FD0DC00FB607FCF7CF97
:100540008C9185FFF2CF808185FFEDCFCE010E9497
:100550001E02E9CFDF91CF91089580E090E0892BD2
:1005600029F00E94140281110E94000080E090E0B6
:10057000892B49F080E090E0892B29F00E9400004F
:1005800081110E94000080E090E0892B49F080E01A
:1005900090E0892B29F00E94000081110E94000048
:1005A00080E090E0892B49F080E090E0892B29F0F1
:1005B0000E94000081110C9400000895282F30E063
:1005C000F901EC57FE4F9491F901E65DFD4F44911E
:1005D0002C513E4FF9012491222309F435C099236F
:1005E00011F191509231F8F4E92FF0E08827E450AE
:1005F000FD4F8F4F0C94370C2D0331030E03250351
:100600002903130334033A033E03440348034C0312
:100610005203560313035A0360036403809180005E
:100620008F7780938000E22FF0E0EE0FFF1FE659F6
:10063000FE4FA591B4918FB7F894EC91611148C029
:1006400040954E234C938FBF0895809180008F7DFD
:10065000E8CF80918000877FE4CF84B58F7784BD19
:10066000E2CF84B58F7DFBCF8091B0008F778093F0
:10067000B000D9CF8091B0008F7DF9CF80919000EC
:100680008F7780939000CFCF809190008F7DF9CFAE
:1006900080919000877FF5CF8091A0008F77809325
:1006A000A000C1CF8091A0008F7DF9CF8091A000E4
:1006B000877FF5CF809120018F7780932001B3CF82
:1006C000809120018F7DF9CF80912001877FF5CF28
:1006D0004E2BB8CFCF93DF9390E0FC01E65DFD4F4A
:1006E00024918C519E4FFC0184918823D1F090E09D
:1006F000880F991FFC01E05BFE4FA591B491FC01AE
:10070000E659FE4FC591D491623071F49FB7F894C9
:100710003C91822F809583238C93E8812E2B288314
:100720009FBFDF91CF9108958FB7F894EC912E2B56
:100730002C938FBFF6CF3FB7F89480917B029091B6
:100740007C02A0917D02B0917E0226B5A89B05C0D7
:100750002F3F19F00196A11DB11D3FBFBA2FA92F40
:10076000982F8827BC01CD01620F711D811D911D3D
:1007700042E0660F771F881F991F4A95D1F70895A9
:100780008F929F92AF92BF92CF92DF92EF92FF92A1
:100790004B015C010E949B036B017C010E949B0347
:1007A0006C197D098E099F09683E7340810591058A
:1007B000A8F321E0821A9108A108B10888EEC80EBA
:1007C00083E0D81EE11CF11C81149104A104B10442
:1007D00029F7FF90EF90DF90CF90BF90AF909F9060
:1007E0008F9008952FB7F8946091770270917802F6
:1007F0008091790290917A022FBF0895CF92DF9273
:10080000EF92FF920F931F93CF93DF93CDB7DEB795
:10081000C054D1400FB6F894DEBF0FBECDBF0E94CA
:10082000F20300913303109134032091350330918A
:1008300036036B017C01C01AD10AE20AF30A970160
:100840008601003D17402105310590F480913B035E
:10085000C05CDE4F0FB6F894DEBF0FBECDBFDF9198
:10086000CF911F910F91FF90EF90DF90CF9008955F
:10087000609333037093340380933503909336036E
:1008800010922E0310922D0310922C0310922B0322
:1008900010922A0362E080912F030E946A0361E0B4
:1008A00070E080E090E00E94C00361E080912F033F
:1008B0000E946A0360E080912F030E94DE02809113
:1008C00030038551823020F58BE291E10197F1F7F9
:1008D00062E080912F030E946A0380913C0390E0C4
:1008E0008230910538F0880F991F880F991F05975E
:1008F0000197F1F7F89480E00E946C016F3F7F4F01
:100900008F4F9F4F61F410923B03789480E0A0CF0B
:1009100064E170E080E090E00E94C003D9CF81E004
:100920000E946C016F3F7F4F8F4F9F4F61F38E018D
:100930000F5F1F4F6E012FEBC21A2EEFD20A780104
:1009400080E00E946C01F70160837183828393834E
:1009500081E00E946C01F70164837583868397832D
:10096000F8E0EF0EF11CEC14FD0451F7789430E040
:1009700020E0F801C080D180E280F380448155817D
:1009800066817781FFEFCF16DF06EF06FF0631F0B5
:100990004F3F8FEF58076807780719F410923B0311
:1009A000B5CFF90183E0F595E7958A95E1F7E65D26
:1009B000FC4F8081880FC416D506E606F70610F1B5
:1009C00080832F5F3F4F085F1F4F2832310589F624
:1009D00040912E0320912A0380912B03280F332767
:1009E000331F80912C03280F311D80912D03820F1E
:1009F000932F911D99274817190681F681E080935E
:100A00003B0326CF8160DCCF0895FC0101900020DC
:100A1000E9F73197AF01481B590BBC018DE892E013
:100A20000C94AA018F929F92AF92BF920F931F9343
:100A3000CF93DF93CDB7DEB7A1970FB6F894DEBFA3
:100A40000FBECDBF19A2423008F44AE08E010F5DFF
:100A50001F4F842E912CB12CA12CA50194010E9432
:100A6000150CE62FB901CA01EA30F4F4E05DD801B3
:100A7000EE938D01232B242B252B79F790E080E03A
:100A8000109719F0CD010E940505A1960FB6F894B4
:100A9000DEBF0FBECDBFDF91CF911F910F91BF90F1
:100AA000AF909F908F900895E95CE1CF4F925F9255
:100AB0006F927F928F929F92AF92BF92CF92DF926E
:100AC000EF92FF920F931F93CF936B017C01742ED3
:100AD000AC019B010E94100C882399F084E192E004
:100AE000CF911F910F91FF90EF90DF90CF90BF902B
:100AF000AF909F908F907F906F905F904F900C94ED
:100B0000050546015701E894B7F82FEF3FEF4FE78F
:100B10005FE7C501B4010E94100C81110DC02FEFD9
:100B20003FEF4FE75FE7C501B4010E94460A181680
:100B30001CF488E192E0D4CF2FEF3FEF4FE75FE462
:100B4000C701B6010E949E0B18161CF48CE192E0BE
:100B5000C7CF2FEF3FEF4FE75FECC701B6010E9411
:100B6000460A87FDF3CF20E030E0A901C701B601B6
:100B70000E94460A10E000E087FF0AC06DE28DE89F
:100B800092E00E9440028C01F7FAF094F7F8F0949A
:100B9000C0E060E070E080E09FE37C1641F020E080
:100BA00030E040E251E40E944B0ACF5FF6CFA7014C
:100BB00096010E94DA092B013C010E94BD0A4B01FB
:100BC0005C014AE00E9412057C01E00EF11ECC237C
:100BD000C1F1C501B4010E94EC0A9B01AC01C30143
:100BE000B2010E94D9094B015C016EE28DE892E0EE
:100BF0000E944002E80EF91EC15018F120E030E0DA
:100C000040E251E4C501B4010E94A30B2B013C0159
:100C10000E94BD0A4B01B12CA12C4AE0C501B401D0
:100C20000E941205E80EF91EC501B4010E94EC0AEB
:100C30009B01AC01C301B2010E94D9094B015C01C7
:100C4000DBCFC701CF911F910F91FF90EF90DF9005
:100C5000CF90BF90AF909F908F907F906F905F905C
:100C60004F9008951F920F920FB60F9211240BB65A
:100C70000F922F933F934F935F936F937F938F9335
:100C80009F93AF93BF93EF93FF938DE892E00E9401
:100C90001E02FF91EF91BF91AF919F918F917F9134
:100CA0006F915F914F913F912F910F900BBE0F90DD
:100CB0000FBE0F901F9018951F920F920FB60F92B4
:100CC00011240BB60F922F938F939F93EF93FF9363
:100CD000E0919D02F0919E028081E091A302F0914B
:100CE000A40282FD1DC090818091A6028F5F8F7348
:100CF0002091A702821741F0E091A602F0E0E357AD
:100D0000FD4F958F8093A602FF91EF919F918F9158
:100D10002F910F900BBE0F900FBE0F901F90189544
:100D20008081F2CF1F920F920FB60F9211242F9352
:100D30003F938F939F93AF93BF938091770290914E
:100D40007802A0917902B0917A023091760223E084
:100D5000230F2D3758F50196A11DB11D2093760262
:100D60008093770290937802A0937902B0937A02ED
:100D700080917B0290917C02A0917D02B0917E02D5
:100D80000196A11DB11D80937B0290937C02A093DC
:100D90007D02B0937E02BF91AF919F918F913F9161
:100DA0002F910F900FBE0F901F90189526E8230FDC
:100DB0000296A11DB11DD2CF1F920F920FB60F92B6
:100DC00011240BB60F922F933F934F935F936F9322
:100DD0007F938F939F93AF93BF93EF93FF93E09194
:100DE0000002F09101021995FF91EF91BF91AF912F
:100DF0009F918F917F916F915F914F913F912F9133
:100E00000F900BBE0F900FBE0F901F901895EDE83E
:100E1000F2E01382128288EE93E0A0E0B0E08483D7
:100E20009583A683B78386E092E09183808385ECE7
:100E300090E09587848784EC90E09787868780ECA4
:100E400090E0918B808B81EC90E0938B828B82EC95
:100E500090E0958B848B86EC90E0978B868B118E3F
:100E6000128E138E148EAAE2B3E087E015968C934F
:100E7000159786E116968C931697E1E3F2E0E491DC
:100E80001796EC931797EBEEF1E0E4911896EC933C
:100E9000189740E85EE360E070E01D964D935D9327
:100EA0006D937C9350970895789484B5826084BD47
:100EB00084B5816084BD85B5826085BD85B581605E
:100EC00085BD80916E00816080936E0010928100DC
:100ED0008091810082608093810080918100816097
:100EE0008093810080918000816080938000809158
:100EF000B10084608093B1008091B00081608093E4
:100F0000B000809191008260809391008091910067
:100F10008160809391008091900081608093900027
:100F20008091A10082608093A1008091A1008160E6
:100F30008093A1008091A00081608093A0008091A7
:100F40002101826080932101809121018160809341
:100F500021018091200181608093200180917A009D
:100F6000846080937A0080917A00826080937A0016
:100F700080917A00816080937A0080917A00806805
:100F800080937A001092C10061E088E00E946A03B9
:100F9000E0919D02F0919E0282E08083E0919902AF
:100FA000F0919A021082E0919B02F0919C028FECEA
:100FB00080831092A502E091A102F091A20286E046
:100FC0008083E0919F02F091A00280818061808304
:100FD000E0919F02F091A002808188608083E0917F
:100FE0009F02F091A002808180688083E0919F023F
:100FF000F091A00280818F7D808362E080912F0339
:101000000E946A030E94F203605D774081099109A2
:1010100060933303709334038093350390933603C6
:1010200087E380933C0380E18093810010928000ED
:1010300082E19AE7909387008093860084E1809311
:10104000810084EA91E0909301028093000281E0A4
:1010500080936F000E94F203609384027093850274
:101060008093860290938702C1E080918C0288234E
:1010700031F0813009F408C110928C02F0C00E9456
:10108000FE03882341F0809130038C3009F464C062
:1010900038F48B30F1F060E070E080EC9FE741C005
:1010A00085518230C0F7D0912C036D2F70E0762FE0
:1010B000662766277F7780912D03682B90E080E07C
:1010C0000E94EC0A2DEC3CEC4CEC5DE30E94A30B7F
:1010D0005FC060912C0370E090E080E00E94EC0A19
:1010E0006B017C01D0912D03D7FF0AC0AC019B019D
:1010F00060E070E080E89FEB0E94D9096B017C0101
:10110000DF706D2F70E090E080E00E94EE0A2DEC21
:101110003CEC4CEC5DE30E94A30BA70196010E94FE
:10112000DA09609388027093890280938A0290930F
:101130008B020E94FE03882351F0809130038B3094
:1011400030F08D3048F18551823008F48BC060E07A
:1011500070E080EC9FE73CC0D0912C036D2F70E0D5
:1011600090E080E00E94EC0A6B017C0160912D030D
:101170006F7070E090E080E00E94EE0A2DEC3CEC95
:101180004CEC5DE30E94A30BA70196010E94DA09D3
:10119000D7FFC7CF9058C5CF60912B0370E090E088
:1011A00080E00E94EE0A2DEC3CEC4CEC5DE30E94EA
:1011B000A30B6B017C0160912A0370E090E080E05A
:1011C0000E94EE0A9B01AC01C701B6010E94DA0938
:1011D00060937F02709380028093810290938202D9
:1011E0000E94F203C0908402D0908502E0908602B3
:1011F000F09087026C197D098E099F096938734147
:101200008105910560F10E94F2036093840270935E
:101210008502809386029093870280E292E00E948A
:101220000505609188027091890280918A029091EF
:101230008B0242E00E9456058DE292E00E94050575
:1012400060917F0270918002809181029091820270
:1012500042E00E94560589E392E00E9405050E9443
:10126000AD0203CF60912A0370912B037627672785
:10127000762790E080E00E94EC0A2DEC3CEC4CECF0
:101280005DE30E94A30BA4CFC0908802D090890296
:10129000E0908A02F0908B0220E030E040E251E4DE
:1012A000C701B6010E94460A87FD0AC020E030E06F
:1012B00040EA50E4C701B6010E949E0B18166CF577
:1012C0000E94F203C0908402D0908502E0908602D2
:1012D000F09087026C197D098E099F09613D774066
:1012E00081059105D0F08CE392E00E94050589E329
:1012F00092E00E9405050E94F203609384027093BD
:1013000085028093860290938702609183026C2706
:101310006093830288E00E94DE02C0907F02D0903A
:101320008002E0908102F090820220E030E040E410
:1013300051E4C701B6010E94460A87FD0BC020E0B8
:1013400030E044EB52E4C701B6010E949E0B181630
:101350000CF085CF0E94F203C0908402D0908502E9
:10136000E0908602F09087026C197D098E099F0932
:10137000613D77408105910508F471CF8BE592E0DE
:101380000E94050589E392E00E9405050E94F20390
:101390006093840270938502809386029093870203
:1013A000609183026C276093830288E00E94DE02D2
:1013B00056CF5058BB27AA270E94F1090C94640B02
:1013C0000E94560B38F00E945D0B20F039F49F3FCD
:1013D00019F426F40C94530B0EF4E095E7FB0C94EF
:1013E0004D0BE92F0E94750B58F3BA17620773076C
:1013F0008407950720F079F4A6F50C94970B0EF46A
:10140000E0950B2EBA2FA02D0B01B90190010C0114
:10141000CA01A0011124FF27591B99F0593F50F42C
:10142000503E68F11A16F040A22F232F342F442784
:10143000585FF3CF469537952795A795F04053957C
:10144000C9F77EF41F16BA0B620B730B840BBAF04C
:101450009150A1F0FF0FBB1F661F771F881FC2F7B7
:101460000EC0BA0F621F731F841F48F487957795CB
:101470006795B795F7959E3F08F0B0CF9395880F85
:1014800008F09927EE0F9795879508950E94290BEC
:1014900008F481E008950E945F0A0C94640B0E9496
:1014A0005D0B58F00E94560B40F029F45F3F29F085
:1014B0000C944D0B51110C94980B0C94530B0E94EF
:1014C000750B68F39923B1F3552391F3951B550BD5
:1014D000BB27AA2762177307840738F09F5F5F4F07
:1014E000220F331F441FAA1FA9F335D00E2E3AF046
:1014F000E0E832D091505040E695001CCAF72BD05E
:10150000FE2F29D0660F771F881FBB1F26173707AE
:101510004807AB07B0E809F0BB0B802DBF01FF27E0
:1015200093585F4F3AF09E3F510578F00C944D0B65
:101530000C94980B5F3FE4F3983ED4F3869577952F
:101540006795B795F7959F5FC9F7880F911D969599
:10155000879597F90895E1E0660F771F881FBB1FF5
:10156000621773078407BA0720F0621B730B840BA2
:10157000BA0BEE1F88F7E09508950E947D0B88F066
:101580009F5798F0B92F9927B751B0F0E1F0660F47
:10159000771F881F991F1AF0BA95C9F714C0B13088
:1015A00091F00E94970BB1E008950C94970B672F70
:1015B000782F8827B85F39F0B93FCCF386957795B7
:1015C0006795B395D9F73EF49095809570956195A0
:1015D0007F4F8F4F9F4F0895E89409C097FB3EF4CB
:1015E00090958095709561957F4F8F4F9F4F992370
:1015F000A9F0F92F96E9BB279395F69587957795EE
:101600006795B795F111F8CFFAF4BB0F11F460FFAD
:101610001BC06F5F7F4F8F4F9F4F16C0882311F005
:1016200096E911C0772321F09EE8872F762F05C019
:10163000662371F096E8862F70E060E02AF09A95B4
:10164000660F771F881FDAF7880F9695879597F9A9
:101650000895990F0008550FAA0BE0E8FEEF161643
:101660001706E807F907C0F012161306E407F50796
:1016700098F0621B730B840B950B39F40A2661F00A
:10168000232B242B252B21F408950A2609F4A140AD
:10169000A6958FEF811D811D089597F99F6780E8BA
:1016A00070E060E008959FEF80EC089500240A94B4
:1016B0001616170618060906089500240A9412162D
:1016C0001306140605060895092E0394000C11F460
:1016D000882352F0BB0F40F4BF2B11F460FF04C00D
:1016E0006F5F7F4F8F4F9F4F089557FD9058440F66
:1016F000551F59F05F3F71F04795880F97FB991F71
:1017000061F09F3F79F0879508951216130614062D
:10171000551FF2CF4695F1DF08C0161617061806BA
:10172000991FF1CF86957105610508940895E89495
:10173000BB2766277727CB0197F908950E94290BCD
:1017400008F48FEF08950E94B60B0C94640B0E946E
:10175000560B38F00E945D0B20F0952311F00C948D
:101760004D0B0C94530B11240C94980B0E94750B89
:1017700070F3959FC1F3950F50E0551F629FF001E4
:10178000729FBB27F00DB11D639FAA27F00DB11DFD
:10179000AA1F649F6627B00DA11D661F829F222786
:1017A000B00DA11D621F739FB00DA11D621F839F0D
:1017B000A00D611D221F749F3327A00D611D231FE3
:1017C000849F600D211D822F762F6A2F11249F5731
:1017D00050409AF0F1F088234AF0EE0FFF1FBB1F34
:1017E000661F771F881F91505040A9F79E3F5105F3
:1017F00080F00C944D0B0C94980B5F3FE4F3983EF3
:10180000D4F3869577956795B795F795E7959F5F9C
:10181000C1F7FE2B880F911D9695879597F908952E
:101820000E94290B880B990B0895A1E21A2EAA1B7E
:10183000BB1BFD010DC0AA1FBB1FEE1FFF1FA21780
:10184000B307E407F50720F0A21BB30BE40BF50B7D
:10185000661F771F881F991F1A9469F76095709506
:10186000809590959B01AC01BD01CF010895EE0FCD
:10187000FF1F881F8BBF0790F691E02D1994F894F5
:02188000FFCF98
:101882000405000000004002AA01D7018D020802EF
:10189200E601FA016E616E00696E66006F7666009F
:1018A20054656D70657261747572613A00432C20E3
:1018B200556D69646164653A000D0A004C696D6991
:1018C20074652064652074656D70657261747572EB
:1018D2006120657863656469646F004C696D697441
:1018E2006520646520556D6964616465206578636F
:0618F200656469646F00EB
:00000001FF
