:020000040000FA
:100000000C9462000C948A000C948A000C948A0070
:100010000C948A000C948A000C948A000C948A0038
:100020000C948A000C948A000C948A000C948A0028
:100030000C948A000C948A000C948A000C948A0018
:100040000C9439050C948A000C9407050C94E10477
:100050000C948A000C948A000C948A000C948A00F8
:100060000C948A000C948A000000000024002700F1
:100070002A0000000000250028002B0000000008D6
:10008000000201000003040700000000000000005F
:1000900000000000230026002900040404040404D6
:1000A0000404020202020202030303030303010227
:1000B00004081020408001020408102001020408F6
:1000C0001020830511241FBECFEFD8E0DEBFCDBFC7
:1000D00011E0A0E0B1E0ECE2F4E102C005900D9285
:1000E000A437B107D9F722E0A4E7B1E001C01D921F
:1000F000AD32B207E1F710E0C2E6D0E004C02197CC
:10010000FE010E940E0AC136D107C9F70E94D00530
:100110000C94140A0C940000CF92DF92EF92FF929D
:10012000CF93DF93B0912102A0E08111AB2F80919A
:10013000220290E0880F991FAC0140575F4FC0909A
:100140002702D0902802E0902902F0902A0230E0A5
:1001500020E0FA01C591D491E881B90190E080E0F6
:10016000EB23EA130AC02F5F3F4F6C157D058E0508
:100170009F0578F36FEF7FEFCB01DF91CF91FF9079
:10018000EF90DF90CF900895AF92BF92CF92DF9221
:10019000EF92FF920F931F93CF93DF936C017B013C
:1001A0008B01040F151FEB015E01AE18BF08C017CD
:1001B000D10759F06991D601ED91FC910190F08140
:1001C000E02DC6010995892B79F7C501DF91CF9103
:1001D0001F910F91FF90EF90DF90CF90BF90AF9065
:1001E0000895FC01538D448D252F30E0842F90E03D
:1001F000821B930B541710F0CF9608950197089522
:10020000FC01918D828D981761F0A28DAE0FBF2FEA
:10021000B11D5D968C91928D9F5F9F73928F90E040
:1002200008958FEF9FEF0895FC01918D828D9817AF
:1002300031F0828DE80FF11D858D90E008958FEFEC
:100240009FEF0895FC01918D228D892F90E0805CB5
:100250009F4F821B91098F73992708958DE791E035
:100260000E94220121E0892B09F420E0822F0895C9
:1002700080E090E0892B29F00E942E0181110C94DE
:1002800000000895FC01A48DA80FB92FB11DA35A39
:10029000BF4F2C91848D90E001968F739927848FA6
:1002A000A689B7892C93A089B1898C9183708064C9
:1002B0008C93938D848D981306C00288F389E02D6A
:1002C00080818F7D80830895EF92FF920F931F931B
:1002D000CF93DF93EC0181E0888F9B8D8C8D9813F9
:1002E0001AC0E889F989808185FF15C09FB7F89405
:1002F000EE89FF896083E889F98980818370806451
:1003000080839FBF81E090E0DF91CF911F910F919B
:10031000FF90EF900895F62E0B8D10E00F5F1F4FAA
:100320000F731127E02E8C8D8E110CC00FB607FCB9
:10033000FACFE889F989808185FFF5CFCE010E9447
:100340004201F1CFEB8DEC0FFD2FF11DE35AFF4F72
:10035000F0829FB7F8940B8FEA89FB8980818062D5
:10036000CFCFCF93DF93EC01888D8823B9F0AA8992
:10037000BB89E889F9898C9185FD03C0808186FD60
:100380000DC00FB607FCF7CF8C9185FFF2CF8081AF
:1003900085FFEDCFCE010E944201E9CFDF91CF91E1
:1003A000089590E0FC01E458FF4F2491FC01E255D0
:1003B000FF4F3491FC01E656FF4FE491EE23C9F064
:1003C000222339F0233001F1A8F4213019F1223031
:1003D00029F1F0E0EE0FFF1FEE58FF4FA591B49109
:1003E0008FB7F894EC91611126C030953E233C9371
:1003F0008FBF08952730A9F02830C9F0243049F77D
:10040000809180008F7D03C0809180008F778093E2
:100410008000DFCF84B58F7784BDDBCF84B58F7D3F
:10042000FBCF8091B0008F778093B000D2CF8091C6
:10043000B0008F7DF9CF3E2BDACFCF93DF9390E0E2
:10044000FC01E255FF4F249186569F4FFC01849199
:100450008823D1F090E0880F991FFC01E859FF4FE5
:10046000A591B491FC01EE58FF4FC591D491623033
:1004700071F49FB7F8943C91822F809583238C93DD
:10048000E8812E2B28839FBFDF91CF9108958FB7EE
:10049000F894EC912E2B2C938FBFF6CF3FB7F894A6
:1004A0008091750190917601A0917701B0917801CA
:1004B00026B5A89B05C02F3F19F00196A11DB11DBF
:1004C0003FBFBA2FA92F982F8827BC01CD01620FFB
:1004D000711D811D911D42E0660F771F881F991FB6
:1004E0004A95D1F708958F929F92AF92BF92CF9283
:1004F000DF92EF92FF924B015C010E944E026B0172
:100500007C010E944E026C197D098E099F09683E8C
:10051000734081059105A8F321E0821A9108A10892
:10052000B10888EEC80E83E0D81EE11CF11C8114CE
:100530009104A104B10429F7FF90EF90DF90CF90D0
:10054000BF90AF909F908F900895CF92DF92EF92DF
:10055000FF920F931F93CF93DF93CDB7DEB7C054B5
:10056000D1400FB6F894DEBF0FBECDBF2FB7F894C1
:100570008091790190917A01A0917B01B0917C01E9
:100580002FBF409123025091240260912502709167
:1005900026028C019D01041B150B260B370BB9019C
:1005A000A801403D57406105710590F480912B02F0
:1005B000C05CDE4F0FB6F894DEBF0FBECDBFDF913B
:1005C000CF911F910F91FF90EF90DF90CF90089502
:1005D0008093230290932402A0932502B0932602D5
:1005E00010921E0210921D0210921C0210921B0209
:1005F00010921A0262E080911F020E941D0261E0C7
:1006000070E080E090E00E94730261E080911F0240
:100610000E941D0260E080911F020E94D101809122
:1006200020028551823020F58BE291E10197F1F7AC
:1006300062E080911F020E941D0280912C0290E0D6
:100640008230910538F0880F991F880F991F059700
:100650000197F1F7F89480E00E948C006F3F7F4F84
:100660008F4F9F4F61F410922B02789480E0A0CFBF
:1006700064E170E080E090E00E947302D9CF81E0F5
:100680000E948C006F3F7F4F8F4F9F4F61F38E0111
:100690000F5F1F4F6E018FEBC81A8EEFD80A7801DB
:1006A00080E00E948C00F7016083718382839383D2
:1006B00081E00E948C00F7016483758386839783B1
:1006C000F8E0EF0EF11CEC14FD0451F7789430E0E3
:1006D00020E0F801C080D180E280F3804481558120
:1006E00066817781FFEFCF16DF06EF06FF0631F058
:1006F0004F3F8FEF58076807780719F410922B02C5
:10070000B5CFF90183E0F595E7958A95E1F7E65EC7
:10071000FD4F8081880FC416D506E606F70610F156
:1007200080832F5F3F4F085F1F4F2832310589F6C6
:1007300040911E0220911A0280911B02280F33273C
:10074000331F80911C02280F311D80911D02820FE2
:10075000932F911D99274817190681F681E0809300
:100760002B0226CF8160DCCFFC0101900020E9F74D
:100770003197AF01481B590BBC018DE791E00C94F8
:10078000C4008F929F92AF92BF920F931F93CF930B
:10079000DF93CDB7DEB7A1970FB6F894DEBF0FBEDB
:1007A000CDBF19A2423008F44AE08E010F5D1F4F01
:1007B000842E912CB12CA12CA50194010E94EC094E
:1007C000E62FB901CA01EA30F4F4E05DD801EE93F6
:1007D0008D01232B242B252B79F790E080E01097B7
:1007E00019F0CD010E94B403A1960FB6F894DEBFB4
:1007F0000FBECDBFDF91CF911F910F91BF90AF90F2
:100800009F908F900895E95CE1CF4F925F926F9235
:100810007F928F929F92AF92BF92CF92DF92EF9290
:10082000FF920F931F93CF936B017C01742EAC0149
:100830009B010E94E709882399F082E191E0CF9122
:100840001F910F91FF90EF90DF90CF90BF90AF90EE
:100850009F908F907F906F905F904F900C94B40317
:1008600046015701E894B7F82FEF3FEF4FE75FE7F6
:10087000C501B4010E94E70981110DC02FEF3FEFC0
:100880004FE75FE7C501B4010E941D0818161CF46C
:1008900086E191E0D4CF2FEF3FEF4FE75FE4C70150
:1008A000B6010E94750918161CF48AE191E0C7CFC1
:1008B0002FEF3FEF4FE75FECC701B6010E941D0825
:1008C00087FDF3CF20E030E0A901C701B6010E9407
:1008D0001D0810E000E087FF0AC06DE28DE791E09F
:1008E0000E9464018C01F7FAF094F7F8F094C0E0EC
:1008F00060E070E080E09FE37C1641F020E030E0B3
:1009000040E251E40E942208CF5FF6CFA701960192
:100910000E94B1072B013C010E9494084B015C012D
:100920004AE00E94C1037C01E00EF11ECC23C1F11C
:10093000C501B4010E94C3089B01AC01C301B2010F
:100940000E94B0074B015C016EE28DE791E00E94CE
:100950006401E80EF91EC15018F120E030E040E2D9
:1009600051E4C501B4010E947A092B013C010E94A7
:1009700094084B01B12CA12C4AE0C501B4010E949E
:10098000C103E80EF91EC501B4010E94C3089B0112
:10099000AC01C301B2010E94B0074B015C01DBCF87
:1009A000C701CF911F910F91FF90EF90DF90CF90F3
:1009B000BF90AF909F908F907F906F905F904F907F
:1009C00008951F920F920FB60F9211242F933F9309
:1009D0004F935F936F937F938F939F93AF93BF9347
:1009E000EF93FF938DE791E00E944201FF91EF9119
:1009F000BF91AF919F918F917F916F915F914F9137
:100A00003F912F910F900FBE0F901F9018951F923E
:100A10000F920FB60F9211242F938F939F93EF9302
:100A2000FF93E0918D01F0918E018081E09193011F
:100A3000F091940182FD1BC09081809196018F5F9F
:100A40008F7320919701821741F0E0919601F0E0B9
:100A5000E358FE4F958F80939601FF91EF919F9100
:100A60008F912F910F900FBE0F901F90189580813E
:100A7000F4CF1F920F920FB60F9211242F933F9332
:100A80008F939F93AF93BF938091790190917A0157
:100A9000A0917B01B0917C013091740123E0230F80
:100AA0002D3758F50196A11DB11D20937401809337
:100AB000790190937A01A0937B01B0937C0180919E
:100AC000750190917601A0917701B091780101961E
:100AD000A11DB11D8093750190937601A0937701BC
:100AE000B0937801BF91AF919F918F913F912F91DA
:100AF0000F900FBE0F901F90189526E8230F0296B7
:100B0000A11DB11DD2CFEDE7F1E01382128288EE74
:100B100093E0A0E0B0E084839583A683B78384E06C
:100B200091E09183808385EC90E09587848784ECC5
:100B300090E09787868780EC90E0918B808B81ECAA
:100B400090E0938B828B82EC90E0958B848B86EC8B
:100B500090E0978B868B118E128E138E148EAAE1E5
:100B6000B2E087E015968C93159786E116968C93E4
:100B70001697E5EBF0E0E4911796EC931797E1EA0E
:100B8000F0E0E4911896EC93189740E85EE360E09B
:100B900070E01D964D935D936D937C9350970895EF
:100BA000789484B5826084BD84B5816084BD85B548
:100BB000826085BD85B5816085BD80916E00816054
:100BC00080936E00109281008091810082608093FA
:100BD00081008091810081608093810080918000FC
:100BE0008160809380008091B10084608093B10027
:100BF0008091B00081608093B00080917A00846021
:100C000080937A0080917A00826080937A0080914C
:100C10007A00816080937A0080917A008068809366
:100C20007A001092C10061E088E00E941D02E0910C
:100C30008D01F0918E0182E08083E0918901F09135
:100C40008A011082E0918B01F0918C018FEC8083FE
:100C500010929501E0919101F091920186E08083DC
:100C6000E0918F01F0919001808180618083E0911B
:100C70008F01F0919001808188608083E0918F01E5
:100C8000F0919001808180688083E0918F01F091E4
:100C9000900180818F7D808362E080911F020E949D
:100CA0001D022FB7F8948091790190917A01A0915B
:100CB0007B01B0917C012FBF805D9740A109B109F4
:100CC0008093230290932402A0932502B0932602DE
:100CD00087E380932C02C0E0D0E060ED77E080E015
:100CE00090E00E9473020E94A502882341F0809147
:100CF00020028C3009F462C048F48B3001F1C12C21
:100D0000D12C90ECE92E9FE7F92E43C0855182301B
:100D1000B0F710911C02612F70E0762F66276627CE
:100D20007F7780911D02682B90E080E00E94C308CD
:100D30002DEC3CEC4CEC5DE30E947A095BC06091C9
:100D40001C0270E090E080E00E94C3086B017C010F
:100D500010911D0217FF0AC0AC019B0160E070E01A
:100D600080E89FEB0E94B0076B017C011F70612F30
:100D700070E090E080E00E94C5082DEC3CEC4CEC6B
:100D80005DE30E947A09A70196010E94B1076B01F9
:100D90007C010E94A502882351F0809120028B30B3
:100DA00030F08D3080F18551823008F4C7C0812C3D
:100DB000912C80ECA82E8FE7B82E43C010911C0216
:100DC000612F70E090E080E00E94C3086B017C011D
:100DD00060911D026F7070E090E080E00E94C50895
:100DE0002DEC3CEC4CEC5DE30E947A09A7019601E6
:100DF0000E94B1076B017C0117FFCBCFF7FAF0948B
:100E0000F7F8F094C6CF60911B0270E090E080E0AC
:100E10000E94C5082DEC3CEC4CEC5DE30E947A0985
:100E20004B015C0160911A0270E090E080E00E944A
:100E3000C5089B01AC01C501B4010E94B1074B017B
:100E40005C0120E030E040E251E4C701B6010E94BD
:100E50001D0801E087FD0BC020E030E040E751E4D1
:100E6000C701B6010E94750918160CF000E020E0D9
:100E700030E040E451E4C501B4010E941D0811E0D6
:100E800087FD0BC020E030E044EB52E4C501B40123
:100E90000E94750918160CF010E08EE191E00E9496
:100EA000B40342E0C701B6010E9405048BE291E061
:100EB0000E94B40342E0C501B4010E94050487E327
:100EC00091E00E94B4030023B1F08AE391E00E9414
:100ED000B40387E391E00E94B40361E088E00E94DC
:100EE000D10164E170E080E090E00E94730260E074
:100EF00088E00E94D1011123B1F089E591E00E94C0
:100F0000B40387E391E00E94B40361E088E00E94AB
:100F1000D10164E170E080E090E00E94730260E043
:100F200088E00E94D101209709F4D7CE0E942E01BB
:100F3000882309F4D2CE0E940000CFCE60911A021D
:100F400070911B0276276727762790E080E00E9449
:100F5000C3082DEC3CEC4CEC5DE30E947A096FCFAA
:100F60005058BB27AA270E94C8070C943B090E942F
:100F70002D0938F00E94340920F039F49F3F19F40C
:100F800026F40C942A090EF4E095E7FB0C9424094E
:100F9000E92F0E944C0958F3BA17620773078407B8
:100FA000950720F079F4A6F50C946E090EF4E095FF
:100FB0000B2EBA2FA02D0B01B90190010C01CA0113
:100FC000A0011124FF27591B99F0593F50F4503EBE
:100FD00068F11A16F040A22F232F342F4427585FB0
:100FE000F3CF469537952795A795F0405395C9F7C8
:100FF0007EF41F16BA0B620B730B840BBAF0915080
:10100000A1F0FF0FBB1F661F771F881FC2F70EC01E
:10101000BA0F621F731F841F48F4879577956795F1
:10102000B795F7959E3F08F0B0CF9395880F08F0DD
:101030009927EE0F9795879508950E94000908F467
:1010400081E008950E9436080C943B090E943409FF
:1010500058F00E942D0940F029F45F3F29F00C94CC
:10106000240951110C946F090C942A090E944C090F
:1010700068F39923B1F3552391F3951B550BBB27C7
:10108000AA2762177307840738F09F5F5F4F220F0C
:10109000331F441FAA1FA9F335D00E2E3AF0E0E803
:1010A00032D091505040E695001CCAF72BD0FE2F4D
:1010B00029D0660F771F881FBB1F261737074807E1
:1010C000AB07B0E809F0BB0B802DBF01FF27935899
:1010D0005F4F3AF09E3F510578F00C9424090C9430
:1010E0006F095F3FE4F3983ED4F386957795679553
:1010F000B795F7959F5FC9F7880F911D96958795CE
:1011000097F90895E1E0660F771F881FBB1F6217EC
:1011100073078407BA0720F0621B730B840BBA0BAA
:10112000EE1F88F7E09508950E94540988F09F57B4
:1011300098F0B92F9927B751B0F0E1F0660F771FFB
:10114000881F991F1AF0BA95C9F714C0B13091F0F1
:101150000E946E09B1E008950C946E09672F782FF4
:101160008827B85F39F0B93FCCF3869577956795B6
:10117000B395D9F73EF490958095709561957F4F22
:101180008F4F9F4F0895E89409C097FB3EF49095C8
:101190008095709561957F4F8F4F9F4F9923A9F050
:1011A000F92F96E9BB279395F695879577956795DF
:1011B000B795F111F8CFFAF4BB0F11F460FF1BC023
:1011C0006F5F7F4F8F4F9F4F16C0882311F096E9B6
:1011D00011C0772321F09EE8872F762F05C0662364
:1011E00071F096E8862F70E060E02AF09A95660F1D
:1011F000771F881FDAF7880F9695879597F90895D6
:10120000990F0008550FAA0BE0E8FEEF1616170617
:10121000E807F907C0F012161306E407F50798F07F
:10122000621B730B840B950B39F40A2661F0232B98
:10123000242B252B21F408950A2609F4A140A69514
:101240008FEF811D811D089597F99F6780E870E0F9
:1012500060E008959FEF80EC089500240A9416162C
:10126000170618060906089500240A941216130694
:10127000140605060895092E0394000C11F4882322
:1012800052F0BB0F40F4BF2B11F460FF04C06F5F3E
:101290007F4F8F4F9F4F089557FD9058440F551F14
:1012A00059F05F3F71F04795880F97FB991F61F0E8
:1012B0009F3F79F087950895121613061406551F5F
:1012C000F2CF4695F1DF08C0161617061806991FCB
:1012D000F1CF86957105610508940895E894BB27C0
:1012E00066277727CB0197F908950E94000908F433
:1012F0008FEF08950E948D090C943B090E942D09DF
:1013000038F00E94340920F0952311F00C94240940
:101310000C942A0911240C946F090E944C0970F353
:10132000959FC1F3950F50E0551F629FF001729F8A
:10133000BB27F00DB11D639FAA27F00DB11DAA1F99
:10134000649F6627B00DA11D661F829F2227B00DE6
:10135000A11D621F739FB00DA11D621F839FA00D71
:10136000611D221F749F3327A00D611D231F849FC1
:10137000600D211D822F762F6A2F11249F57504018
:101380009AF0F1F088234AF0EE0FFF1FBB1F661F93
:10139000771F881F91505040A9F79E3F510580F05C
:1013A0000C9424090C946F095F3FE4F3983ED4F346
:1013B000869577956795B795F795E7959F5FC1F700
:1013C000FE2B880F911D9695879597F908950E9499
:1013D0000009880B990B0895A1E21A2EAA1BBB1BCA
:1013E000FD010DC0AA1FBB1FEE1FFF1FA217B307F1
:1013F000E407F50720F0A21BB30BE40BF50B661F07
:10140000771F881F991F1A9469F7609570958095CA
:1014100090959B01AC01BD01CF010895EE0FFF1F18
:101420000590F491E02D0994F894FFCF000000009E
:101430006401C400F100B1012201000114016E61D8
:101440006E00696E66006F76660054656D70657239
:1014500061747572613A00432C20556D6964616452
:10146000653A000D0A004C696D6974652064652059
:1014700074656D70657261747572612065786365FD
:101480006469646F004C696D6974652064652055FA
:101490006D696461646520657863656469646F0083
:107E0000112484B714BE81FFF0D085E080938100F7
:107E100082E08093C00088E18093C10086E0809377
:107E2000C20080E18093C4008EE0C9D0259A86E02C
:107E300020E33CEF91E0309385002093840096BBD3
:107E4000B09BFECF1D9AA8958150A9F7CC24DD24C4
:107E500088248394B5E0AB2EA1E19A2EF3E0BF2EE7
:107E6000A2D0813461F49FD0082FAFD0023811F036
:107E7000013811F484E001C083E08DD089C08234E0
:107E800011F484E103C0853419F485E0A6D080C0E4
:107E9000853579F488D0E82EFF2485D0082F10E0AE
:107EA000102F00270E291F29000F111F8ED06801E7
:107EB0006FC0863521F484E090D080E0DECF843638
:107EC00009F040C070D06FD0082F6DD080E0C81688
:107ED00080E7D80618F4F601B7BEE895C0E0D1E017
:107EE00062D089930C17E1F7F0E0CF16F0E7DF06D8
:107EF00018F0F601B7BEE89568D007B600FCFDCFD4
:107F0000A601A0E0B1E02C9130E011968C91119780
:107F100090E0982F8827822B932B1296FA010C0160
:107F200087BEE89511244E5F5F4FF1E0A038BF0790
:107F300051F7F601A7BEE89507B600FCFDCF97BE46
:107F4000E89526C08437B1F42ED02DD0F82E2BD052
:107F50003CD0F601EF2C8F010F5F1F4F84911BD097
:107F6000EA94F801C1F70894C11CD11CFA94CF0C13
:107F7000D11C0EC0853739F428D08EE10CD085E9AC
:107F80000AD08FE07ACF813511F488E018D01DD067
:107F900080E101D065CF982F8091C00085FFFCCF94
:107FA0009093C60008958091C00087FFFCCF809118
:107FB000C00084FD01C0A8958091C6000895E0E648
:107FC000F0E098E1908380830895EDDF803219F02E
:107FD00088E0F5DFFFCF84E1DECF1F93182FE3DFCA
:107FE0001150E9F7F2DF1F91089580E0E8DFEE27F6
:047FF000FF270994CA
:027FFE00040479
:00000001FF
