:100000000C943D010C9423080C94F8070C94CD0734
:100010000C94A2070C9477070C944C070C942107BE
:100020000C94F6060C946E010C946E010C946E0107
:100030000C946E010C946E010C946E010C946E0184
:100040000C946E010C946E010C946E010C946E0174
:100050000C944E080C946E010C946E010C94AC063A
:100060000C946E010C9476060C944C060C946E0164
:100070000C946E010C946E010C946E010C946E0144
:100080000C946E010C946E010C946E010C946E0134
:100090000C946E010C946E010C946E010C946E0124
:1000A0000C946E010C946E010C946E010C946E0114
:1000B0000C946E010C946E010C946E010C946E0104
:1000C0000C946E010C946E010C946E010C946E01F4
:1000D0000C946E010C946E010C946E010C946E01E4
:1000E0000C946E010C943F030C94E2010C943403C5
:1000F0000C9445030C940F050C944F030C945D0372
:100100000C946F030C9498020C943C030C94A8017B
:100110000C941E030C94AE010C9479080C944B02C1
:100120000C9419030C9461030C94B5010C945703BF
:100130000C9405020C9449030C9410050C9465036F
:100140000C9430030C9438030C9453030C946B03FD
:100150000C94F1010C9413020000210024002700EC
:100160002A002D00300033000101000004010701C6
:100170000A0100002200250028002B002E0031007B
:10018000340002010000050108010B0100000A0B08
:1001900002090C0D0E080703040100000000000016
:1001A000000000000000000000000000000000004F
:1001B000000000000000000012111000000000000C
:1001C000000000000000000000000000000000002F
:1001D0000000000020002300260029002C002F0032
:1001E00032000001000003010601090105050505B3
:1001F000070508080808020202020A0A080804049F
:1002000004040101010101010101030303030303CC
:100210000303040707070C0C0C0C0C0C0C0C02025B
:10022000020206060606060606060B0B0B0B0B0B58
:100230000B0B0102102020080810204010204080E5
:10024000020102010804020101020408102040809A
:100250008040201008040201800402018040201028
:100260000804020108040201010204081020408071
:100270000102040810204080790811241FBECFEF2E
:10028000D1E2DEBFCDBF00E00CBF12E0A0E0B2E0E3
:10029000EAEFFBE100E00BBF02C007900D92A63A27
:1002A000B107D9F723E0A6EAB2E001C01D92A13759
:1002B000B207E1F711E0CDE3D1E000E006C02197FD
:1002C0000109802FFE010E94F30DCC33D10780E09D
:1002D0000807A9F70E94C6080C94FB0D0C940000B7
:1002E000CF92DF92EF92FF92CF93DF93B0916503AD
:1002F000A0E08111AB2F8091660390E0880F991FD9
:10030000AC014E525E4FC0906B03D0906C03E090F6
:100310006D03F0906E0330E020E0FA01C591D491B6
:10032000E881B90190E080E0EB23EA130AC02F5F77
:100330003F4F6C157D058E059F0578F36FEF7FEFBE
:10034000CB01DF91CF91FF90EF90DF90CF90089598
:100350008091BF028F5F8093BF0208958091C00299
:1003600091E089278093C0020895AF92BF92CF9207
:10037000DF92EF92FF920F931F93CF93DF936C0165
:100380007B018B01040F151FEB015E01AE18BF0846
:10039000C017D10759F06991D601ED91FC910190F8
:1003A000F081E02DC6011995892B79F7C501DF9100
:1003B000CF911F910F91FF90EF90DF90CF90BF9062
:1003C000AF900895FC01538D448D252F30E0842F8C
:1003D00090E0821B930B541710F0CF96089501976D
:1003E0000895FC01918D828D981761F0A28DAE0F5A
:1003F000BF2FB11D5D968C91928D9F5F9F73928FE1
:1004000090E008958FEF9FEF0895FC01918D828D0C
:10041000981731F0828DE80FF11D858D90E00895D9
:100420008FEF9FEF0895FC01918D228D892F90E031
:10043000805C9F4F821B91098F739927089581ECEF
:1004400092E00E94130221E0892B09F420E0822F20
:100450000895FC01A48DA80FB92FB11DA35ABF4F59
:100460002C91848D90E001968F739927848FA689B3
:10047000B7892C93A089B1898C91837080648C9307
:10048000938D848D981306C00288F389E02D8081B6
:100490008F7D80830895EF92FF920F931F93CF93E8
:1004A000DF93EC0181E0888F9B8D8C8D98131AC0AF
:1004B000E889F989808185FF15C09FB7F894EE8996
:1004C000FF896083E889F9898081837080648083F3
:1004D0009FBF81E090E0DF91CF911F910F91FF903E
:1004E000EF900895F62E0B8D10E00F5F1F4F0F73E6
:1004F0001127E02E8C8D8E110CC00FB607FCFACFA1
:10050000E889F989808185FFF5CFCE010E94290213
:10051000F1CFEB8DEC0FFD2FF11DE35AFF4FF08271
:100520009FB7F8940B8FEA89FB8980818062CFCFD7
:10053000CF93DF93EC01888D8823B9F0AA89BB891A
:10054000E889F9898C9185FD03C0808186FD0DC005
:100550000FB607FCF7CF8C9185FFF2CF808185FF26
:10056000EDCFCE010E942902E9CFDF91CF9108950E
:1005700080E090E0892B29F00E941F0281110E94E7
:10058000000080E090E0892B49F080E090E0892B2A
:1005900029F00E94000081110E94000080E090E09C
:1005A000892B49F080E090E0892B29F00E9400001F
:1005B00081110E94000080E090E0892B49F080E0EA
:1005C00090E0892B29F00E94000081110C9400001A
:1005D0000895282F30E0F901E457FE4F9491F90176
:1005E000EE5CFD4F449124513E4FF90124912223AA
:1005F00009F435C0992311F191509231F8F4E92FA3
:10060000F0E08827E95FFC4F8F4F0C94F30D38031F
:100610003C031903300334031E033F03450349031E
:100620004F03530357035D0361031E0365036B030D
:100630006F03809180008F7780938000E22FF0E03D
:10064000EE0FFF1FEE58FE4FA591B4918FB7F894AF
:10065000EC91611148C040954E234C938FBF089593
:10066000809180008F7DE8CF80918000877FE4CFEC
:1006700084B58F7784BDE2CF84B58F7DFBCF809129
:10068000B0008F778093B000D9CF8091B0008F7D7C
:10069000F9CF809190008F7780939000CFCF809199
:1006A00090008F7DF9CF80919000877FF5CF80916A
:1006B000A0008F778093A000C1CF8091A0008F7D94
:1006C000F9CF8091A000877FF5CF809120018F77AF
:1006D00080932001B3CF809120018F7DF9CF80914D
:1006E0002001877FF5CF4E2BB8CFCF93DF9390E0DB
:1006F000FC01EE5CFD4F249184519E4FFC018491DE
:100700008823D1F090E0880F991FFC01E85AFE4F32
:10071000A591B491FC01EE58FE4FC591D491623081
:1007200071F49FB7F8943C91822F809583238C932A
:10073000E8812E2B28839FBFDF91CF9108958FB73B
:10074000F894EC912E2B2C938FBFF6CF3FB7F894F3
:100750008091AB029091AC02A091AD02B091AE023B
:1007600026B5A89B05C02F3F19F00196A11DB11D0C
:100770003FBFBA2FA92F982F8827BC01CD01620F48
:10078000711D811D911D42E0660F771F881F991F03
:100790004A95D1F708958F929F92AF92BF92CF92D0
:1007A000DF92EF92FF924B015C010E94A6036B0166
:1007B0007C010E94A6036C197D098E099F09683E81
:1007C000734081059105A8F321E0821A9108A108E0
:1007D000B10888EEC80E83E0D81EE11CF11C81141C
:1007E0009104A104B10429F7FF90EF90DF90CF901E
:1007F000BF90AF909F908F9008952FB7F89460911D
:10080000A7027091A8028091A9029091AA022FBF1D
:100810000895CF92DF92EF92FF920F931F93CF93A1
:10082000DF93CDB7DEB7C054D1400FB6F894DEBF2A
:100830000FBECDBF0E94FD030091670310916803B6
:100840002091690330916A036B017C01C01AD10ABF
:10085000E20AF30A97018601003D174021053105A0
:1008600090F480916F03C05CDE4F0FB6F894DEBF4A
:100870000FBECDBFDF91CF911F910F91FF90EF90F1
:10088000DF90CF900895609367037093680380931F
:10089000690390936A0310926203109261031092AD
:1008A000600310925F0310925E0362E08091630325
:1008B0000E94750361E070E080E090E00E94CB034D
:1008C00061E0809163030E94750360E0809163039F
:1008D0000E94E902809164038551823020F58BE209
:1008E00091E10197F1F762E0809163030E94750343
:1008F0008091700390E08230910538F0880F991F45
:10090000880F991F05970197F1F7F89480E00E94EE
:1009100070016F3F7F4F8F4F9F4F61F410926F03B5
:10092000789480E0A0CF64E170E080E090E00E94E5
:10093000CB03D9CF81E00E9470016F3F7F4F8F4F73
:100940009F4F61F38E010F5F1F4F6E012FEBC21A95
:100950002EEFD20A780180E00E947001F7016083D7
:1009600071838283938381E00E947001F701648325
:10097000758386839783F8E0EF0EF11CEC14FD0479
:1009800051F7789430E020E0F801C080D180E28017
:10099000F3804481558166817781FFEFCF16DF06B2
:1009A000EF06FF0631F04F3F8FEF580768077807D3
:1009B00019F410926F03B5CFF90183E0F595E7952F
:1009C0008A95E1F7E25AFC4F8081880FC416D5065C
:1009D000E606F70610F180832F5F3F4F085F1F4F39
:1009E0002832310589F64091620320915E0380919F
:1009F0005F03280F3327331F80916003280F311DB9
:100A000080916103820F932F911D99274817190632
:100A100081F681E080936F0326CF8160DCCF08955B
:100A20000895FC0101900020E9F73197AF01481BC0
:100A3000590BBC0181EC92E00C94B5018F929F920E
:100A4000AF92BF920F931F93CF93DF93CDB7DEB7D3
:100A5000A1970FB6F894DEBF0FBECDBF19A24230EA
:100A600008F44AE08E010F5D1F4F842E912CB12CAB
:100A7000A12CA50194010E94D10DE62FB901CA0154
:100A8000EA30F4F4E05DD801EE938D01232B242BA2
:100A9000252B79F790E080E0109719F0CD010E94A6
:100AA0001105A1960FB6F894DEBF0FBECDBFDF9142
:100AB000CF911F910F91BF90AF909F908F9008950D
:100AC000E95CE1CFCF93DF930E941105EC0184E252
:100AD00092E00E9411058C0F9D1FDF91CF91089528
:100AE0004F925F926F927F928F929F92AF92BF923E
:100AF000CF92DF92EF92FF920F931F93CF936B01F0
:100B00007C01742EAC019B010E94CC0D882399F0CE
:100B100087E292E0CF911F910F91FF90EF90DF90CD
:100B2000CF90BF90AF909F908F907F906F905F908D
:100B30004F900C94110546015701E894B7F82FEF38
:100B40003FEF4FE75FE7C501B4010E94CC0D811173
:100B50000DC02FEF3FEF4FE75FE7C501B4010E94E3
:100B6000020C18161CF48BE292E0D4CF2FEF3FEF6B
:100B70004FE75FE4C701B6010E945A0D18161CF436
:100B80008FE292E0C7CF2FEF3FEF4FE75FECC70157
:100B9000B6010E94020C87FDF3CF20E030E0A901EE
:100BA000C701B6010E94020C10E000E087FF0AC0F6
:100BB0006DE281EC92E00E944B028C01F7FAF09416
:100BC000F7F8F094C0E060E070E080E09FE37C160E
:100BD00041F020E030E040E251E40E94070CCF5F9A
:100BE000F6CFA70196010E94960B2B013C010E94B3
:100BF000790C4B015C014AE00E941E057C01E00E6D
:100C0000F11ECC23C1F1C501B4010E94A80C9B01C7
:100C1000AC01C301B2010E94950B4B015C016EE275
:100C200081EC92E00E944B02E80EF91EC15018F1CF
:100C300020E030E040E251E4C501B4010E945F0DC4
:100C40002B013C010E94790C4B01B12CA12C4AE0F4
:100C5000C501B4010E941E05E80EF91EC501B401CC
:100C60000E94A80C9B01AC01C301B2010E94950B2C
:100C70004B015C01DBCFC701CF911F910F91FF901A
:100C8000EF90DF90CF90BF90AF909F908F907F902C
:100C90006F905F904F9008951F920F920FB60F9232
:100CA00011240BB60F922F933F934F935F936F9343
:100CB0007F938F939F93AF93BF93EF93FF9381ECB9
:100CC00092E00E942902FF91EF91BF91AF919F9115
:100CD0008F917F916F915F914F913F912F910F90E5
:100CE0000BBE0F900FBE0F901F9018951F920F9282
:100CF0000FB60F9211240BB60F922F938F939F93E1
:100D0000EF93FF93E091D102F091D2028081E091C4
:100D1000D702F091D80282FD1DC090818091DA0245
:100D20008F5F8F732091DB02821741F0E091DA022E
:100D3000F0E0EF53FD4F958F8093DA02FF91EF9132
:100D40009F918F912F910F900BBE0F900FBE0F9020
:100D50001F9018958081F2CF1F920F920FB60F92BD
:100D600011242F933F938F939F93AF93BF938091C1
:100D7000A7029091A802A091A902B091AA02309175
:100D8000A60223E0230F2D3758F50196A11DB11DB2
:100D90002093A6028093A7029093A802A093A90291
:100DA000B093AA028091AB029091AC02A091AD02E7
:100DB000B091AE020196A11DB11D8093AB0290933C
:100DC000AC02A093AD02B093AE02BF91AF919F91E0
:100DD0008F913F912F910F900FBE0F901F901895FC
:100DE00026E8230F0296A11DB11DD2CF1F920F92AC
:100DF0000FB60F9211240BB60F922F933F934F9380
:100E00005F936F937F938F939F93AF93BF93EF9372
:100E1000FF93E0910E02F0910F021995FF91EF916F
:100E2000BF91AF919F918F917F916F915F914F9102
:100E30003F912F910F900BBE0F900FBE0F901F9000
:100E400018951F920F920FB60F9211240BB60F92A6
:100E50002F933F934F935F936F937F938F939F93C2
:100E6000AF93BF93EF93FF93E0910C02F0910D02CB
:100E70001995FF91EF91BF91AF919F918F917F91C4
:100E80006F915F914F913F912F910F900BBE0F90FB
:100E90000FBE0F901F9018951F920F920FB60F92D2
:100EA00011240BB60F922F933F934F935F936F9341
:100EB0007F938F939F93AF93BF93EF93FF93E091B3
:100EC0000202F09103021995FF91EF91BF91AF914A
:100ED0009F918F917F916F915F914F913F912F9152
:100EE0000F900BBE0F900FBE0F901F9018951F9282
:100EF0000F920FB60F9211240BB60F922F933F93C0
:100F00004F935F936F937F938F939F93AF93BF9311
:100F1000EF93FF93E0910002F09101021995FF9188
:100F2000EF91BF91AF919F918F917F916F915F9161
:100F30004F913F912F910F900BBE0F900FBE0F90CE
:100F40001F9018951F920F920FB60F9211240BB697
:100F50000F922F933F934F935F936F937F938F9352
:100F60009F93AF93BF93EF93FF93E0910A02F091A9
:100F70000B021995FF91EF91BF91AF919F918F91C6
:100F80007F916F915F914F913F912F910F900BBE89
:100F90000F900FBE0F901F9018951F920F920FB6D3
:100FA0000F9211240BB60F922F933F934F935F93A1
:100FB0006F937F938F939F93AF93BF93EF93FF9321
:100FC000E0910802F09109021995FF91EF91BF910C
:100FD000AF919F918F917F916F915F914F913F91D1
:100FE0002F910F900BBE0F900FBE0F901F90189572
:100FF0001F920F920FB60F9211240BB60F922F93E0
:101000003F934F935F936F937F938F939F93AF9390
:10101000BF93EF93FF93E0910602F09107021995B9
:10102000FF91EF91BF91AF919F918F917F916F91C0
:101030005F914F913F912F910F900BBE0F900FBE7C
:101040000F901F9018951F920F920FB60F921124B8
:101050000BB60F922F933F934F935F936F937F93B2
:101060008F939F93AF93BF93EF93FF93E09104020D
:10107000F09105021995FF91EF91BF91AF919F916A
:101080008F917F916F915F914F913F912F910F9031
:101090000BBE0F900FBE0F901F9018951F920F92CE
:1010A0000FB60F9211240BB60F922F933F934F93CD
:1010B0005F936F937F938F939F93AF93BF93EF93C0
:1010C000FF93E0911002F09111021995FF91EF91B9
:1010D000BF91AF919F918F917F916F915F914F9150
:1010E0003F912F910F900BBE0F900FBE0F901F904E
:1010F0001895E1ECF2E01382128288EE93E0A0E012
:10110000B0E084839583A683B78386E192E09183E0
:10111000808385EC90E09587848784EC90E09787C6
:10112000868780EC90E0918B808B81EC90E0938BB4
:10113000828B82EC90E0958B848B86EC90E0978B91
:10114000868B118E128E138E148EAEE5B3E087E07F
:1011500015968C93159786E116968C931697E9E36E
:10116000F2E0E4911796EC931797E3EFF1E0E49146
:101170001896EC93189740E85EE360E070E01D96E7
:101180004D935D936D937C9350970895789484B5B7
:10119000826084BD84B5816084BD85B5826085BD73
:1011A00085B5816085BD80916E00816080936E0001
:1011B00010928100809181008260809381008091F3
:1011C00081008160809381008091800081608093A4
:1011D00080008091B10084608093B1008091B00064
:1011E00081608093B0008091910082608093910033
:1011F0008091910081608093910080919000816046
:10120000809390008091A10082608093A1008091E2
:10121000A10081608093A1008091A00081608093F3
:10122000A0008091210182608093210180912101A1
:101230008160809321018091200181608093200151
:1012400080917A00846080937A0080917A00826035
:1012500080937A0080917A00816080937A008091F7
:101260007A00806880937A001092C10061E088E083
:101270000E94750362E082E00E947503E091D10252
:10128000F091D20282E08083E091CD02F091CE0213
:101290001082E091CF02F091D0028FEC8083109207
:1012A000D902E091D502F091D60286E08083E091E8
:1012B000D302F091D402808180618083E091D302D7
:1012C000F091D402808188608083E091D302F09114
:1012D000D402808180688083E091D302F091D402AF
:1012E00080818F7D808362E0809163030E9475031B
:1012F0000E94FD03605D7740810991096093670357
:10130000709368038093690390936A0387E38093E3
:10131000700380E1809381001092800082E19AE75F
:10132000909387008093860084E1809381008EEA09
:1013300091E0909301028093000280916A008C7F7B
:10134000816080936A00EC9A0E94FD036093AF0273
:101350007093B0028093B1029093B2020E94FD0399
:101360006093B3027093B4028093B5029093B60277
:10137000C8EAD1E001E08091C002882309F400C1ED
:10138000D0931102C093100200936F008091BF02AE
:10139000882331F0813009F408C11092BF02F0C0F7
:1013A0000E940904882341F0809164038C3009F481
:1013B00064C038F48B30F1F060E070E080EC9FE7BF
:1013C00041C085518230C0F710916003612F70E0F9
:1013D000762F662766277F7780916103682B90E0E0
:1013E00080E00E94A80C2DEC3CEC4CEC5DE30E94EC
:1013F0005F0D5FC06091600370E090E080E00E944C
:10140000A80C6B017C011091610317FF0AC0AC01AD
:101410009B0160E070E080E89FEB0E94950B6B0100
:101420007C011F70612F70E090E080E00E94AA0CA8
:101430002DEC3CEC4CEC5DE30E945F0DA7019601A6
:101440000E94960B6093BB027093BC028093BD0216
:101450009093BE020E940904882351F08091640396
:101460008B3030F08D3048F18551823008F48BC0DC
:1014700060E070E080EC9FE73CC010916003612F5A
:1014800070E090E080E00E94A80C6B017C0160910C
:1014900061036F7070E090E080E00E94AA0C2DEC78
:1014A0003CEC4CEC5DE30E945F0DA70196010E94AD
:1014B000960B17FFC7CF9058C5CF60915F0370E0C0
:1014C00090E080E00E94AA0C2DEC3CEC4CEC5DE33B
:1014D0000E945F0D6B017C0160915E0370E090E003
:1014E00080E00E94AA0C9B01AC01C701B6010E94DA
:1014F000960B6093B7027093B8028093B9029093F1
:10150000BA020E94FD03C090B302D090B402E090F2
:10151000B502F090B6026C197D098E099F09613DF4
:1015200077408105910560F10E94FD036093B3024D
:101530007093B4028093B5029093B60283E392E075
:101540000E9411056091BB027091BC028091BD02A6
:101550009091BE0242E00E94700580E492E00E94F9
:1015600011056091B7027091B8028091B902909113
:10157000BA0242E00E94700584E292E00E941105E6
:101580000E94B802F8CE60915E0370915F037627E7
:101590006727762790E080E00E94A80C2DEC3CECB9
:1015A0004CEC5DE30E945F0DA4CF0E94FD03C09050
:1015B000AF02D090B002E090B102F090B2026C198C
:1015C0007D098E099F09693B7B4081059105D0F11A
:1015D0008090BB029090BC02A090BD02B090BE0271
:1015E00020E030E040E251E4C501B4010E94020C69
:1015F00087FD0BC020E030E04CE852E4C501B401A7
:101600000E945A0D18160CF08CC00E94FD036C1934
:101610007D098E099F09613D77408105910590F014
:101620008CE492E00E9462050E94FD036093AF0289
:101630007093B0028093B1029093B20261E088E0AF
:101640000E94E9020E94FD03C090AF02D090B00258
:10165000E090B102F090B2026C197D098E099F09E9
:10166000693B7B4081059105D0F18090B702909055
:10167000B802A090B902B090BA0220E030E040EA8F
:1016800051E4C501B4010E94020C87FD0BC020E0AB
:1016900030E044EB52E4C501B4010E945A0D181623
:1016A0000CF041C00E94FD036C197D098E099F0951
:1016B000613D77408105910590F08BE692E00E94B4
:1016C00062050E94FD036093AF027093B0028093A5
:1016D000B1029093B20261E088E00E94E902609159
:1016E000BB027091BC028091BD029091BE029B0131
:1016F000AC010E94CC0D81110FC06091B7027091B6
:10170000B8028091B9029091BA029B01AC010E948B
:10171000CC0D882309F434CF86E892E00E9462055C
:101720002FCF60E08CCF60E0D7CF5058BB27AA27DF
:101730000E94AD0B0C94200D0E94120D38F00E94F7
:10174000190D20F039F49F3F19F426F40C940F0D75
:101750000EF4E095E7FB0C94090DE92F0E94310D82
:1017600058F3BA17620773078407950720F079F4D6
:10177000A6F50C94530D0EF4E0950B2EBA2FA02D68
:101780000B01B90190010C01CA01A0011124FF272E
:10179000591B99F0593F50F4503E68F11A16F04029
:1017A000A22F232F342F4427585FF3CF4695379528
:1017B0002795A795F0405395C9F77EF41F16BA0BED
:1017C000620B730B840BBAF09150A1F0FF0FBB1F9B
:1017D000661F771F881FC2F70EC0BA0F621F731FE4
:1017E000841F48F4879577956795B795F7959E3F41
:1017F00008F0B0CF9395880F08F09927EE0F9795D2
:10180000879508950E94E50C08F481E008950E94F0
:101810001B0C0C94200D0E94190D58F00E94120D03
:1018200040F029F45F3F29F00C94090D51110C94FC
:10183000540D0C940F0D0E94310D68F39923B1F3F0
:10184000552391F3951B550BBB27AA2762177307E6
:10185000840738F09F5F5F4F220F331F441FAA1F7A
:10186000A9F335D00E2E3AF0E0E832D09150504036
:10187000E695001CCAF72BD0FE2F29D0660F771FE4
:10188000881FBB1F261737074807AB07B0E809F0CA
:10189000BB0B802DBF01FF2793585F4F3AF09E3F4F
:1018A000510578F00C94090D0C94540D5F3FE4F34E
:1018B000983ED4F3869577956795B795F7959F5F92
:1018C000C9F7880F911D9695879597F90895E1E0DE
:1018D000660F771F881FBB1F621773078407BA073D
:1018E00020F0621B730B840BBA0BEE1F88F7E09598
:1018F00008950E94390D88F09F5798F0B92F9927C5
:10190000B751B0F0E1F0660F771F881F991F1AF0EA
:10191000BA95C9F714C0B13091F00E94530DB1E0EF
:1019200008950C94530D672F782F8827B85F39F0EE
:10193000B93FCCF3869577956795B395D9F73EF483
:1019400090958095709561957F4F8F4F9F4F08952B
:10195000E89409C097FB3EF4909580957095619549
:101960007F4F8F4F9F4F9923A9F0F92F96E9BB27FF
:101970009395F695879577956795B795F111F8CF7B
:10198000FAF4BB0F11F460FF1BC06F5F7F4F8F4FE6
:101990009F4F16C0882311F096E911C0772321F0DC
:1019A0009EE8872F762F05C0662371F096E8862F74
:1019B00070E060E02AF09A95660F771F881FDAF7CB
:1019C000880F9695879597F90895990F0008550FF8
:1019D000AA0BE0E8FEEF16161706E807F907C0F0B5
:1019E00012161306E407F50798F0621B730B840BBD
:1019F000950B39F40A2661F0232B242B252B21F497
:101A000008950A2609F4A140A6958FEF811D811D36
:101A1000089597F99F6780E870E060E008959FEF70
:101A200080EC089500240A94161617061806090675
:101A3000089500240A941216130614060506089544
:101A4000092E0394000C11F4882352F0BB0F40F4CC
:101A5000BF2B11F460FF04C06F5F7F4F8F4F9F4F0C
:101A6000089557FD9058440F551F59F05F3F71F08E
:101A70004795880F97FB991F61F09F3F79F08795F5
:101A80000895121613061406551FF2CF4695F1DF7E
:101A900008C0161617061806991FF1CF869571050E
:101AA000610508940895E894BB2766277727CB0142
:101AB00097F908950E94E50C08F48FEF08950E94AD
:101AC000720D0C94200D0E94120D38F00E94190D19
:101AD00020F0952311F00C94090D0C940F0D112496
:101AE0000C94540D0E94310D70F3959FC1F3950F26
:101AF00050E0551F629FF001729FBB27F00DB11D92
:101B0000639FAA27F00DB11DAA1F649F6627B00D21
:101B1000A11D661F829F2227B00DA11D621F739F0A
:101B2000B00DA11D621F839FA00D611D221F749F18
:101B30003327A00D611D231F849F600D211D822F5F
:101B4000762F6A2F11249F5750409AF0F1F0882386
:101B50004AF0EE0FFF1FBB1F661F771F881F9150B3
:101B60005040A9F79E3F510580F00C94090D0C944C
:101B7000540D5F3FE4F3983ED4F3869577956795CF
:101B8000B795F795E7959F5FC1F7FE2B880F911DDD
:101B90009695879597F908950E94E50C880B990B07
:101BA0000895A1E21A2EAA1BBB1BFD010DC0AA1F9E
:101BB000BB1FEE1FFF1FA217B307E407F50720F0B6
:101BC000A21BB30BE40BF50B661F771F881F991F31
:101BD0001A9469F760957095809590959B01AC017A
:101BE000BD01CF010895EE0FFF1F881F8BBF079027
:0A1BF000F691E02D1994F894FFCF50
:101BFA000F050F050F050F050F050F050F050F053B
:101C0A001005000000004B02B501E2019802130220
:101C1A00F10105020D0A006E616E00696E66006FC1
:101C2A0076660054656D70657261747572613A000A
:101C3A00432C20556D69646164653A004C696D698D
:101C4A0074652064652074656D706572617475725F
:101C5A006120657863656469646F004C696D6974B5
:101C6A006520646520556D696461646520657863E3
:101C7A00656469646F0046616C6861206E61206CFE
:101C8A0065697475726120646F2073656E736F7213
:061C9A0020444854210023
:00000001FF
