:100000000C9443010C947E090C9453090C94280918
:100010000C94FD080C94D2080C94A7080C947C084E
:100020000C9451080C9474010C9474010C94740198
:100030000C9474010C9474010C9474010C9474016C
:100040000C9474010C9474010C9474010C9474015C
:100050000C94A9090C9474010C9474010C94070875
:100060000C9474010C94D1070C94A7070C947401A0
:100070000C9474010C9474010C9474010C9474012C
:100080000C9474010C9474010C9474010C9474011C
:100090000C9474010C9474010C9474010C9474010C
:1000A0000C9474010C9474010C9474010C947401FC
:1000B0000C9474010C9474010C9474010C947401EC
:1000C0000C9474010C9474010C9474010C947401DC
:1000D0000C9474010C9474010C9474010C947401CC
:1000E0000C9474010C943A030C9442030C941F0377
:1000F0000C9463030C949E020C94F7010C94590326
:100100000C944B030C9455030C9436030C94450348
:100110000C9419020C9424030C94E8010C9415051A
:100120000C943E030C9416050C9467030C940B027C
:100130000C944F030C9417050C946E060C94180540
:100140000C9471030C94B4010C94AE010C94D4097A
:100150000C9475030C946B030C9451020C94BB012A
:100160000C945D0300002100240027002A002D00CC
:100170003000330001010000040107010A01000002
:100180002200250028002B002E003100340002013F
:100190000000050108010B0100000A0B02090C0D0B
:1001A0000E0807030401000000000000000000002A
:1001B000000000000000000000000000000000003F
:1001C00000000000121110000000000000000000FC
:1001D000000000000000000000000000000000001F
:1001E00020002300260029002C002F0032000001EF
:1001F00000000301060109010505050507050808BA
:100200000808020202020A0A0808040404040101A0
:1002100001010101010103030303030303030407B5
:1002200007070C0C0C0C0C0C0C0C0202020206064C
:100230000606060606060B0B0B0B0B0B0B0B01023F
:1002400010202008081020401020408002010201E8
:1002500008040201010204081020408080402010A0
:1002600008040201800402018040201008040201F9
:100270000804020101020408102040800102040861
:1002800010204080D40911241FBECFEFD1E2DEBF81
:10029000CDBF00E00CBF12E0A0E0B2E0E8EAFFE171
:1002A00000E00BBF02C007900D92AA3CB107D9F73E
:1002B00023E0AAECB2E001C01D92A13BB207E1F736
:1002C00011E0C3E4D1E000E006C021970109802FCE
:1002D000FE010E94CA0FC234D10780E00807A9F7C7
:1002E0000E943E0A0C94D20F0C940000CF92DF9231
:1002F000EF92FF92CF93DF93B091A503A0E081111D
:10030000AB2F8091A60390E0880F991FAC01425259
:100310005E4FC090AB03D090AC03E090AD03F09083
:10032000AE0330E020E0FA01C591D491E881B90133
:1003300090E080E0EB23EA130AC02F5F3F4F6C157B
:100340007D058E059F0578F36FEF7FEFCB01DF9181
:10035000CF91FF90EF90DF90CF9008958091E702CA
:100360008F5F8093E70208958091E80291E08927EA
:100370008093E8020895AF92BF92CF92DF92EF92FE
:10038000FF920F931F93CF93DF936C017B018B013F
:10039000040F151FEB015E01AE18BF08C017D1078F
:1003A00059F06991D601ED91FC910190F081E02D19
:1003B000C6011995892B79F7C501DF91CF911F915E
:1003C0000F91FF90EF90DF90CF90BF90AF90089586
:1003D000FC01538D448D252F30E0842F90E0821B4B
:1003E000930B541710F0CF96089501970895FC01D0
:1003F000918D828D981761F0A28DAE0FBF2FB11D28
:100400005D968C91928D9F5F9F73928F90E008957F
:100410008FEF9FEF0895FC01918D828D981731F039
:10042000828DE80FF11D858D90E008958FEF9FEF8D
:100430000895FC01918D228D892F90E0805C9F4F63
:10044000821B91098F739927089589EE92E00E948B
:10045000190221E0892B09F420E0822F0895FC0184
:10046000A48DA80FB92FB11DA35ABF4F2C91848D15
:1004700090E001968F739927848FA689B7892C9372
:10048000A089B1898C91837080648C93938D848DC5
:10049000981306C00288F389E02D80818F7D8083C8
:1004A0000895EF92FF920F931F93CF93DF93EC0188
:1004B00081E0888F9B8D8C8D98131AC0E889F9890B
:1004C000808185FF15C09FB7F894EE89FF8960830E
:1004D000E889F98980818370806480839FBF81E08F
:1004E00090E0DF91CF911F910F91FF90EF900895D1
:1004F000F62E0B8D10E00F5F1F4F0F731127E02EAC
:100500008C8D8E110CC00FB607FCFACFE889F989E3
:10051000808185FFF5CFCE010E942F02F1CFEB8DB8
:10052000EC0FFD2FF11DE35AFF4FF0829FB7F894B7
:100530000B8FEA89FB8980818062CFCFCF93DF93D5
:10054000EC01888D8823B9F0AA89BB89E889F989EB
:100550008C9185FD03C0808186FD0DC00FB607FC20
:10056000F7CF8C9185FFF2CF808185FFEDCFCE0153
:100570000E942F02E9CFDF91CF91089580E090E0B3
:10058000892B29F00E94250281110E94000080E041
:1005900090E0892B49F080E090E0892B29F00E94BF
:1005A000000081110E94000080E090E0892B49F05A
:1005B00080E090E0892B29F00E94000081110E94C8
:1005C000000080E090E0892B49F080E090E0892BEA
:1005D00029F00E94000081110C9400000895282F3A
:1005E00030E0F901E856FE4F9491F901E25CFD4FCD
:1005F000449128503E4FF9012491222309F435C03B
:10060000992311F191509231F8F4E92FF0E0882705
:10061000E35FFC4F8F4F0C94CA0F3E0342031F034E
:1006200036033A03240345034B034F035503590391
:100630005D036303670324036B03710375038091F8
:1006400080008F7780938000E22FF0E0EE0FFF1F95
:10065000E258FE4FA591B4918FB7F894EC916111D7
:1006600048C040954E234C938FBF089580918000E1
:100670008F7DE8CF80918000877FE4CF84B58F772E
:1006800084BDE2CF84B58F7DFBCF8091B0008F77A2
:100690008093B000D9CF8091B0008F7DF9CF809149
:1006A00090008F7780939000CFCF809190008F7DC6
:1006B000F9CF80919000877FF5CF8091A0008F7750
:1006C0008093A000C1CF8091A0008F7DF9CF809151
:1006D000A000877FF5CF809120018F778093200144
:1006E000B3CF809120018F7DF9CF80912001877F4A
:1006F000F5CF4E2BB8CFCF93DF9390E0FC01E25CB7
:10070000FD4F249188509E4FFC0184918823D1F0A5
:1007100090E0880F991FFC01EC59FE4FA591B49110
:10072000FC01E258FE4FC591D491623071F49FB73D
:10073000F8943C91822F809583238C93E8812E2B13
:1007400028839FBFDF91CF9108958FB7F894EC91E4
:100750002E2B2C938FBFF6CF3FB7F8948091CF020A
:100760009091D002A091D102B091D20226B5A89B5F
:1007700005C02F3F19F00196A11DB11D3FBFBA2F33
:10078000A92F982F8827BC01CD01620F711D811DF3
:10079000911D42E0660F771F881F991F4A95D1F778
:1007A00008958F929F92AF92BF92CF92DF92EF9275
:1007B000FF924B015C010E94AC036B017C010E9423
:1007C000AC036C197D098E099F09683E7340810551
:1007D0009105A8F321E0821A9108A108B10888EEDA
:1007E000C80E83E0D81EE11CF11C81149104A10401
:1007F000B10429F7FF90EF90DF90CF90BF90AF90BA
:100800009F908F9008952FB7F8946091CB027091CC
:10081000CC028091CD029091CE022FBF0895CF924D
:10082000DF92EF92FF920F931F93CF93DF93CDB799
:10083000DEB7C054D1400FB6F894DEBF0FBECDBFB7
:100840000E9403040091A7031091A8032091A9031B
:100850003091AA036B017C01C01AD10AE20AF30AA3
:1008600097018601003D17402105310590F48091E4
:10087000AF03C05CDE4F0FB6F894DEBF0FBECDBF36
:10088000DF91CF911F910F91FF90EF90DF90CF906C
:1008900008956093A7037093A8038093A90390938E
:1008A000AA031092A2031092A1031092A003109227
:1008B0009F0310929E0362E08091A3030E947B033A
:1008C00061E070E080E090E00E94D10361E08091FF
:1008D000A3030E947B0360E08091A3030E94EF02C8
:1008E0008091A4038551823020F58BE291E101973C
:1008F000F1F762E08091A3030E947B038091B00333
:1009000090E08230910538F0880F991F880F991F69
:1009100005970197F1F7F89480E00E9476016F3F08
:100920007F4F8F4F9F4F61F41092AF03789480E018
:10093000A0CF64E170E080E090E00E94D103D9CFC5
:1009400081E00E9476016F3F7F4F8F4F9F4F61F391
:100950008E010F5F1F4F6E012FEBC21A2EEFD20ACE
:10096000780180E00E947601F701608371838283C1
:10097000938381E00E947601F70164837583868307
:100980009783F8E0EF0EF11CEC14FD0451F7789416
:1009900030E020E0F801C080D180E280F380448123
:1009A000558166817781FFEFCF16DF06EF06FF06E0
:1009B00031F04F3F8FEF58076807780719F410920E
:1009C000AF03B5CFF90183E0F595E7958A95E1F797
:1009D000E256FC4F8081880FC416D506E606F7065E
:1009E00010F180832F5F3F4F085F1F4F2832310582
:1009F00089F64091A20320919E0380919F03280FC6
:100A00003327331F8091A003280F311D8091A1034C
:100A1000820F932F911D99274817190681F681E0BF
:100A20008093AF0326CF8160DCCF089508950895A9
:100A300090E080E00895CF93DF93EC0160E08E8139
:100A40000E94EF0261E08E810E94EF0260E08E81E1
:100A50000E94EF028BE891E00197F1F7DF91CF91CF
:100A60000895CF92DF92EF92FF920F931F93CF934F
:100A7000DF936C017C0187E0E80EF11CD0E0C0E060
:100A8000062F10E0B8010C2E02C0759567950A94E8
:100A9000E2F76170F70181917F010E94EF022196D8
:100AA000C430D10579F7C601DF91CF911F910F9125
:100AB000FF90EF90DF90CF900C941B05CF92DF92C8
:100AC000EF92FF920F931F93CF93DF93EC01F62EDB
:100AD000642F8C810E94EF028D818F3F19F060E0BE
:100AE0000E94EF020F2D10E08F8584FF25C06E015C
:100AF00087E0C80ED11CF12CE12CB8010E2C02C0ED
:100B0000759567950A94E2F76170F60181916F011E
:100B10000E94EF02FFEFEF1AFF0A88E0E816F104E7
:100B200061F7CE01DF91CF911F910F91FF90EF9070
:100B3000DF90CF900C941B05B80184E07595679504
:100B40008A95E1F7CE010E9431056F2DCE01DF912C
:100B5000CF911F910F91FF90EF90DF90CF900C9469
:100B6000310540E0682F86E893E00C945E0581E053
:100B70000E94B1058BE39FE10197F1F70895CF93B0
:100B8000DF93823029F490919503986090939503B8
:100B90008093990310929A0380E480939B0380E1F1
:100BA00080939C0380E580939D0361E080918A039C
:100BB0000E947B0380918B038F3F19F061E00E94BC
:100BC0007B0361E080918C030E947B03C6E8D3E045
:100BD0009E01265833408091950384FD0BC084E02C
:100BE00090E021962817390744F461E08E810E9435
:100BF0007B03EECF88E090E0F4CF8BE39DE001979C
:100C0000F1F760E080918A030E94EF0260E080913A
:100C10008C030E94EF0280918B038F3F19F060E0FC
:100C20000E94EF028091950384FD34C063E086E862
:100C300093E00E943105CBE4D6E4CE010197F1F7B1
:100C400063E086E893E00E9431052197F1F763E0C5
:100C500086E893E00E94310583E592E00197F1F781
:100C600062E086E893E00E943105809195038062FE
:100C70000E94B10584E0809396038CE00E94B10548
:100C80000E94B70582E08093970386E0DF91CF91C1
:100C90000C94B10580620E94B1058BE496E4019743
:100CA000F1F78091950380620E94B10583E592E09F
:100CB0000197F1F78091950380620E94B105D5CF2D
:100CC00090919903891710F08FEF890FE82FF0E0CA
:100CD000EA57FC4F848980680C94B10541E00E947A
:100CE0005E0581E090E00895FB0101900020E9F7A6
:100CF0003197AF01461B570BDC01ED91FC9102804F
:100D0000F381E02D19948F929F92AF92BF920F932F
:100D10001F93CF93DF93CDB7DEB7A1970FB6F894AB
:100D2000DEBF0FBECDBF19A2423008F44AE08E01EB
:100D30000F5D1F4F842E912CB12CA12CA501940185
:100D40000E94A80FE62FB901CA01EA3004F5E05D60
:100D5000D801EE938D01232B242B252B79F790E0DE
:100D600080E0109729F0BD0186E893E00E947406A8
:100D7000A1960FB6F894DEBF0FBECDBFDF91CF9125
:100D80001F910F91BF90AF909F908F900895E95C55
:100D9000DFCF4F925F926F927F928F929F92AF922E
:100DA000BF92CF92DF92EF92FF920F931F93CF9358
:100DB0006B017C01742EAC019B010E94A30F60E3C8
:100DC00072E0811126C046015701E894B7F82FEF71
:100DD0003FEF4FE75FE7C501B4010E94A30F811108
:100DE0000CC02FEF3FEF4FE75FE7C501B4010E9452
:100DF000D90D64E372E0181664F02FEF3FEF4FE770
:100E00005FE4C701B6010E94310F1816ACF468E325
:100E100072E086E893E0CF911F910F91FF90EF90E1
:100E2000DF90CF90BF90AF909F908F907F906F900A
:100E30005F904F900C9474062FEF3FEF4FE75FECFD
:100E4000C701B6010E94D90D87FDE1CF20E030E057
:100E5000A901C701B6010E94D90D10E000E087FF8B
:100E60000CC041E06DE286E893E00E945E05F7FA6F
:100E7000F094F7F8F09401E010E0C0E060E070E07A
:100E800080E09FE37C1641F020E030E040E251E456
:100E90000E94DE0DCF5FF6CFA70196010E946D0D77
:100EA0004B015C010E94500E2B013C014AE00E9464
:100EB0008306080F191FCC23C9F1C301B2010E9498
:100EC0007F0E9B01AC01C501B4010E946C0D4B016A
:100ED0005C0141E06EE286E893E00E945E050F5FF0
:100EE0001F4FC15018F120E030E040E251E4C5014D
:100EF000B4010E94360F2B013C010E94500E4B01A1
:100F0000B12CA12C4AE0C501B4010E948306080F50
:100F1000191FC501B4010E947F0E9B01AC01C301E2
:100F2000B2010E946C0D4B015C01DBCFC801CF9177
:100F30001F910F91FF90EF90DF90CF90BF90AF90F7
:100F40009F908F907F906F905F904F9008951F9229
:100F50000F920FB60F9211240BB60F922F933F935F
:100F60004F935F936F937F938F939F93AF93BF93B1
:100F7000EF93FF9389EE92E00E942F02FF91EF9191
:100F8000BF91AF919F918F917F916F915F914F91A1
:100F90003F912F910F900BBE0F900FBE0F901F909F
:100FA00018951F920F920FB60F9211240BB60F9245
:100FB0002F938F939F93EF93FF93E091F902F0911A
:100FC000FA028081E091FF02F091000382FD1DC0D2
:100FD0009081809102038F5F8F73209103038217AA
:100FE00041F0E0910203F0E0E751FD4F958F8093CF
:100FF0000203FF91EF919F918F912F910F900BBE64
:101000000F900FBE0F901F9018958081F2CF1F9206
:101010000F920FB60F9211242F933F938F939F93AC
:10102000AF93BF938091CB029091CC02A091CD025F
:10103000B091CE023091CA0223E0230F2D3758F52C
:101040000196A11DB11D2093CA028093CB029093FB
:10105000CC02A093CD02B093CE028091CF029091AA
:10106000D002A091D102B091D2020196A11DB11D72
:101070008093CF029093D002A093D102B093D2027A
:10108000BF91AF919F918F913F912F910F900FBE84
:101090000F901F90189526E8230F0296A11DB11DF1
:1010A000D2CF1F920F920FB60F9211240BB60F9250
:1010B0002F933F934F935F936F937F938F939F9360
:1010C000AF93BF93EF93FF93E0910E02F0910F0265
:1010D0001995FF91EF91BF91AF919F918F917F9162
:1010E0006F915F914F913F912F910F900BBE0F9099
:1010F0000FBE0F901F9018951F920F920FB60F9270
:1011000011240BB60F922F933F934F935F936F93DE
:101110007F938F939F93AF93BF93EF93FF93E09150
:101120000C02F0910D021995FF91EF91BF91AF91D3
:101130009F918F917F916F915F914F913F912F91EF
:101140000F900BBE0F900FBE0F901F9018951F921F
:101150000F920FB60F9211240BB60F922F933F935D
:101160004F935F936F937F938F939F93AF93BF93AF
:10117000EF93FF93E0910202F09103021995FF9122
:10118000EF91BF91AF919F918F917F916F915F91FF
:101190004F913F912F910F900BBE0F900FBE0F906C
:1011A0001F9018951F920F920FB60F9211240BB635
:1011B0000F922F933F934F935F936F937F938F93F0
:1011C0009F93AF93BF93EF93FF93E0910002F09151
:1011D00001021995FF91EF91BF91AF919F918F916E
:1011E0007F916F915F914F913F912F910F900BBE27
:1011F0000F900FBE0F901F9018951F920F920FB671
:101200000F9211240BB60F922F933F934F935F933E
:101210006F937F938F939F93AF93BF93EF93FF93BE
:10122000E0910A02F0910B021995FF91EF91BF91A5
:10123000AF919F918F917F916F915F914F913F916E
:101240002F910F900BBE0F900FBE0F901F9018950F
:101250001F920F920FB60F9211240BB60F922F937D
:101260003F934F935F936F937F938F939F93AF932E
:10127000BF93EF93FF93E0910802F0910902199553
:10128000FF91EF91BF91AF919F918F917F916F915E
:101290005F914F913F912F910F900BBE0F900FBE1A
:1012A0000F901F9018951F920F920FB60F92112456
:1012B0000BB60F922F933F934F935F936F937F9350
:1012C0008F939F93AF93BF93EF93FF93E0910602A9
:1012D000F09107021995FF91EF91BF91AF919F9106
:1012E0008F917F916F915F914F913F912F910F90CF
:1012F0000BBE0F900FBE0F901F9018951F920F926C
:101300000FB60F9211240BB60F922F933F934F936A
:101310005F936F937F938F939F93AF93BF93EF935D
:10132000FF93E0910402F09105021995FF91EF916E
:10133000BF91AF919F918F917F916F915F914F91ED
:101340003F912F910F900BBE0F900FBE0F901F90EB
:1013500018951F920F920FB60F9211240BB60F9291
:101360002F933F934F935F936F937F938F939F93AD
:10137000AF93BF93EF93FF93E0911002F0911102AE
:101380001995FF91EF91BF91AF919F918F917F91AF
:101390006F915F914F913F912F910F900BBE0F90E6
:1013A0000FBE0F901F901895E9EEF2E013821282A3
:1013B00088EE93E0A0E0B0E084839583A683B783B2
:1013C00086E192E09183808385EC90E09587848725
:1013D00084EC90E09787868780EC90E0918B808BFF
:1013E00081EC90E0938B828B82EC90E0958B848BE8
:1013F00086EC90E0978B868B118E128E138E148E56
:10140000AEE9B3E086E015968C93159786E11696C3
:101410008C931697E4E4F2E0E4911796EC93179717
:10142000EEEFF1E0E4911896EC93189740E85EE354
:1014300060E070E01D964D935D936D937C935097A3
:10144000E6E8F3E01382128288E292E091838083DF
:101450008CE084838FEF85838BE0868385E08783B0
:1014600084E0808783E0818787E082871386148603
:1014700015861686178681E00C94BF05789484B58E
:10148000826084BD84B5816084BD85B5826085BD80
:1014900085B5816085BD80916E00816080936E000E
:1014A0001092810080918100826080938100809100
:1014B00081008160809381008091800081608093B1
:1014C00080008091B10084608093B1008091B00071
:1014D00081608093B0008091910082608093910040
:1014E0008091910081608093910080919000816053
:1014F000809390008091A10082608093A1008091F0
:10150000A10081608093A1008091A0008160809300
:10151000A0008091210182608093210180912101AE
:10152000816080932101809120018160809320015E
:1015300080917A00846080937A0080917A00826042
:1015400080937A0080917A00816080937A00809104
:101550007A00806880937A001092C10061E088E090
:101560000E947B0361E089E00E947B0361E08AE0E6
:101570000E947B0362E082E00E947B03E091F9021B
:10158000F091FA0282E08083E091F502F091F60298
:101590001082E091F702F091F8028FEC80831092B4
:1015A0000103E091FD02F091FE0286E08083E0916C
:1015B000FB02F091FC02808180618083E091FB025C
:1015C000F091FC02808188608083E091FB02F091C1
:1015D000FC02808180688083E091FB02F091FC0234
:1015E00080818F7D808362E08091A3030E947B03D2
:1015F0000E940304605D7740810991096093A7030D
:101600007093A8038093A9039093AA0387E3809320
:10161000B00382E00E94BF056CE372E086E893E0CD
:101620000E94740660ED77E080E090E00E94D103B4
:101630000E94B70580E1809381001092800082E1D2
:101640009AE7909387008093860084E180938100DD
:1016500084EB91E0909301028093000280916A00F4
:101660008C7F816080936A00EC9A0E9403046093EF
:10167000D7027093D8028093D9029093DA020E9425
:1016800003046093DB027093DC028093DD0290938D
:10169000DE02CEEAD1E011E08091E802882309F46D
:1016A0001BC1D0931102C093100210936F00809160
:1016B000E702882331F0813009F423C11092E70258
:1016C0000BC10E940F04882341F08091A4038C3049
:1016D00009F464C038F48B30F1F060E070E080EC25
:1016E0009FE741C085518230C0F70091A003602F71
:1016F00070E0762F662766277F778091A103682B9D
:1017000090E080E00E947F0E2DEC3CEC4CEC5DE321
:101710000E94360F5FC06091A00370E090E080E00F
:101720000E947F0E6B017C010091A10307FF0AC09C
:10173000AC019B0160E070E080E89FEB0E946C0DC3
:101740006B017C010F70602F70E090E080E00E94E0
:10175000810E2DEC3CEC4CEC5DE30E94360FA701B2
:1017600096010E946D0D6093E3027093E4028093F2
:10177000E5029093E6020E940F04882351F08091C5
:10178000A4038B3030F08D3048F18551823008F45D
:10179000A6C060E070E080EC9FE73CC00091A00331
:1017A000602F70E090E080E00E947F0E6B017C0172
:1017B0006091A1036F7070E090E080E00E94810E64
:1017C0002DEC3CEC4CEC5DE30E94360FA70196013A
:1017D0000E946D0D07FFC7CF9058C5CF60919F0342
:1017E00070E090E080E00E94810E2DEC3CEC4CEC2F
:1017F0005DE30E94360F6B017C0160919E0370E0F7
:1018000090E080E00E94810E9B01AC01C701B6010F
:101810000E946D0D6093DF027093E0028093E102FD
:101820009093E2020E940304C090DB02D090DC029D
:10183000E090DD02F090DE026C197D098E099F09AF
:10184000613D77408105910508F446C00E9403047C
:101850006093DB027093DC028093DD029093DE02E2
:101860000E94B70580E00E94600669E472E086E8A5
:1018700093E00E9474066091E3027091E40280910B
:10188000E5029091E60241E00E94C90641E06FED59
:1018900086E893E00E945E056CE472E086E893E0DF
:1018A0000E94740681E00E9460066FE472E086E8A0
:1018B00093E00E9474066091DF027091E0028091D3
:1018C000E1029091E20241E00E94C90662E572E005
:1018D00086E893E00E9474060E94BE02DDCE60910D
:1018E0009E0370919F0376276727762790E080E01C
:1018F0000E947F0E2DEC3CEC4CEC5DE30E94360F19
:1019000089CF0E940304C090D702D090D802E09003
:10191000D902F090DA026C197D098E099F09693BA2
:101920007B4081059105C0F20E9403046093D702B9
:101930007093D8028093D9029093DA02C090E302A8
:10194000D090E402E090E502F090E60220E030E082
:1019500040E251E4C701B6010E94D90D881F8827D3
:10196000881F8093D60220E030E04CE852E4C701A3
:10197000B6010E94310F18160CF0A8C01093D502C2
:10198000C090DF02D090E002E090E102F090E2022D
:1019900020E030E040E451E4C701B6010E94D90DD7
:1019A000880F880B81238093D40220E030E044EB41
:1019B00052E4C701B6010E94310F18160CF089C01D
:1019C0001093D3028091D302811105C08091D5027A
:1019D00060E0882349F165E572E089EE92E00E94BB
:1019E000740660E772E089EE92E00E9474060E943D
:1019F000B7058091D502882349F080E00E946006F7
:101A000063E772E086E893E00E9474068091D30257
:101A1000882349F081E00E94600660E872E086E871
:101A200093E00E94740661E08AE00E94EF02009158
:101A3000D402011105C08091D60260E08823D9F05C
:101A40000E94B705002349F081E00E9460066DE81E
:101A500072E086E893E00E9474068091D6028823A3
:101A600049F080E00E9460066BE972E086E893E04E
:101A70000E94740661E089E00E94EF026091E30237
:101A80007091E4028091E5029091E6029B01AC0125
:101A90000E94A30F81110FC06091DF027091E002DC
:101AA0008091E1029091E2029B01AC010E94A30FA0
:101AB000882309F411CF69EA72E089EE92E00E946E
:101AC000740660E772E089EE92E004CF1092D502CE
:101AD00057CF1092D30276CF5058BB27AA270E9427
:101AE000840D0C94F70E0E94E90E38F00E94F00E5F
:101AF00020F039F49F3F19F426F40C94E60E0EF40E
:101B0000E095E7FB0C94E00EE92F0E94080F58F3D4
:101B1000BA17620773078407950720F079F4A6F5D2
:101B20000C942A0F0EF4E0950B2EBA2FA02D0B016A
:101B3000B90190010C01CA01A0011124FF27591B12
:101B400099F0593F50F4503E68F11A16F040A22F18
:101B5000232F342F4427585FF3CF46953795279589
:101B6000A795F0405395C9F77EF41F16BA0B620B88
:101B7000730B840BBAF09150A1F0FF0FBB1F661FCF
:101B8000771F881FC2F70EC0BA0F621F731F841F12
:101B900048F4879577956795B795F7959E3F08F038
:101BA000B0CF9395880F08F09927EE0F97958795FA
:101BB00008950E94BC0E08F481E008950E94F20D81
:101BC0000C94F70E0E94F00E58F00E94E90E40F0BF
:101BD00029F45F3F29F00C94E00E51110C942B0F67
:101BE0000C94E60E0E94080F68F39923B1F3552375
:101BF00091F3951B550BBB27AA2762177307840720
:101C000038F09F5F5F4F220F331F441FAA1FA9F3B5
:101C100035D00E2E3AF0E0E832D091505040E695A3
:101C2000001CCAF72BD0FE2F29D0660F771F881F04
:101C3000BB1F261737074807AB07B0E809F0BB0BF7
:101C4000802DBF01FF2793585F4F3AF09E3F51050B
:101C500078F00C94E00E0C942B0F5F3FE4F3983E69
:101C6000D4F3869577956795B795F7959F5FC9F7F4
:101C7000880F911D9695879597F90895E1E0660F75
:101C8000771F881FBB1F621773078407BA0720F0EE
:101C9000621B730B840BBA0BEE1F88F7E095089557
:101CA0000E94100F88F09F5798F0B92F9927B751CD
:101CB000B0F0E1F0660F771F881F991F1AF0BA95F0
:101CC000C9F714C0B13091F00E942A0FB1E0089515
:101CD0000C942A0F672F782F8827B85F39F0B93F07
:101CE000CCF3869577956795B395D9F73EF49095A3
:101CF0008095709561957F4F8F4F9F4F0895E89421
:101D000009C097FB3EF490958095709561957F4F43
:101D10008F4F9F4F9923A9F0F92F96E9BB279395F1
:101D2000F695879577956795B795F111F8CFFAF401
:101D3000BB0F11F460FF1BC06F5F7F4F8F4F9F4F32
:101D400016C0882311F096E911C0772321F09EE890
:101D5000872F762F05C0662371F096E8862F70E0F6
:101D600060E02AF09A95660F771F881FDAF7880FD0
:101D70009695879597F90895990F0008550FAA0B26
:101D8000E0E8FEEF16161706E807F907C0F012168E
:101D90001306E407F50798F0621B730B840B950B91
:101DA00039F40A2661F0232B242B252B21F40895E6
:101DB0000A2609F4A140A6958FEF811D811D089583
:101DC00097F99F6780E870E060E008959FEF80ECEE
:101DD000089500240A941616170618060906089591
:101DE00000240A9412161306140605060895092EF7
:101DF0000394000C11F4882352F0BB0F40F4BF2B66
:101E000011F460FF04C06F5F7F4F8F4F9F4F0895A5
:101E100057FD9058440F551F59F05F3F71F047959B
:101E2000880F97FB991F61F09F3F79F08795089580
:101E3000121613061406551FF2CF4695F1DF08C09F
:101E4000161617061806991FF1CF869571056105BC
:101E500008940895E894BB2766277727CB0197F964
:101E600008950E94BC0E08F48FEF08950E94490F58
:101E70000C94F70E0E94E90E38F00E94F00E20F04C
:101E8000952311F00C94E00E0C94E60E11240C94A2
:101E90002B0F0E94080F70F3959FC1F3950F50E030
:101EA000551F629FF001729FBB27F00DB11D639F0C
:101EB000AA27F00DB11DAA1F649F6627B00DA11DB2
:101EC000661F829F2227B00DA11D621F739FB00D58
:101ED000A11D621F839FA00D611D221F749F3327C8
:101EE000A00D611D231F849F600D211D822F762F61
:101EF0006A2F11249F5750409AF0F1F088234AF03E
:101F0000EE0FFF1FBB1F661F771F881F91505040A9
:101F1000A9F79E3F510580F00C94E00E0C942B0F16
:101F20005F3FE4F3983ED4F3869577956795B79530
:101F3000F795E7959F5FC1F7FE2B880F911D96954A
:101F4000879597F908950E94BC0E880B990B089508
:101F5000A1E21A2EAA1BBB1BFD010DC0AA1FBB1FAD
:101F6000EE1FFF1FA217B307E407F50720F0A21B1F
:101F7000B30BE40BF50B661F771F881F991F1A948C
:101F800069F760957095809590959B01AC01BD01B6
:101F9000CF010895EE0FFF1F881F8BBF0790F691AA
:081FA000E02D1994F894FFCF25
:101FA8001505150515051505150515051505150559
:101FB8001605000000005102BB01E8019E0219024B
:101FC800F7010B02000000006E06BB01180517059B
:101FD8006E616E00696E66006F766600496E6963B1
:101FE80069616E646F2E2E2E00543A00432000550E
:101FF8003A00252000416C65727461206465206C8C
:10200800696D69746520657863656469646F3A0011
:102018000D0A002154454D50206163696D6121000E
:1020280021554D4944206163696D61210021554D59
:1020380049442061626169786F21002154454D50FF
:102048002061626169786F210046616C6861206E69
:1020580061206C65697475726120646F2073656EA8
:0A206800736F7220444854210000F9
:00000001FF
