:100000000C94C3010C94AD0B0C94820B0C94570B05
:100010000C942C0B0C94010B0C94D60A0C94AB0A88
:100020000C94800A0C94F4010C94F4010C94F401E7
:100030000C94F4010C94F4010C94F4010C94F4016C
:100040000C94F4010C94F4010C94F4010C94F4015C
:100050000C94D80B0C94F4010C94F4010C94360A13
:100060000C94F4010C94000A0C94D6090C94F4013D
:100070000C94F4010C94F4010C94F4010C94F4012C
:100080000C94F4010C94F4010C94F4010C94F4011C
:100090000C94F4010C94F4010C94F4010C94F4010C
:1000A0000C94F4010C94F4010C94F4010C94F401FC
:1000B0000C94F4010C94F4010C94F4010C94F401EC
:1000C0000C94F4010C94F4010C94F4010C94F401DC
:1000D0000C94F4010C94F4010C94F4010C94F401CC
:1000E0000C94F4010C943B020C9478020C94701163
:1000F0000C94C5030C94E0050C948C020C94030C36
:100100000C94CF030C94AD030C94E2050C94C10342
:100110000C94D2020C942E020C94A9030C94340279
:100120000C94B7030C949A020C9469020C9438074F
:100130000C94CE030C94B3030C94BB030C94940363
:100140000C948E030C94D3030C94C9030C94A00359
:100150000C94A3030C949C030C94E1050C941F03D2
:100160000C943C020C94980300407A10F35A00A0BF
:10017000724E18090010A5D4E80000E87648170070
:1001800000E40B54020000CA9A3B000000E1F505B0
:10019000000080969800000040420F000000A086FA
:1001A00001000000102700000000E803000000002C
:1001B0006400000000000A000000000001000000D0
:1001C00000002C76D888DC674F0823DFC1DFAE59EA
:1001D000E1B1B796E5E3E453C63AE651997696E87D
:1001E000E6C28426EB898C9B62ED407C6FFCEFBC01
:1001F0009C9F40F2BAA56FA5F490055A2AF75C932C
:100200006B6CF9676DC11BFCE0E40D47FEF520E661
:10021000B500D0ED902E0300943577050080841E44
:10022000080000204E0A000000C80C333333330F9F
:10023000986E12831141EF8D2114893BE65516CF3C
:10024000FEE6DB18D1844B381BF77C1D901DA4BB48
:10025000E424203284725E228100C9F124ECA1E5FD
:100260003D2700002100240027002A002D00300037
:10027000330001010000040107010A01000022000F
:10028000250028002B002E00310034000201000060
:10029000050108010B0100000A0B02090C0D0E08F4
:1002A000070304010000000000000000000000003F
:1002B000000000000000000000000000000000003E
:1002C00000001211100000000000000000000000FB
:1002D00000000000000000000000000000002000FE
:1002E0002300260029002C002F003200000100000E
:1002F00003010601090105050505070508080808A9
:10030000020202020A0A08080404040401010101AD
:1003100001010101030303030303030304070707A8
:100320000C0C0C0C0C0C0C0C02020202060606064D
:10033000060606060B0B0B0B0B0B0B0B010210201A
:10034000200808102040102040800201020108040B
:10035000020101020408102040808040201008049F
:1003600002018004020180402010080402010804F8
:10037000020101020408102040800102040810203C
:100380004080030C701111241FBECFEFD1E2DEBFFD
:10039000CDBF00E00CBF25E0A4E6B3E001C01D9294
:1003A000A738B207E1F713E0A0E0B2E0EAE1F1E339
:1003B00000E00BBF02C007900D92A436B107D9F739
:1003C00011E0C2ECD1E000E006C021970109802FC6
:1003D000FE010E945D16C13CD10780E00807A9F725
:1003E0000E94A70C0C947B180C940000CF92DF9213
:1003F000EF92FF92CF93DF93B0917705A0E0811148
:10040000AB2F8091780590E0880F991FAC01445282
:100410005D4FC0907D05D0907E05E0907F05F09007
:10042000800530E020E0FA01C591D491E881B9015E
:1004300090E080E0EB23EA130AC02F5F3F4F6C157A
:100440007D058E059F0578F36FEF7FEFCB01DF9180
:10045000CF91FF90EF90DF90CF9008958091890326
:100460008F5F80938903089580918A0391E08927A3
:1004700080938A0308950895AF92BF92CF92DF923E
:10048000EF92FF920F931F93CF93DF936C017B0149
:100490008B01040F151FEB015E01AE18BF08C017DA
:1004A000D10759F06991D601ED91FC910190F0814D
:1004B000E02DC6011995892B79F7C501DF91CF9100
:1004C0001F910F91FF90EF90DF90CF90BF90AF9072
:1004D0000895FC01538D448D252F30E0842F90E04A
:1004E000821B930B541710F0CF960895019708952F
:1004F000FC01918D828D981761F0A28DAE0FBF2FF8
:10050000B11D5D968C91928D9F5F9F73928F90E04D
:1005100008958FEF9FEF0895FC01918D828D9817BC
:1005200031F0828DE80FF11D858D90E008958FEFF9
:100530009FEF0895FC01918D228D892F90E0805CC2
:100540009F4F821B91098F73992708958BE893E041
:100550000E949A0221E0892B09F420E0822F08955D
:10056000FC01A48DA80FB92FB11DA35ABF4F2C9128
:10057000848D90E001968F739927848FA689B7891F
:100580002C93A089B1898C91837080648C93938D16
:10059000848D981306C00288F389E02D80818F7DB9
:1005A00080830895EF92FF920F931F93CF93DF9371
:1005B000EC0181E0888F9B8D8C8D98131AC0E8899F
:1005C000F989808185FF15C09FB7F894EE89FF896E
:1005D0006083E889F98980818370806480839FBF0C
:1005E00081E090E0DF91CF911F910F91FF90EF900C
:1005F0000895F62E0B8D10E00F5F1F4F0F7311271C
:10060000E02E8C8D8E110CC00FB607FCFACFE88956
:10061000F989808185FFF5CFCE010E94B002F1CF2C
:10062000EB8DEC0FFD2FF11DE35AFF4FF0829FB7CA
:10063000F8940B8FEA89FB8980818062CFCFCF93BA
:10064000DF93EC01888D8823B9F0AA89BB89E889FA
:10065000F9898C9185FD03C0808186FD0DC00FB6A0
:1006600007FCF7CF8C9185FFF2CF808185FFEDCF1E
:10067000CE010E94B002E9CFDF91CF91089580E0D2
:1006800090E0892B29F00E94A60281110E940000AF
:1006900080E090E0892B49F080E090E0892B29F000
:1006A0000E94000081110E94000080E090E0892BF0
:1006B00049F080E090E0892B29F00E940000811130
:1006C0000E94000080E090E0892B49F080E090E0FB
:1006D000892B29F00E94000081110C9400000895DC
:1006E0008150823108F05AC0E82FF0E08827E458A2
:1006F000FC4F8F4F0C945D169C03A0038E03940354
:100700009803CE03A303A903AD03B303B703BB034D
:10071000C103C503CE03C903CF03D3038091800077
:100720008F77809380000895809180008F7DF9CF2E
:1007300080918000877FF5CF84B58F7784BD089541
:1007400084B58F7DFBCF8091B0008F778093B00010
:1007500008958091B0008F7DF9CF809190008F77C0
:10076000809390000895809190008F7DF9CF8091C3
:100770009000877FF5CF8091A0008F778093A000B5
:1007800008958091A0008F7DF9CF8091A000877F90
:10079000F5CF809120018F7780932001089580917B
:1007A00020018F7DF9CF80912001877FF5CFCF93F6
:1007B000DF93282F30E0F901EA56FD4F8491F901CB
:1007C000E45CFC4FD491F901EA50FD4FC491CC2375
:1007D000A1F081110E947003EC2FF0E0EE0FFF1FDB
:1007E000E452FD4FA591B491EC91ED2381E090E0AE
:1007F00009F480E0DF91CF91089580E090E0FACF96
:100800001F93CF93DF93282F30E0F901EA56FD4F75
:100810008491F901E45CFC4FD491F901EA50FD4F59
:10082000C491CC23A9F0162F81110E947003EC2FE4
:10083000F0E0EE0FFF1FE458FD4FA591B4918FB784
:10084000F894EC91111108C0D095DE23DC938FBF92
:10085000DF91CF911F910895DE2BF8CFCF93DF93D7
:1008600090E0FC01E45CFC4F24918A509D4FFC0118
:1008700084918823D1F090E0880F991FFC01EE59F4
:10088000FD4FA591B491FC01E458FD4FC591D49161
:10089000623071F49FB7F8943C91822F8095832346
:1008A0008C93E8812E2B28839FBFDF91CF910895F1
:1008B0008FB7F894EC912E2B2C938FBFF6CF90919D
:1008C0007B00986090937B00865387708064809350
:1008D0007C0080917A00806480937A0080917A0015
:1008E00086FDFCCF809178009091790008953FB704
:1008F000F8948091690390916A03A0916B03B09181
:100900006C0326B5A89B05C02F3F19F00196A11DC9
:10091000B11D3FBFBA2FA92F982F8827BC01CD0149
:10092000620F711D811D911D42E0660F771F881FA8
:10093000991F4A95D1F708958F929F92AF92BF92D7
:10094000CF92DF92EF92FF924B015C010E947704FD
:100950006B017C010E9477046C197D098E099F0947
:10096000683E734081059105A8F321E0821A910841
:10097000A108B10888EEC80E83E0D81EE11CF11C66
:1009800081149104A104B10429F7FF90EF90DF9046
:10099000CF90BF90AF909F908F9008952FB7F8940D
:1009A000609165037091660380916703909168037D
:1009B0002FBF0895CF92DF92EF92FF920F931F9374
:1009C000CF93DF93CDB7DEB7C054D1400FB6F894C4
:1009D000DEBF0FBECDBF0E94CE04009179051091FD
:1009E0007A0520917B0530917C056B017C01C01A52
:1009F000D10AE20AF30A97018601003D174021055A
:100A0000310590F480918105C05CDE4F0FB6F894FB
:100A1000DEBF0FBECDBFDF91CF911F910F91FF9031
:100A2000EF90DF90CF9008956093790570937A05E9
:100A300080937B0590937C0510927405109273054A
:100A400010927205109271051092700562E080910B
:100A500075050E942E0461E070E080E090E00E9445
:100A60009C0461E0809175050E942E0460E08091F5
:100A700075050E940004809176058551823020F52D
:100A80008BE291E10197F1F762E0809175050E9498
:100A90002E048091820590E08230910538F0880F15
:100AA000991F880F991F05970197F1F7F89480E037
:100AB0000E94F6016F3F7F4F8F4F9F4F61F410925E
:100AC0008105789480E0A0CF64E170E080E090E060
:100AD0000E949C04D9CF81E00E94F6016F3F7F4FB6
:100AE0008F4F9F4F61F38E010F5F1F4F6E012FEBF2
:100AF000C21A2EEFD20A780180E00E94F601F701B7
:100B0000608371838283938381E00E94F601F70101
:100B10006483758386839783F8E0EF0EF11CEC14F1
:100B2000FD0451F7789430E020E0F801C080D180D6
:100B3000E280F3804481558166817781FFEFCF1693
:100B4000DF06EF06FF0631F04F3F8FEF58076807CB
:100B5000780719F410928105B5CFF90183E0F59576
:100B6000E7958A95E1F7E059FA4F8081880FC4161E
:100B7000D506E606F70610F180832F5F3F4F085F2A
:100B80001F4F2832310589F6409174052091700578
:100B900080917105280F3327331F80917205280F2C
:100BA000311D80917305820F932F911D992748174E
:100BB000190681F681E08093810526CF8160DCCF24
:100BC0000895089590E080E00895CF93DF93EC01BD
:100BD00060E08E810E94000461E08E810E9400042A
:100BE00060E08E810E9400048BE891E00197F1F7AC
:100BF000DF91CF910895CF92DF92EF92FF920F9302
:100C00001F93CF93DF936C017C0187E0E80EF11C0A
:100C1000D0E0C0E0062F10E0B8010C2E02C07595A0
:100C200067950A94E2F76170F70181917F010E9454
:100C300000042196C430D10579F7C601DF91CF9128
:100C40001F910F91FF90EF90DF90CF900C94E505EE
:100C5000CF92DF92EF92FF920F931F93CF93DF9388
:100C6000EC01F62E642F8C810E9400048D818F3F51
:100C700019F060E00E9400040F2D10E08F8584FFC2
:100C800025C06E0187E0C80ED11CF12CE12CB80103
:100C90000E2C02C0759567950A94E2F76170F60113
:100CA00081916F010E940004FFEFEF1AFF0A88E0B4
:100CB000E816F10461F7CE01DF91CF911F910F91FA
:100CC000FF90EF90DF90CF900C94E505B80184E0A1
:100CD000759567958A95E1F7CE010E94FB056F2D0A
:100CE000CE01DF91CF911F910F91FF90EF90DF9098
:100CF000CF900C94FB0540E0682F88E595E00C94BC
:100D0000280681E00E947B068BE39FE10197F1F7C3
:100D1000089590916B05891710F08FEF890FE82FD8
:100D2000F0E0E85AFA4F848980680C947B06CF93F0
:100D3000DF93823029F4909167059860909367055E
:100D400080936B0510926C0580E480936D0580E1C3
:100D500080936E0580E580936F0561E080915C056E
:100D60000E942E0480915D058F3F19F061E00E9482
:100D70002E0461E080915E050E942E04C8E5D5E056
:100D80009E01285535408091670584FD0BC084E0A5
:100D900090E021962817390744F461E08E810E9483
:100DA0002E04EECF88E090E0F4CF8BE39DE0019736
:100DB000F1F760E080915C050E94000460E08091A2
:100DC0005E050E94000480915D058F3F19F060E090
:100DD0000E9400048091670584FD34C063E088E5CB
:100DE00095E00E94FB05CBE4D6E4CE010197F1F734
:100DF00063E088E595E00E94FB052197F1F763E049
:100E000088E595E00E94FB0583E592E00197F1F704
:100E100062E088E595E00E94FB05809167058062AD
:100E20000E947B0684E0809368058CE00E947B062C
:100E30000E94810682E08093690586E0DF91CF9170
:100E40000C947B0680620E947B068BE496E40197FB
:100E5000F1F78091670580620E947B0683E592E04E
:100E60000197F1F78091670580620E947B06D5CFDC
:100E700041E00E94280681E090E00895FC01808115
:100E80009181009711F00C9401170895FB010190D6
:100E90000020E9F73197AF01461B570BDC01ED91BC
:100EA000FC910280F381E02D19948F929F92AF9272
:100EB000BF92EF92FF920F931F93CF93DF93CDB723
:100EC000DEB7A1970FB6F894DEBF0FBECDBF7C0191
:100ED000FA01CB0119A2223008F42AE08E010F5D3D
:100EE0001F4F822E912CB12CA12CBF01A501940182
:100EF0000E943B16F901CA016A300CF5605DD80109
:100F00006E938D01232B242B252B79F790E080E025
:100F1000109721F0BD01C7010E944607A1960FB6A8
:100F2000F894DEBF0FBECDBFDF91CF911F910F911F
:100F3000FF90EF90BF90AF909F908F900895695C65
:100F4000DECFBC0188E595E00C944607CF93DF9394
:100F5000BC018BE893E00E944607EC0166E472E076
:100F60008BE893E00E9446078C0F9D1FDF91CF9185
:100F700008952F923F924F925F926F927F928F923D
:100F80009F92AF92BF92CF92DF92EF92FF921F9308
:100F9000CF93DF93EC016A017B01722EAB019601C6
:100FA000CB01B6010E94361669E472E0811126C0B9
:100FB00046015701E894B7F82FEF3FEF4FE75FE79F
:100FC000C501B4010E94361681110CC02FEF3FEF0E
:100FD0004FE75FE7C501B4010E94FF136DE472E0C3
:100FE000181664F02FEF3FEF4FE75FE4C701B6013B
:100FF0000E9431161816B4F461E572E0CE01DF915B
:10100000CF911F91FF90EF90DF90CF90BF90AF9066
:101010009F908F907F906F905F904F903F902F9018
:101020000C9446072FEF3FEF4FE75FECC701B60187
:101030000E94FF1387FDE0CF20E030E0A901C70147
:10104000B6010E94FF13312C212C87FF0DC0E881CF
:10105000F9810190F081E02D6DE2CE0119951C011E
:10106000F7FAF094F7F8F09410E060E070E080E0B8
:101070009FE3711641F020E030E040E251E40E942D
:1010800090151F5FF6CFA70196010E9424152B0132
:101090003C010E9402164B015C012AE0BC01A40144
:1010A000CE010E9455077C01E20CF31C1123E1F1F3
:1010B000C501B4010E9404149B01AC01C301B2013B
:1010C0000E9423154B015C01E881F9810190F081B8
:1010D000E02D6EE2CE011995E80EF91E115020F1B7
:1010E00020E030E040E251E4C501B4010E94651403
:1010F0002B013C010E9402164B01B12CA12C2AE0CD
:10110000B501A401CE010E945507E80EF91EC501E4
:10111000B4010E9404149B01AC01C301B2010E94FE
:1011200023154B015C01DACFC701DF91CF911F91ED
:10113000FF90EF90DF90CF90BF90AF909F908F90F7
:101140007F906F905F904F903F902F900895CF9336
:10115000DF93AB01BC0122E08BE893E00E94B9076A
:10116000EC0166E472E08BE893E00E9446078C0F86
:101170009D1FDF91CF9108950F931F93CF93DF931E
:101180008C01EB01FC01808191810097E1F0688185
:10119000798161157105A9F0428153812C813D81CE
:1011A0004217530770F00E9474188C819D81F801DA
:1011B000958384831D821C82DF91CF911F910F91B3
:1011C00008950E94011788819981F8019183808395
:1011D0008A819B81938382838C819D819583848383
:1011E000198218821B821A82E5CF0F931F93CF9327
:1011F000DF93EC0188819981009759F02A813B8126
:101200002617370730F081E0DF91CF911F910F91C2
:1012100008958B016F5F7F4F0E948A17009759F0E6
:10122000998388831B830A832C813D81232B59F763
:10123000FC011082E8CF80E0E7CF0F931F93CF939C
:10124000DF93FC01008111810115110531F480E06B
:10125000DF91CF911F910F910895C481D58120977F
:10126000F1F08091560490915704C80FD91FBE0128
:1012700082E594E00E94F508882349F32091520406
:10128000309153048091560490915704B801820F15
:10129000931F0E947418D0935704C093560481E0A2
:1012A000D7CFEF92FF920F931F93CF93DF93EC0171
:1012B0007B018A01BA010E94F508288139818111D8
:1012C00014C02115310519F0C9010E9401171982B6
:1012D00018821D821C821B821A82CE01DF91CF915F
:1012E0001F910F91FF90EF9008951D830C83B7011C
:1012F000C9010E947418F1CFEF92FF920F931F93D0
:10130000CF93DF93CDB7DEB7A1970FB6F894DEBFCA
:101310000FBECDBF7C01CB01BA01F7011182108253
:1013200013821282158214828E010F5F1F4F22E0FA
:1013300044E00E9490110097C9F0FC010190002048
:10134000E9F73197AF01481B590BBC01C7010E9457
:101350005109A1960FB6F894DEBF0FBECDBFDF9145
:10136000CF911F910F91FF90EF900895F701808129
:101370009181009711F00E940117F70111821082EC
:101380001582148213821282E4CFFC011182108232
:101390001382128215821482FB0101900020E9F76A
:1013A0003197AF01461B570B0C9451091F920F92B6
:1013B0000FB60F9211240BB60F922F933F934F93BA
:1013C0005F936F937F938F939F93AF93BF93EF93AD
:1013D000FF938BE893E00E94B002FF91EF91BF91E1
:1013E000AF919F918F917F916F915F914F913F91BD
:1013F0002F910F900BBE0F900FBE0F901F9018955E
:101400001F920F920FB60F9211240BB60F922F93CB
:101410008F939F93EF93FF93E0919B03F0919C0335
:101420008081E091A103F091A20382FD1DC0908113
:101430008091A4038F5F8F732091A503821741F0E1
:10144000E091A403F0E0E557FC4F958F8093A4034F
:10145000FF91EF919F918F912F910F900BBE0F9065
:101460000FBE0F901F9018958081F2CF1F920F92A0
:101470000FB60F9211242F933F938F939F93AF93A7
:10148000BF938091650390916603A0916703B0912B
:1014900068033091640323E0230F2D3758F501963C
:1014A000A11DB11D2093640380936503909366038F
:1014B000A0936703B09368038091690390916A03D6
:1014C000A0916B03B0916C030196A11DB11D809397
:1014D000690390936A03A0936B03B0936C03BF916D
:1014E000AF919F918F913F912F910F900FBE0F90D1
:1014F0001F90189526E8230F0296A11DB11DD2CF8B
:101500001F920F920FB60F9211240BB60F922F93CA
:101510003F934F935F936F937F938F939F93AF937B
:10152000BF93EF93FF93E0910E02F0910F02199594
:10153000FF91EF91BF91AF919F918F917F916F91AB
:101540005F914F913F912F910F900BBE0F900FBE67
:101550000F901F9018951F920F920FB60F921124A3
:101560000BB60F922F933F934F935F936F937F939D
:101570008F939F93AF93BF93EF93FF93E0910C02F0
:10158000F0910D021995FF91EF91BF91AF919F914D
:101590008F917F916F915F914F913F912F910F901C
:1015A0000BBE0F900FBE0F901F9018951F920F92B9
:1015B0000FB60F9211240BB60F922F933F934F93B8
:1015C0005F936F937F938F939F93AF93BF93EF93AB
:1015D000FF93E0910202F09103021995FF91EF91C0
:1015E000BF91AF919F918F917F916F915F914F913B
:1015F0003F912F910F900BBE0F900FBE0F901F9039
:1016000018951F920F920FB60F9211240BB60F92DE
:101610002F933F934F935F936F937F938F939F93FA
:10162000AF93BF93EF93FF93E0910002F09101021B
:101630001995FF91EF91BF91AF919F918F917F91FC
:101640006F915F914F913F912F910F900BBE0F9033
:101650000FBE0F901F9018951F920F920FB60F920A
:1016600011240BB60F922F933F934F935F936F9379
:101670007F938F939F93AF93BF93EF93FF93E091EB
:101680000A02F0910B021995FF91EF91BF91AF9172
:101690009F918F917F916F915F914F913F912F918A
:1016A0000F900BBE0F900FBE0F901F9018951F92BA
:1016B0000F920FB60F9211240BB60F922F933F93F8
:1016C0004F935F936F937F938F939F93AF93BF934A
:1016D000EF93FF93E0910802F09109021995FF91B1
:1016E000EF91BF91AF919F918F917F916F915F919A
:1016F0004F913F912F910F900BBE0F900FBE0F9007
:101700001F9018951F920F920FB60F9211240BB6CF
:101710000F922F933F934F935F936F937F938F938A
:101720009F93AF93BF93EF93FF93E0910602F091E5
:1017300007021995FF91EF91BF91AF919F918F9102
:101740007F916F915F914F913F912F910F900BBEC1
:101750000F900FBE0F901F9018951F920F920FB60B
:101760000F9211240BB60F922F933F934F935F93D9
:101770006F937F938F939F93AF93BF93EF93FF9359
:10178000E0910402F09105021995FF91EF91BF914C
:10179000AF919F918F917F916F915F914F913F9109
:1017A0002F910F900BBE0F900FBE0F901F901895AA
:1017B0001F920F920FB60F9211240BB60F922F9318
:1017C0003F934F935F936F937F938F939F93AF93C9
:1017D000BF93EF93FF93E0912002F09121021995BE
:1017E000FF91EF91BF91AF919F918F917F916F91F9
:1017F0005F914F913F912F910F900BBE0F900FBEB5
:101800000F901F901895EBE8F3E01382128288EE98
:1018100093E0A0E0B0E084839583A683B7838CE255
:1018200092E09183808385EC90E09587848784ECB7
:1018300090E09787868780EC90E0918B808B81EC9D
:1018400090E0938B828B82EC90E0958B848B86EC7E
:1018500090E0978B868B118E128E138E148EA0E7DC
:10186000B5E086E015968C93159786E116968C93D5
:101870001697E2E4F3E0E4911796EC931797ECEFF8
:10188000F2E0E4911896EC93189740E85EE360E08C
:1018900070E01D964D935D936D937C935097E8E5B2
:1018A000F5E0138212828EE392E0918380838CE0D4
:1018B00084838FEF85838BE0868385E0878384E054
:1018C000808783E0818787E0828713861486158668
:1018D0001686178681E00E94970680E091E0E8E591
:1018E000F4E0DF019C011D9221503040E1F768E4F3
:1018F00072E082E594E00E94C50965E572E08CE43F
:1019000094E00E94C50967E572E086E494E00E94D5
:10191000C50969E572E080E494E00E94C5096BE5C1
:1019200072E08AE394E00E94C50968E672E084E30D
:1019300094E00E94C50968E472E08EE294E00E949F
:10194000C50968E472E088E294E00C94C509CF937D
:10195000DF9300D000D0CDB7DEB7789484B5826035
:1019600084BD84B5816084BD85B5826085BD85B543
:10197000816085BD80916E00816080936E001092C1
:10198000810080918100826080938100809181003C
:1019900081608093810080918000816080938000CD
:1019A0008091B10084608093B1008091B00081602B
:1019B0008093B0008091910082608093910080912B
:1019C000910081608093910080919000816080936C
:1019D00090008091A10082608093A1008091A1007D
:1019E00081608093A1008091A00081608093A0001D
:1019F0008091210182608093210180912101816089
:101A00008093210180912001816080932001809149
:101A10007A00846080937A0080917A00826080935B
:101A20007A0080917A00816080937A0080917A00B8
:101A3000806880937A001092C10061E088E00E9483
:101A40002E0461E089E00E942E0461E08AE00E9499
:101A50002E0462E082E00E942E0462E08EE00E948A
:101A60002E0462E080E10E942E0462E08FE00E947A
:101A70002E04E0919B03F0919C0382E08083E0912F
:101A80009703F09198031082E0919903F0919A03E3
:101A90008FEC80831092A303E0919F03F091A00349
:101AA00086E08083E0919D03F0919E0380818061B8
:101AB0008083E0919D03F0919E0380818860808304
:101AC000E0919D03F0919E03808180688083E09186
:101AD0009D03F0919E0380818F7D808362E08091E1
:101AE00075050E942E040E94CE04605D7740810936
:101AF00091096093790570937A0580937B059093A3
:101B00007C0587E38093820582E00E94970681E747
:101B100092E00E94A10760ED77E080E090E00E94F3
:101B20009C040E94810680E18093810010928000D5
:101B300082E19AE7909387008093860084E1809306
:101B4000810084E392E090930102809300028091EF
:101B50006A008C7F826080936A00EC9A0E94CE04B7
:101B60006093710370937203809373039093740373
:101B70000E94CE0460937D0370937E0380937F0365
:101B8000909380030EE212E0FF24F39480918A0385
:101B9000882309F447C11093210200932002F09298
:101BA0006F0080918903813009F451C130F0823097
:101BB00009F45BC31092890335C10E94DA048823BB
:101BC00041F0809176058C3009F464C038F48B3094
:101BD000F1F060E070E080EC9FE741C08551823019
:101BE000C0F7E09072056E2D70E0762F66276627AD
:101BF0007F7780917305682B90E080E00E94041449
:101C00002DEC3CEC4CEC5DE30E9465145FC06091F0
:101C1000720570E090E080E00E9404144B015C01CA
:101C2000E0907305E7FE0AC0AC019B0160E070E044
:101C300080E89FEB0E9423154B015C016E2D6F70B5
:101C400070E090E080E00E9406142DEC3CEC4CEC3F
:101C50005DE30E946514A50194010E942415609320
:101C600085037093860380938703909388030E9473
:101C7000DA04882351F0809176058B3030F08D3076
:101C800048F18551823008F4D0C060E070E080EC0B
:101C90009FE73CC0E09072056E2D70E090E080E020
:101CA0000E9404144B015C01609173056F7070E039
:101CB00090E080E00E9406142DEC3CEC4CEC5DE3DF
:101CC0000E946514A50194010E942415E7FEC7CF68
:101CD0009058C5CF6091710570E090E080E00E945F
:101CE00006142DEC3CEC4CEC5DE30E9465144B01BA
:101CF0005C016091700570E090E080E00E94061445
:101D00009B01AC01C501B4010E94241560938103BD
:101D10007093820380938303909384030E94CE0484
:101D200080907D0390907E03A0907F03B09080030D
:101D3000681979098A099B09613D774081059105F8
:101D400008F470C00E94CE0460937D0370937E03FC
:101D500080937F03909380030E94810680E00E941D
:101D600089068EE792E00E94A10740918503509179
:101D70008603609187037091880321E088E595E0F0
:101D80000E94B90741E06FED88E595E00E942806C2
:101D900081E892E00E94A10740918503509186035B
:101DA0006091870370918803CE0101960E947C099F
:101DB000BE016F5F7F4F8EE294E00E94BC08CE01AF
:101DC00001960E943E0781E00E94890684E892E025
:101DD0000E94A10740918103509182036091830387
:101DE0007091840321E088E595E00E94B90787E8B7
:101DF00092E00E94A107409181035091820360917B
:101E0000830370918403CE0101960E947C09BE0178
:101E10006F5F7F4F88E294E00E94BC08CE0101967C
:101E20000E943E070E943F03B1CE60917005709101
:101E3000710576276727762790E080E00E940414DA
:101E40002DEC3CEC4CEC5DE30E9465145FCF8EE022
:101E50000E94D703892B09F022C10E9481068EE0DF
:101E60000E94D703892BF1F680E40E945F04BC0135
:101E7000990F880B990B0E9406144B015C0180920C
:101E8000790390927A03A0927B03B0927C038EE355
:101E90000E945F04BC01990F880B990B0E940614E5
:101EA0002B013C01409275035092760360927703B8
:101EB0007092780380E10E94D703892B09F07DC0DE
:101EC00020E030EC4FE754E4C301B2010E949015CA
:101ED00020E030E040EF52E40E94651420E030E062
:101EE00040E252E40E94231560931C0270931D028D
:101EF00080931E0290931F0220E030EC4FE754E4E1
:101F0000C501B4010E94901520E030E040EF52E49A
:101F10000E94651420E030E040E252E40E94231564
:101F2000609318027093190280931A0290931B0217
:101F30008AE892E00E94A60760911C0270911D023F
:101F400080911E0290911F020E94A7088DE992E0E5
:101F50000E94A607609118027091190280911A02DE
:101F600090911B020E94A70880E00E94890680EBE6
:101F700092E00E94A10740911C0250911D026091C5
:101F80001E0270911F0221E088E595E00E94B907CA
:101F900081E00E94890689EB92E00E94A1074091AE
:101FA00018025091190260911A0270911B0221E0EF
:101FB00088E595E00E94B90752CF8FE00E94D703D1
:101FC000892B09F04CCF20E030EC4FE754E4C301FB
:101FD000B2010E94901520E030E048EC52E40E94EB
:101FE0006514609314027093150280931602909307
:101FF000170220E030EC4FE754E4C501B4010E9421
:10200000901520E030E048EC52E40E9465146093A3
:10201000100270931102809312029093130282ECCB
:1020200092E00E94A60760911402709115028091BF
:102030001602909117020E94A70881ED92E00E947B
:10204000A607609110027091110280911202909186
:1020500013020E94A70880E00E94890680EE92E0A9
:102060000E94A1074091140250911502609116023E
:102070007091170221E088E595E00E94B90781E0A0
:102080000E94890689EE92E00E94A1074091100209
:1020900050911102609112027091130288CF0E9438
:1020A000CE048090710390907203A0907303B0905F
:1020B0007403681979098A099B09693B7B4081058A
:1020C000910508F4AFCE0E94CE0460937103709323
:1020D00072038093730390937403809085039090B0
:1020E0008603A0908703B090880320911C02309152
:1020F0001D0240911E0250911F02C501B4010E94B1
:10210000FF13881F8827881F80937003209118026F
:102110003091190240911A0250911B02C501B4017D
:102120000E94311618160CF09AC0F0926F0380903E
:10213000810390908203A0908303B0908403209148
:102140001402309115024091160250911702C501F8
:10215000B4010E94FF13880F880B8F2180936E03B8
:1021600020911002309111024091120250911302FD
:10217000C501B4010E94311618160CF073C0F0921C
:102180006D0380916D03811105C080916F0360E044
:102190008823E9F082EF92E00E94A6070E94810660
:1021A00080916F03882339F080E00E9489068DE0DA
:1021B00093E00E94A10780916D03882339F081E0AC
:1021C0000E9489068AE193E00E94A10761E08AE00B
:1021D0000E940004E0906E03E11005C0809170033E
:1021E00060E08823B9F00E948106EE2039F081E09A
:1021F0000E94890687E293E00E94A1078091700304
:10220000882339F080E00E94890685E393E00E94EC
:10221000A10761E089E00E9400046091850370914C
:10222000860380918703909188039B01AC010E94F3
:10223000361681110FC060918103709182038091E5
:102240008303909184039B01AC010E94361688237E
:1022500009F4E8CD83E493E00E94A607E3CD109251
:102260006F0365CF10926D038CCF50E040E068E4BF
:1022700072E082E594E00E9451098CE494E00E94AF
:102280001D098AE394E00E941D098EE294E00E94F9
:102290001D0980E494E00E941D0984E394E00E94FB
:1022A0001D0988E294E00E941D0980E494E00E94E8
:1022B0001D0986E494E00E941D0940915604509146
:1022C000570460915204709153048BE893E00E948C
:1022D0003C0266E472E08BE893E00E944607A2CDE0
:1022E00088E294E00E943E078EE294E00E943E075E
:1022F00084E394E00E943E078AE394E00E943E0754
:1023000080E494E00E943E0786E494E00E943E0749
:102310008CE494E00E943E0782E594E00C943E0732
:10232000EF920F931F93CF93DF93E80134E047FDC3
:1023300034E1042E000C550B57FF03C05195419515
:102340005109E32E022F242FAE010E94AE11CE01BF
:10235000DF91CF911F910F91EF9008958F929F92EF
:10236000AF92BF92CF92DF92EF92FF920F931F93A3
:10237000CF93DF9300D000D000D0CDB7DEB76A0195
:10238000F22EB02E102FFBE3AF2EA01608F41BE3A5
:102390001F5F012F27E0AE014F5F5F4F0E942713A1
:1023A000BC018981982F9970913009F44EC09BE24D
:1023B000E1FC04C09E2D9170E0FC49C05E2D50717F
:1023C000E82FE87083FF55C084E0911101C083E0DD
:1023D000EF2DE81B8F1508F0E0E0D6018E2F20E2EC
:1023E0005523C9F1992329F0D6019C93C601019682
:1023F0006C0196012D5F3F4FE2FE33C08EE4D601A3
:102400008C9391E411969C93119712968C93D90119
:102410008E2F90E281112AC0E20FF32FF11D10825E
:102420008EEF9FEF29960FB6F894DEBF0FBECDBF9B
:10243000DF91CF911F910F91FF90EF90DF90CF90A0
:10244000BF90AF909F908F9008959DE2B7CF90E29C
:10245000B5CF2D9381508111FCCFCE0ED11CE0E081
:10246000C1CF8EE6D6018C9391E6CCCF9D9381505F
:10247000D1CF482F447082FF3DC084E0911101C04C
:1024800083E08F1510F4EF2DE81BD6018E2F20E28C
:10249000552309F1992329F0D6019C93C601019691
:1024A0006C0196012D5F3F4FE2FE1BC089E4D6010F
:1024B0008C938EE411968C93119786E412968C93EC
:1024C000D9018E2F90E2882309F4A6CF9D938150E5
:1024D000FACF2D9381508111FCCFCE0ED11CE0E0BC
:1024E000D9CF89E6D6018C938EE611968C931197FD
:1024F00086E6E4CF9B0177FF02C030E020E0A1E058
:10250000B0E0911102C0B0E0A0E0F9013196AE0F49
:10251000BF1F8B2C912CBB2009F461C05401EFEF3D
:10252000AE1ABE0AAA0DBB1DFA161B0619F014F04E
:102530004F2D4A1B511188C0E3FC59C07601A42FCE
:10254000B0E2A1114FC0C40ED11C992309F45BC0A5
:1025500040E0D6011196F60190836D01552309F4F0
:1025600048C0012F060F9A81582F507184FF03C075
:10257000913309F4015010160CF047C0093008F0EF
:1025800008E0EEE2FE2E5B01A01AB10885019194ED
:10259000819491082F3F320729F4D601FC92F6016D
:1025A00031966F016217730794F1021713077CF5D8
:1025B000DB01A21BB30BAA24A394B12CAC0EBD1E4D
:1025C000AA0DBB1D11968C9121503109D60111968F
:1025D00028153905F4F0F60180836D01DBCFB12CAD
:1025E000A12CA0CFF701B1937F01A150AACF9111E7
:1025F000B0CFD601942F50E302C05D93915091115A
:10260000FCCFC40ED11C40E0ACCF01E0BACF80E3D8
:10261000DBCF6217730731F4963388F4953311F4E6
:10262000552369F0F6018083FD01842F90E281112A
:1026300008C0A40FB11D1C9290E080E0F3CE81E3AE
:10264000F1CF91938150F3CF911183CF8ACF28306E
:1026500008F027E03327DA01990F311D87FD9160DB
:1026600000966105710539F432602E5F3D9330E3C9
:102670002A95E1F708959F3F30F080387105610594
:1026800009F03C5F3C5F3D93913008F08068911DFC
:10269000DF93CF931F930F93FF92EF92192F987FA1
:1026A0009695E92F96959695E90FFF27EE53FE4FE5
:1026B00099273327EE24FF24A701E701059008940A
:1026C000079428F4360FE71EF81E491F511D660FA8
:1026D000771F881F991F0694A1F70590079428F487
:1026E000E70EF81E491F561FC11D770F881F991F3F
:1026F000661F0694A1F70590079428F4F80E491F69
:10270000561FC71FD11D880F991F661F771F06947C
:10271000A1F70590079420F4490F561FC71FD81F33
:10272000990F661F771F881F0694A9F7849110954B
:10273000177041F0D695C79557954795F794E7944C
:102740001A95C1F7E8E6F1E0689415901591359176
:102750006591959105907FE27395E118F10A430B1D
:10276000560BC90BD009C0F7E10CF11E431F561FD1
:10277000C91FD01D7EF4703311F48A95E6CFE8941A
:10278000015030F0080F0AF40027021708F4202F38
:102790002395022F7A3328F079E37D932A95E9F780
:1027A00010C07D932A9589F606949795679537957D
:1027B00017951794E118F10A430B560BC90BD00972
:1027C00098F023957E9173957A3308F070E37C93AB
:1027D0002013B8F77E9170617D9330F0839571E39B
:1027E0007D9370E32A95E1F71124EF90FF900F910C
:1027F0001F91CF91DF91992787FD909508950E94B1
:10280000411408F481E00895E89409C097FB3EF470
:1028100090958095709561957F4F8F4F9F4F99232D
:10282000A9F0F92F96E9BB279395F69587957795AB
:102830006795B795F111F8CFFAF4BB0F11F460FF6B
:102840001BC06F5F7F4F8F4F9F4F16C0882311F0C3
:1028500096E911C0772321F09EE8872F762F05C0D7
:10286000662371F096E8862F70E060E02AF09A9572
:10287000660F771F881FDAF7880F9695879597F967
:102880000895990F0008550FAA0BE0E8FEEF161601
:102890001706E807F907C0F012161306E407F50754
:1028A00098F0621B730B840B950B39F40A2661F0C8
:1028B000232B242B252B21F408950A2609F4A1406B
:1028C000A6958FEF811D811D08950E9478140C94A8
:1028D000E9140E94DB1438F00E94E21420F09523E2
:1028E00011F00C94D2140C94D81411240C941D15CE
:1028F0000E94FA1470F3959FC1F3950F50E0551F95
:10290000629FF001729FBB27F00DB11D639FAA2744
:10291000F00DB11DAA1F649F6627B00DA11D661F93
:10292000829F2227B00DA11D621F739FB00DA11DB4
:10293000621F839FA00D611D221F749F3327A00D6E
:10294000611D231F849F600D211D822F762F6A2F0A
:1029500011249F5750409AF0F1F088234AF0EE0F6F
:10296000FF1FBB1F661F771F881F91505040A9F79C
:102970009E3F510580F00C94D2140C941D155F3FBE
:10298000E4F3983ED4F3869577956795B795F795D8
:10299000E7959F5FC1F7FE2B880F911D9695879550
:1029A00097F9089597F99F6780E870E060E00895CF
:1029B0009FEF80EC089500240A9416161706180657
:1029C0000906089500240A94121613061406050633
:1029D0000895092E0394000C11F4882352F0BB0FC4
:1029E00040F4BF2B11F460FF04C06F5F7F4F8F4F27
:1029F0009F4F089557FD9058440F551F59F05F3F62
:102A000071F04795880F97FB991F61F09F3F79F010
:102A100087950895121613061406551FF2CF469592
:102A2000F1DF08C0161617061806991FF1CF869514
:102A30007105610508940895E894BB2766277727F8
:102A4000CB0197F908955058BB27AA270E943B1540
:102A50000C94E9140E94DB1438F00E94E21420F078
:102A600039F49F3F19F426F40C94D8140EF4E09531
:102A7000E7FB0C94D214E92F0E94FA1458F3BA170A
:102A8000620773078407950720F079F4A6F50C9484
:102A90001C150EF4E0950B2EBA2FA02D0B01B901D9
:102AA00090010C01CA01A0011124FF27591B99F0C4
:102AB000593F50F4503E68F11A16F040A22F232FD0
:102AC000342F4427585FF3CF469537952795A79520
:102AD000F0405395C9F77EF41F16BA0B620B730BC7
:102AE000840BBAF09150A1F0FF0FBB1F661F771F38
:102AF000881FC2F70EC0BA0F621F731F841F48F4ED
:102B0000879577956795B795F7959E3F08F0B0CF75
:102B10009395880F08F09927EE0F9795879508955C
:102B20000E94A4150C94E9140E94E21458F00E942B
:102B3000DB1440F029F45F3F29F00C94D2145111BA
:102B40000C941D150C94D8140E94FA1468F3992360
:102B5000B1F3552391F3951B550BBB27AA27621799
:102B60007307840738F09F5F5F4F220F331F441FA6
:102B7000AA1FA9F335D00E2E3AF0E0E832D09150DA
:102B80005040E695001CCAF72BD0FE2F29D0660FC7
:102B9000771F881FBB1F261737074807AB07B0E80A
:102BA00009F0BB0B802DBF01FF2793585F4F3AF010
:102BB0009E3F510578F00C94D2140C941D155F3F84
:102BC000E4F3983ED4F3869577956795B795F79596
:102BD0009F5FC9F7880F911D9695879597F908957E
:102BE000E1E0660F771F881FBB1F6217730784071A
:102BF000BA0720F0621B730B840BBA0BEE1F88F729
:102C0000E09508950E94021588F09F5798F0B92F1B
:102C10009927B751B0F0E1F0660F771F881F991F11
:102C20001AF0BA95C9F714C0B13091F00E941C1582
:102C3000B1E008950C941C15672F782F8827B85F92
:102C400039F0B93FCCF3869577956795B395D9F769
:102C50003EF490958095709561957F4F8F4F9F4F73
:102C600008950E94411408F48FEF08950E944114C2
:102C7000880B990B0895A1E21A2EAA1BBB1BFD011C
:102C80000DC0AA1FBB1FEE1FFF1FA217B307E4074B
:102C9000F50720F0A21BB30BE40BF50B661F771FA3
:102CA000881F991F1A9469F7609570958095909583
:102CB0009B01AC01BD01CF010895EE0FFF1F881FDE
:102CC0008BBF0790F691E02D19940F931F93CF932C
:102CD000DF938230910510F482E090E0E091850569
:102CE000F091860530E020E0B0E0A0E0309799F464
:102CF0002115310509F44AC0281B390B2430310550
:102D0000D8F58A819B816115710589F1FB01938357
:102D10008283FE0111C040815181028113814817D5
:102D20005907E0F04817590799F4109761F0129687
:102D30000C93129713961C933296CF01DF91CF918B
:102D40001F910F9108950093850510938605F4CF88
:102D50002115310551F04217530738F0A901DB0165
:102D60009A01BD01DF01F801C1CFEF01F9CF9093C6
:102D7000860580938505CDCFFE01E20FF31F819379
:102D800091932250310939832883D7CF209183052D
:102D900030918405232B41F42091240230912502A7
:102DA00030938405209383052091220230912302E1
:102DB0002115310541F42DB73EB7409126025091BF
:102DC0002702241B350BE0918305F0918405E2175F
:102DD000F307A0F42E1B3F0B2817390778F0AC013E
:102DE0004E5F5F4F2417350748F04E0F5F1F50931B
:102DF000840540938305819391939FCFF0E0E0E0B9
:102E00009CCFCF93DF930097E9F0FC0132971382B8
:102E10001282A0918505B0918605ED0130E020E099
:102E20001097A1F420813181820F931F2091830597
:102E3000309184052817390709F061C0F0938405A3
:102E4000E0938305DF91CF910895EA01CE17DF0764
:102E5000E8F54A815B819E0141155105B1F7E90111
:102E6000FB83EA8349915991C40FD51FEC17FD07E5
:102E700061F4808191810296840F951FE901998305
:102E80008883828193819B838A83F0E0E0E01296BD
:102E90008D919C9113970097B9F52D913C911197C5
:102EA000CD010296820F931F2091830530918405F6
:102EB0002817390739F6309751F510928605109288
:102EC0008505B0938405A0938305BCCFD383C283CB
:102ED00040815181840F951FC817D90761F44E5F57
:102EE0005F4F88819981480F591F518340838A81A0
:102EF0009B81938382832115310509F0B0CFF09334
:102F00008605E09385059ECFFD01DC01C0CF1382CD
:102F10001282D7CF4F925F926F927F928F929F9241
:102F2000AF92BF92CF92DF92EF92FF920F931F93D7
:102F3000CF93DF938C01009799F4CB01DF91CF9170
:102F40001F910F91FF90EF90DF90CF90BF90AF90C7
:102F50009F908F907F906F905F904F900C9465162C
:102F6000FC01E60FF71F9C0122503109E217F3071D
:102F700008F4AEC0D901CD91DC911197C617D707DF
:102F800020F1C530D10578F0CE0104978617970758
:102F900050F0C61BD70B2297C193D1936D937C93AE
:102FA000CF010E940117C801DF91CF911F910F91AE
:102FB000FF90EF90DF90CF90BF90AF909F908F9059
:102FC0007F906F905F904F9008955B01AC1ABD0A9F
:102FD0004C018C0E9D1EA0918505B0918605512C4B
:102FE000412CF12CE12C109731F5809183059091C3
:102FF00084058815990509F05CC04616570608F047
:1030000058C08091220290912302009741F48DB71D
:103010009EB74091260250912702841B950BE8171A
:10302000F90708F055C0F0938405E0938305F90192
:1030300071836083B8CF8D919C91119712966C909B
:10304000129713967C901397A815B90559F56C0142
:1030500042E0C40ED11CCA14DB0420F1AC014A19B1
:103060005B09DA011296159780F0628273825183B0
:103070004083D9016D937C93E114F10471F0D70181
:103080001396FC93EE9312978ECF22968C0F9D1F72
:10309000F90191838083F301EFCFF0938605E093EC
:1030A000850581CF4816590608F42C017D01D3010E
:1030B0009ACFCB010E9465167C01009749F0AE01C2
:1030C000B8010E946B18C8010E94011787016BCFDD
:1030D00010E000E068CFFB01DC0102C001900D921E
:1030E00041505040D8F70895FB01DC0101900D924A
:1030F0000020E1F7089511E0C2ECD1E000E006C045
:10310000802FFE010E945D162196011DC33CD10750
:0A31100080E00807A9F7F894FFCF4C
:10311A00E005E005E005E005E005E005E005E0057D
:10312A000000B4420000404100008C4200002041EF
:10313A00E10500008705800000000000D2023C0281
:10314A0069021F039A0278028C0200000000380705
:10315A003C02E2053B020D0A006E616E00696E6672
:10316A00006F7666003C003E003B0054656D70655A
:10317A007261747572613A00556D69646164653A89
:10318A0000496E696369616E646F2E2E2E00543A8F
:10319A0000432000553A0025200074656D70657261
:1031AA006174757261206D696E696D610074656D17
:1031BA007065726174757261206D6178696D610004
:1031CA0074656D704D696E3A0074656D704D617805
:1031DA003A00756D6964616465206D696E696D6137
:1031EA0000756D6964616465206D6178696D61005F
:1031FA00756D69644D696E3A00756D69644D6178E3
:10320A003A00416C65727461206465206C696D696D
:10321A00746520657863656469646F3A0021544572
:10322A004D50206163696D61210021554D4944204B
:10323A006163696D61210021554D494420616261D4
:10324A0069786F21002154454D5020616261697887
:10325A006F210046616C6861206E61206C6569743B
:10326A0075726120646F2073656E736F72204448B3
:04327A0054210000DB
:00000001FF
