:100000000C943B010C946C010C946C010C946C01ED
:100010000C946C010C946C010C946C010C946C01AC
:100020000C946C010C946C010C946C010C946C019C
:100030000C946C010C946C010C946C010C946C018C
:100040000C946C010C946C010C946C010C946C017C
:100050000C946C010C946C010C946C010C941808B9
:100060000C946C010C94E2070C94B8070C946C018E
:100070000C946C010C946C010C946C010C946C014C
:100080000C946C010C946C010C946C010C946C013C
:100090000C946C010C946C010C946C010C946C012C
:1000A0000C946C010C946C010C946C010C946C011C
:1000B0000C946C010C946C010C946C010C946C010C
:1000C0000C946C010C946C010C946C010C946C01FC
:1000D0000C946C010C946C010C946C010C946C01EC
:1000E0000C946C010C94B2070C9404020C94290338
:1000F0000C943A030C9452030C9436030C94FD04B4
:100100000C9456030C9421030C944E030C9440035E
:100110000C9462080C9425030C9448030C9430034F
:100120000C94F6010C945C030C9444030C94A6010B
:100130000C942D030C94FE040C940F030C940A03EE
:100140000C94D3010C943C020C9460030C9489022F
:100150000C94E20100002100240027002A002D0059
:100160003000330001010000040107010A01000012
:100170002200250028002B002E003100340002014F
:100180000000050108010B0100000A0B02090C0D1B
:100190000E0807030401000000000000000000003A
:1001A000000000000000000000000000000000004F
:1001B000000000001211100000000000000000000C
:1001C000000000000000000000000000000000002F
:1001D00020002300260029002C002F0032000001FF
:1001E00000000301060109010505050507050808CA
:1001F0000808020202020A0A0808040404040101B1
:1002000001010101010103030303030303030407C5
:1002100007070C0C0C0C0C0C0C0C0202020206065C
:100220000606060606060B0B0B0B0B0B0B0B01024F
:1002300010202008081020401020408002010201F8
:1002400008040201010204081020408080402010B0
:100250000804020180040201804020100804020109
:100260000804020101020408102040800102040871
:1002700010204080620811241FBECFEFD1E2DEBF04
:10028000CDBF00E00CBF12E0A0E0B2E0EEEAFBE17F
:1002900000E00BBF02C007900D92AC3FB107D9F749
:1002A00023E0ACEFB2E001C01D92AD3CB207E1F734
:1002B00011E0CBE3D1E000E006C021970109802FD7
:1002C000FE010E94CD0DCA33D10780E00807A9F7CF
:1002D0000E94CC080C94D50D0C940000CF92DF92B4
:1002E000EF92FF92CF93DF93B091C103A0E0811111
:1002F000AB2F8091C20390E0880F991FAC0142534D
:100300005E4FC090C703D090C803E090C903F0903F
:10031000CA0330E020E0FA01C591D491E881B90127
:1003200090E080E0EB23EA130AC02F5F3F4F6C158B
:100330007D058E059F0578F36FEF7FEFCB01DF9191
:10034000CF91FF90EF90DF90CF900895AF92BF9242
:10035000CF92DF92EF92FF920F931F93CF93DF9391
:100360006C017B018B01040F151FEB015E01AE18C0
:10037000BF08C017D10759F06991D601ED91FC91E2
:100380000190F081E02DC6011995892B79F7C501FF
:10039000DF91CF911F910F91FF90EF90DF90CF9061
:1003A000BF90AF900895FC01538D448D252F30E010
:1003B000842F90E0821B930B541710F0CF96089572
:1003C00001970895FC01918D828D981761F0A28D9F
:1003D000AE0FBF2FB11D5D968C91928D9F5F9F7365
:1003E000928F90E008958FEF9FEF0895FC01918D1B
:1003F000828D981731F0828DE80FF11D858D90E088
:1004000008958FEF9FEF0895FC01918D228D892F24
:1004100090E0805C9F4F821B91098F73992708950C
:1004200085E093E00E94040221E0892B09F420E09A
:10043000822F0895FC01A48DA80FB92FB11DA35AD6
:10044000BF4F2C91848D90E001968F739927848FF4
:10045000A689B7892C93A089B1898C918370806417
:100460008C93938D848D981306C00288F389E02DB8
:1004700080818F7D80830895EF92FF920F931F9369
:10048000CF93DF93EC0181E0888F9B8D8C8D981347
:100490001AC0E889F989808185FF15C09FB7F89453
:1004A000EE89FF896083E889F9898081837080649F
:1004B00080839FBF81E090E0DF91CF911F910F91EA
:1004C000FF90EF900895F62E0B8D10E00F5F1F4FF9
:1004D0000F731127E02E8C8D8E110CC00FB607FC08
:1004E000FACFE889F989808185FFF5CFCE010E9496
:1004F0001A02F1CFEB8DEC0FFD2FF11DE35AFF4FE8
:10050000F0829FB7F8940B8FEA89FB898081806223
:10051000CFCFCF93DF93EC01888D8823B9F0AA89E0
:10052000BB89E889F9898C9185FD03C0808186FDAE
:100530000DC00FB607FCF7CF8C9185FFF2CF8081FD
:1005400085FFEDCFCE010E941A02E9CFDF91CF9156
:10055000089580E090E0892B29F00E94100281111B
:100560000E94000080E090E0892B49F080E090E05C
:10057000892B29F00E94000081110E94000080E078
:1005800090E0892B49F080E090E0892B29F00E94CF
:10059000000081110E94000080E090E0892B49F06A
:1005A00080E090E0892B29F00E94000081110C94DA
:1005B00000000895282F30E0F901E857FE4F94918C
:1005C000F901E25DFD4F449128513E4FF90124911C
:1005D000222309F435C0992311F191509231F8F496
:1005E000E92FF0E08827E850FD4F8F4F0C94CD0D98
:1005F00029032D030A03210325030F0330033603C8
:100600003A034003440348034E0352030F035603C7
:100610005C036003809180008F7780938000E22FDD
:10062000F0E0EE0FFF1FE259FE4FA591B4918FB796
:10063000F894EC91611148C040954E234C938FBFC4
:100640000895809180008F7DE8CF80918000877F22
:10065000E4CF84B58F7784BDE2CF84B58F7DFBCFA7
:100660008091B0008F778093B000D9CF8091B00097
:100670008F7DF9CF809190008F7780939000CFCFBE
:10068000809190008F7DF9CF80919000877FF5CF8A
:100690008091A0008F778093A000C1CF8091A000AF
:1006A0008F7DF9CF8091A000877FF5CF80912001C9
:1006B0008F7780932001B3CF809120018F7DF9CF78
:1006C00080912001877FF5CF4E2BB8CFCF93DF935A
:1006D00090E0FC01E25DFD4F249188519E4FFC01AA
:1006E00084918823D1F090E0880F991FFC01EC5A87
:1006F000FE4FA591B491FC01E259FE4FC591D491F2
:10070000623071F49FB7F8943C91822F80958323D7
:100710008C93E8812E2B28839FBFDF91CF91089582
:100720008FB7F894EC912E2B2C938FBFF6CF3FB759
:10073000F8948091FD029091FE02A091FF02B09189
:10074000000326B5A89B05C02F3F19F00196A11DF7
:10075000B11D3FBFBA2FA92F982F8827BC01CD010B
:10076000620F711D811D911D42E0660F771F881F6A
:10077000991F4A95D1F708958F929F92AF92BF9299
:10078000CF92DF92EF92FF924B015C010E949703A0
:100790006B017C010E9497036C197D098E099F09EA
:1007A000683E734081059105A8F321E0821A910803
:1007B000A108B10888EEC80E83E0D81EE11CF11C28
:1007C00081149104A104B10429F7FF90EF90DF9008
:1007D000CF90BF90AF909F908F900895CF92DF926F
:1007E000EF92FF920F931F93CF93DF93CDB7DEB7B6
:1007F000C054D1400FB6F894DEBF0FBECDBF2FB7A7
:10080000F8948091010390910203A0910303B091A9
:1008100004032FBF4091C3035091C4036091C503EB
:100820007091C6038C019D01041B150B260B370B21
:10083000B901A801403D57406105710590F48091D0
:10084000CB03C05CDE4F0FB6F894DEBF0FBECDBF4A
:10085000DF91CF911F910F91FF90EF90DF90CF909C
:1008600008958093C3039093C403A093C503B093EA
:10087000C6031092BE031092BD031092BC031092E7
:10088000BB031092BA0362E08091BF030E9466032B
:1008900061E070E080E090E00E94BC0361E0809144
:1008A000BF030E94660360E08091BF030E94DA02EA
:1008B0008091C0038551823020F58BE291E1019750
:1008C000F1F762E08091BF030E9466038091CC0340
:1008D00090E08230910538F0880F991F880F991F9A
:1008E00005970197F1F7F89480E00E946E016F3F41
:1008F0007F4F8F4F9F4F61F41092CB03789480E02D
:10090000A0CF64E170E080E090E00E94BC03D9CF0A
:1009100081E00E946E016F3F7F4F8F4F9F4F61F3C9
:100920008E010F5F1F4F6E018FEBC81A8EEFD80A32
:10093000780180E00E946E01F701608371838283F9
:10094000938381E00E946E01F7016483758386833F
:100950009783F8E0EF0EF11CEC14FD0451F7789446
:1009600030E020E0F801C080D180E280F380448153
:10097000558166817781FFEFCF16DF06EF06FF0610
:1009800031F04F3F8FEF58076807780719F410923E
:10099000CB03B5CFF90183E0F595E7958A95E1F7AB
:1009A000E654FC4F8081880FC416D506E606F7068C
:1009B00010F180832F5F3F4F085F1F4F28323105B2
:1009C00089F64091BE032091BA038091BB03280FA2
:1009D0003327331F8091BC03280F311D8091BD0345
:1009E000820F932F911D99274817190681F681E0F0
:1009F0008093CB0326CF8160DCCF089590E080E028
:100A00000895FB0101900020E9F73197AF01461BE3
:100A1000570BDC01ED91FC910280F381E02D1994DC
:100A20008F929F92AF92BF92EF92FF920F931F937C
:100A3000CF93DF93CDB7DEB7A1970FB6F894DEBFA3
:100A40000FBECDBF7C01FA01CB0119A2223008F400
:100A50002AE08E010F5D1F4F822E912CB12CA12C0C
:100A6000BF01A50194010E94AB0DF901CA016A30D2
:100A70000CF5605DD8016E938D01232B242B252B63
:100A800079F790E080E0109721F0BD01C7010E9446
:100A90000105A1960FB6F894DEBF0FBECDBFDF9162
:100AA000CF911F910F91FF90EF90BF90AF909F90CB
:100AB0008F900895695CDECFCF93DF93BC0185E012
:100AC00093E00E940105EC016EE172E085E093E0A5
:100AD0000E9401058C0F9D1FDF91CF9108950C940A
:100AE00001052F923F924F925F926F927F928F9269
:100AF0009F92AF92BF92CF92DF92EF92FF921F939D
:100B0000CF93DF93EC016A017B01722EAB0196015A
:100B1000CB01B6010E94A60D61E272E0811126C0F0
:100B200046015701E894B7F82FEF3FEF4FE75FE733
:100B3000C501B4010E94A60D81110CC02FEF3FEF3B
:100B40004FE75FE7C501B4010E94DC0B65E272E08C
:100B5000181664F02FEF3FEF4FE75FE4C701B601CF
:100B60000E94340D1816B4F469E272E0CE01DF91F0
:100B7000CF911F91FF90EF90DF90CF90BF90AF90FB
:100B80009F908F907F906F905F904F903F902F90AD
:100B90000C9401052FEF3FEF4FE75FECC701B60163
:100BA0000E94DC0B87FDE0CF20E030E0A901C70107
:100BB000B6010E94DC0B312C212C87FF0DC0E8818F
:100BC000F9810190F081E02D6DE2CE0119951C01B3
:100BD000F7FAF094F7F8F09410E060E070E080E04D
:100BE0009FE3711641F020E030E040E251E40E94C2
:100BF000E10B1F5FF6CFA70196010E94700B2B013E
:100C00003C010E94530C4B015C012AE0BC01A40191
:100C1000CE010E9410057C01E20CF31C1123E1F1CE
:100C2000C501B4010E94820C9B01AC01C301B20159
:100C30000E946F0B4B015C01E881F9810190F0810A
:100C4000E02D6EE2CE011995E80EF91E115020F14B
:100C500020E030E040E251E4C501B4010E94390DCA
:100C60002B013C010E94530C4B01B12CA12C2AE01A
:100C7000B501A401CE010E941005E80EF91EC501C0
:100C8000B4010E94820C9B01AC01C301B2010E941D
:100C90006F0B4B015C01DACFC701DF91CF911F9140
:100CA000FF90EF90DF90CF90BF90AF909F908F908C
:100CB0007F906F905F904F903F902F900895CF93CB
:100CC000DF93EC0160E08E810E94DA0261E08E81A8
:100CD0000E94DA0260E08E810E94DA028BE891E0E5
:100CE0000197F1F7DF91CF910895CF92DF92EF92C4
:100CF000FF920F931F93CF93DF936C017C0187E0EA
:100D0000E80EF11CD0E0C0E0062F10E0B8010C2E78
:100D100002C0759567950A94E2F76170F7018191B9
:100D20007F010E94DA022196C430D10579F7C6010D
:100D3000DF91CF911F910F91FF90EF90DF90CF90B7
:100D40000C945F06CF92DF92EF92FF920F931F9366
:100D5000CF93DF93EC01F62E642F8C810E94DA0290
:100D60008D818F3F19F060E00E94DA020F2D10E0B4
:100D70008F8584FF25C06E0187E0C80ED11CF12C41
:100D8000E12CB8010E2C02C0759567950A94E2F724
:100D90006170F60181916F010E94DA02FFEFEF1A94
:100DA000FF0A88E0E816F10461F7CE01DF91CF91E8
:100DB0001F910F91FF90EF90DF90CF900C945F0602
:100DC000B80184E0759567958A95E1F7CE010E9498
:100DD00075066F2DCE01DF91CF911F910F91FF907E
:100DE000EF90DF90CF900C94750640E0682F82EA78
:100DF00093E00C94A20681E00E94F5068BE39FE14C
:100E00000197F1F70895CF93DF93823029F4909101
:100E1000B10398609093B1038093B5031092B60329
:100E200080E48093B70380E18093B80380E58093EA
:100E3000B90361E08091A6030E9466038091A70335
:100E40008F3F19F061E00E94660361E08091A80382
:100E50000E946603C2EAD3E09E01225A3340809189
:100E6000B10384FD0BC084E090E021962817390778
:100E700044F461E08E810E946603EECF88E090E04A
:100E8000F4CF8BE39DE00197F1F760E08091A6033A
:100E90000E94DA0260E08091A8030E94DA02809149
:100EA000A7038F3F19F060E00E94DA028091B1033E
:100EB00084FD34C063E082EA93E00E947506CBE4CF
:100EC000D6E4CE010197F1F763E082EA93E00E9455
:100ED00075062197F1F763E082EA93E00E947506B8
:100EE00083E592E00197F1F762E082EA93E00E94E5
:100EF00075068091B10380620E94F50684E08093BC
:100F0000B2038CE00E94F5060E94FB0682E080930B
:100F1000B30386E0DF91CF910C94F50680620E94C6
:100F2000F5068BE496E40197F1F78091B1038062B6
:100F30000E94F50683E592E00197F1F78091B103F5
:100F400080620E94F506D5CF9091B503891710F005
:100F50008FEF890FE82FF0E0EE55FC4F8489806811
:100F60000C94F50641E00E94A20681E090E008950D
:100F70001F920F920FB60F9211240BB60F922F9360
:100F80003F934F935F936F937F938F939F93AF9311
:100F9000BF93EF93FF9385E093E00E941A02FF91C5
:100FA000EF91BF91AF919F918F917F916F915F91E1
:100FB0004F913F912F910F900BBE0F900FBE0F904E
:100FC0001F9018951F920F920FB60F9211240BB617
:100FD0000F922F938F939F93EF93FF93E0911503BD
:100FE000F09116038081E0911B03F0911C0382FDB8
:100FF0001DC0908180911E038F5F8F7320911F030E
:10100000821741F0E0911E03F0E0EB5FFC4F958FFB
:1010100080931E03FF91EF919F918F912F910F90DD
:101020000BBE0F900FBE0F901F9018958081F2CFCE
:101030001F920F920FB60F9211242F933F938F930D
:101040009F93AF93BF938091010390910203A0916E
:101050000303B09104033091FC0223E0230F2D37EA
:1010600058F50196A11DB11D2093FC028093010348
:1010700090930203A0930303B09304038091FD02B5
:101080009091FE02A091FF02B09100030196A11D74
:10109000B11D8093FD029093FE02A093FF02B093D6
:1010A0000003BF91AF919F918F913F912F910F902E
:1010B0000FBE0F901F90189526E8230F0296A11DD2
:1010C000B11DD2CFE5E0F3E01382128288EE93E007
:1010D000A0E0B0E084839583A683B78384E092E0A8
:1010E0009183808385EC90E09587848784EC90E001
:1010F0009787868780EC90E0918B808B81EC90E0E5
:10110000938B828B82EC90E0958B848B86EC90E0C5
:10111000978B868B118E128E138E148EAAEBB3E0F2
:1011200086E015968C93159786E116968C93169704
:10113000E4E3F2E0E4911796EC931797EEEEF1E01A
:10114000E4911896EC93189740E85EE360E070E055
:101150001D964D935D936D937C935097E2EAF3E077
:101160001382128286E192E0918380838CE08483F3
:101170008FEF85838BE0868385E0878384E080879B
:1011800083E0818782E0828713861486158616861F
:10119000178681E00C940307789484B5826084BD3F
:1011A00084B5816084BD85B5826085BD85B581606B
:1011B00085BD80916E00816080936E0010928100E9
:1011C00080918100826080938100809181008160A4
:1011D0008093810080918000816080938000809165
:1011E000B10084608093B1008091B00081608093F1
:1011F000B000809191008260809391008091910075
:101200008160809391008091900081608093900034
:101210008091A10082608093A1008091A1008160F3
:101220008093A1008091A00081608093A0008091B4
:10123000210182608093210180912101816080934E
:1012400021018091200181608093200180917A00AA
:10125000846080937A0080917A00826080937A0023
:1012600080917A00816080937A0080917A00806812
:1012700080937A001092C10061E082E00E946603D0
:1012800061E083E00E94660361E084E00E946603FF
:1012900061E085E00E94660361E08BE00E946603E6
:1012A00061E08CE00E94660361E088E00E946603D2
:1012B00061E089E00E94660361E08AE00E946603C3
:1012C000E0911503F091160382E08083E091110311
:1012D000F09112031082E0911303F09114038FEC4C
:1012E000808310921D03E0911903F0911A0386E0A8
:1012F0008083E0911703F0911803808180618083DF
:10130000E0911703F0911803808188608083E09159
:101310001703F0911803808180688083E0911703A0
:10132000F091180380818F7D808362E08091BF03FC
:101330000E9466032FB7F8948091010390910203F5
:10134000A0910303B09104032FBF805D9740A109D2
:10135000B1098093C3039093C403A093C503B093D2
:10136000C60387E38093CC0382E00E9403076DE20B
:1013700072E082EA93E00E946F0560ED77E080E022
:1013800090E00E94BC030E94FB0668EE73E080E0E0
:1013900090E00E94BC030E94EE03882341F08091FC
:1013A000C0038C3009F462C048F48B3001F1C12CC9
:1013B000D12C90ECE92E9FE7F92E43C08551823065
:1013C000B0F7C091BC036C2F70E0762F66276627BC
:1013D0007F778091BD03682B90E080E00E94820CB3
:1013E0002DEC3CEC4CEC5DE30E94390D5BC0609150
:1013F000BC0370E090E080E00E94820C6B017C01F5
:10140000C091BD03C7FF0AC0AC019B0160E070E062
:1014100080E89FEB0E946F0B6B017C01CF706C2FFB
:1014200070E090E080E00E94840C2DEC3CEC4CECF1
:101430005DE30E94390DA70196010E94700B6B01BC
:101440007C010E94EE03882351F08091C0038B3011
:1014500030F08D3080F18551823008F4A4C0812CA9
:10146000912C80ECA82E8FE7B82E43C0C091BC030E
:101470006C2F70E090E080E00E94820C6B017C0198
:101480006091BD036F7070E090E080E00E94840C7A
:101490002DEC3CEC4CEC5DE30E94390DA70196016C
:1014A0000E94700B6B017C01C7FFCBCFF7FAF09461
:1014B000F7F8F094C6CF6091BB0370E090E080E055
:1014C0000E94840C2DEC3CEC4CEC5DE30E94390D49
:1014D0004B015C016091BA0370E090E080E00E94F3
:1014E000840C9B01AC01C501B4010E94700B4B013F
:1014F0005C016AE372E085E093E00E946F0522E000
:10150000B701A60185E093E00E94710567E472E0EF
:1015100085E093E00E946F0522E0B501A40185E01B
:1015200093E00E9471056EE172E085E093E00E9415
:1015300001050E94FB0620E030E040E251E4C701D3
:10154000B6010E94DC0B87FF40C083E592E00E9459
:101550005C0580E00E94A4076FE672E082EA93E0F7
:101560000E946F0520E030E040E451E4C501B40181
:101570000E94DC0B87FF56C08BEA92E00E945C055C
:1015800081E00E94A40763EC72E082EA93E00E948B
:101590006F0560E088E00E94DA0261E089E00E9465
:1015A000DA0260E07DC06091BA037091BB037627D8
:1015B0006727762790E080E00E94820C2DEC3CECBF
:1015C0004CEC5DE30E94390D92CF20E030E04CE816
:1015D00052E4C701B6010E94340D181654F48DE789
:1015E00092E00E945C0580E00E94A40768E972E036
:1015F000B5CF80E00E94A40765EA72E082EA93E03A
:101600000E946F0521E0B701A60182EA93E00E94E3
:10161000710541E06FED82EA93E00E94A20668EA5C
:1016200072E09CCF20E030E044EB52E4C501B4010D
:101630000E94340D1816D4F581ED92E00E945C05ED
:1016400081E00E94A40768EE72E082EA93E00E94C3
:101650006F0520E030E040E251E4C701B6010E948E
:10166000DC0B87FD96CF20E030E04CE852E4C70168
:10167000B6010E94340D181654F020E030E044EB1F
:1016800052E4C501B4010E94340D181614F560E04F
:1016900088E00E94DA0260E089E00E94DA0261E0FC
:1016A0008AE00E94DA020E94A9026FCE81E00E94C5
:1016B000A40765EF72E082EA93E00E946F0521E0E3
:1016C000B501A40182EA93E00E94710568EF72E01F
:1016D000BCCF61E088E00E94DA0260E05FCF505842
:1016E000BB27AA270E94870B0C94FA0C0E94EC0CD3
:1016F00038F00E94F30C20F039F49F3F19F426F4DF
:101700000C94E90C0EF4E095E7FB0C94E30CE92F44
:101710000E940B0D58F3BA176207730784079507E9
:1017200020F079F4A6F50C942D0D0EF4E0950B2E17
:10173000BA2FA02D0B01B90190010C01CA01A00123
:101740001124FF27591B99F0593F50F4503E68F17E
:101750001A16F040A22F232F342F4427585FF3CFBF
:10176000469537952795A795F0405395C9F77EF490
:101770001F16BA0B620B730B840BBAF09150A1F0D9
:10178000FF0FBB1F661F771F881FC2F70EC0BA0F5F
:10179000621F731F841F48F4879577956795B795E7
:1017A000F7959E3F08F0B0CF9395880F08F09927E2
:1017B000EE0F9795879508950E94BF0C08F481E07D
:1017C00008950E94F50B0C94FA0C0E94F30C58F04B
:1017D0000E94EC0C40F029F45F3F29F00C94E30CDC
:1017E00051110C942E0D0C94E90C0E940B0D68F312
:1017F0009923B1F3552391F3951B550BBB27AA27CA
:1018000062177307840738F09F5F5F4F220F331F03
:10181000441FAA1FA9F335D00E2E3AF0E0E832D0CB
:1018200091505040E695001CCAF72BD0FE2F29D0CE
:10183000660F771F881FBB1F261737074807AB07A0
:10184000B0E809F0BB0B802DBF01FF2793585F4F15
:101850003AF09E3F510578F00C94E30C0C942E0D59
:101860005F3FE4F3983ED4F3869577956795B795F7
:10187000F7959F5FC9F7880F911D9695879597F902
:101880000895E1E0660F771F881FBB1F621773077B
:101890008407BA0720F0621B730B840BBA0BEE1F90
:1018A00088F7E09508950E94130D88F09F5798F0EF
:1018B000B92F9927B751B0F0E1F0660F771F881F55
:1018C000991F1AF0BA95C9F714C0B13091F00E946F
:1018D0002D0DB1E008950C942D0D672F782F8827DA
:1018E000B85F39F0B93FCCF3869577956795B39596
:1018F000D9F73EF490958095709561957F4F8F4F05
:101900009F4F0895E89409C097FB3EF49095809509
:10191000709561957F4F8F4F9F4F9923A9F0F92FB5
:1019200096E9BB279395F695879577956795B79533
:10193000F111F8CFFAF4BB0F11F460FF1BC06F5F19
:101940007F4F8F4F9F4F16C0882311F096E911C02B
:10195000772321F09EE8872F762F05C0662371F04C
:1019600096E8862F70E060E02AF09A95660F771F60
:10197000881FDAF7880F9695879597F90895990F3C
:101980000008550FAA0BE0E8FEEF16161706E80749
:10199000F907C0F012161306E407F50798F0621B6A
:1019A000730B840B950B39F40A2661F0232B242B3F
:1019B000252B21F408950A2609F4A140A6958FEF5E
:1019C000811D811D089597F99F6780E870E060E0B0
:1019D00008959FEF80EC089500240A9416161706C8
:1019E00018060906089500240A9412161306140610
:1019F00005060895092E0394000C11F4882352F073
:101A0000BB0F40F4BF2B11F460FF04C06F5F7F4F2A
:101A10008F4F9F4F089557FD9058440F551F59F011
:101A20005F3F71F04795880F97FB991F61F09F3FCB
:101A300079F087950895121613061406551FF2CFF4
:101A40004695F1DF08C0161617061806991FF1CF44
:101A500086957105610508940895E894BB2766276B
:101A60007727CB0197F908950E94BF0C08F48FEFF8
:101A700008950E944C0D0C94FA0C0E94EC0C38F066
:101A80000E94F30C20F0952311F00C94E30C0C94BD
:101A9000E90C11240C942E0D0E940B0D70F3959FF0
:101AA000C1F3950F50E0551F629FF001729FBB2755
:101AB000F00DB11D639FAA27F00DB11DAA1F649FF1
:101AC0006627B00DA11D661F829F2227B00DA11DA4
:101AD000621F739FB00DA11D621F839FA00D611D2A
:101AE000221F749F3327A00D611D231F849F600D4B
:101AF000211D822F762F6A2F11249F5750409AF074
:101B0000F1F088234AF0EE0FFF1FBB1F661F771FFF
:101B1000881F91505040A9F79E3F510580F00C94CA
:101B2000E30C0C942E0D5F3FE4F3983ED4F38695BE
:101B300077956795B795F795E7959F5FC1F7FE2B6A
:101B4000880F911D9695879597F908950E94BF0C6F
:101B5000880B990B0895A1E21A2EAA1BBB1BFD014D
:101B60000DC0AA1FBB1FEE1FFF1FA217B307E4077C
:101B7000F50720F0A21BB30BE40BF50B661F771FD4
:101B8000881F991F1A9469F76095709580959095B4
:101B90009B01AC01BD01CF010895EE0FFF1F881F0F
:0E1BA0008BBF0790F691E02D1994F894FFCFBB
:101BAE00000000003C02A601D30189020402E201FA
:101BBE00F60100000000B207A601FE04FD040D0AA6
:101BCE00006E616E00696E66006F766600496E6922
:101BDE006369616E646F2E2E2E0054656D70657292
:101BEE0061747572613A00432C20556D69646164AD
:101BFE00653A0054656D706572617475726120612D
:101C0E00626169786F20646F20696465616C002180
:101C1E0054454D502061626169786F210054656DA5
:101C2E007065726174757261206163696D612064A3
:101C3E006F20696465616C002154454D50206163CD
:101C4E00696D612100543A00432000556D6964614D
:101C5E0064652061626169786F20646F20696465D4
:101C6E00616C0021554D49442061626169786F2194
:101C7E0000556D6964616465206163696D612064FE
:101C8E006F20696465616C0021554D494420616384
:0C1C9E00696D612100553A00252000000E
:00000001FF
