:100000000C94C3010C946A0B0C943F0B0C94140BCE
:100010000C94E90A0C94BE0A0C94930A0C94680A96
:100020000C943D0A0C94F4010C94F4010C94F4012A
:100030000C94F4010C94F4010C94F4010C94F4016C
:100040000C94F4010C94F4010C94F4010C94F4015C
:100050000C94950B0C94F4010C94F4010C94F3099A
:100060000C94F4010C94BD090C9493090C94F401C4
:100070000C94F4010C94F4010C94F4010C94F4012C
:100080000C94F4010C94F4010C94F4010C94F4011C
:100090000C94F4010C94F4010C94F4010C94F4010C
:1000A0000C94F4010C94F4010C94F4010C94F401FC
:1000B0000C94F4010C94F4010C94F4010C94F401EC
:1000C0000C94F4010C94F4010C94F4010C94F401DC
:1000D0000C94F4010C94F4010C94F4010C94F401CC
:1000E0000C94F4010C94B8050C943B020C94780227
:1000F0000C94D5100C94C5030C948C020C94C00B7A
:100100000C94CF030C94AD030C94C1030C94D20255
:100110000C942E020C94A9030C9434020C94B70393
:100120000C949A020C9469020C94CE030C94B303C1
:100130000C94BB030C9494030C948E030C94D30383
:100140000C94B9050C940F070C94C9030C94B705D3
:100150000C94A0030C94A3030C949C030C941F0315
:100160000C943C020C94980300407A10F35A00A0BF
:10017000724E18090010A5D4E80000E87648170070
:1001800000E40B54020000CA9A3B000000E1F505B0
:10019000000080969800000040420F000000A086FA
:1001A00001000000102700000000E803000000002C
:1001B0006400000000000A000000000001000000D0
:1001C00000002C76D888DC674F0823DFC1DFAE59EA
:1001D000E1B1B796E5E3E453C63AE651997696E87D
:1001E000E6C28426EB898C9B62ED407C6FFCEFBC01
:1001F0009C9F40F2BAA56FA5F490055A2AF75C932C
:100200006B6CF9676DC11BFCE0E40D47FEF520E661
:10021000B500D0ED902E0300943577050080841E44
:10022000080000204E0A000000C80C333333330F9F
:10023000986E12831141EF8D2114893BE65516CF3C
:10024000FEE6DB18D1844B381BF77C1D901DA4BB48
:10025000E424203284725E228100C9F124ECA1E5FD
:100260003D2700002100240027002A002D00300037
:10027000330001010000040107010A01000022000F
:10028000250028002B002E00310034000201000060
:10029000050108010B0100000A0B02090C0D0E08F4
:1002A000070304010000000000000000000000003F
:1002B000000000000000000000000000000000003E
:1002C00000001211100000000000000000000000FB
:1002D00000000000000000000000000000002000FE
:1002E0002300260029002C002F003200000100000E
:1002F00003010601090105050505070508080808A9
:10030000020202020A0A08080404040401010101AD
:1003100001010101030303030303030304070707A8
:100320000C0C0C0C0C0C0C0C02020202060606064D
:10033000060606060B0B0B0B0B0B0B0B010210201A
:10034000200808102040102040800201020108040B
:10035000020101020408102040808040201008049F
:1003600002018004020180402010080402010804F8
:10037000020101020408102040800102040810203C
:100380004080C00BD51011241FBECFEFD1E2DEBFDD
:10039000CDBF00E00CBF25E0AEE1B3E001C01D928F
:1003A000A933B207E1F713E0A0E0B2E0E4EEFFE228
:1003B00000E00BBF02C007900D92AE31B107D9F734
:1003C00011E0C2ECD1E000E006C021970109802FC6
:1003D000FE010E94C215C13CD10780E00807A9F7C1
:1003E0000E94640C0C94E0170C940000CF92DF92F2
:1003F000EF92FF92CF93DF93B0912905A0E0811196
:10040000AB2F80912A0590E0880F991FAC014452D0
:100410005D4FC0902F05D0903005E0903105F090F1
:10042000320530E020E0FA01C591D491E881B901AC
:1004300090E080E0EB23EA130AC02F5F3F4F6C157A
:100440007D058E059F0578F36FEF7FEFCB01DF9180
:10045000CF91FF90EF90DF90CF90089580913B0374
:100460008F5F80933B03089580913C0391E089273F
:1004700080933C0308950895AF92BF92CF92DF928C
:10048000EF92FF920F931F93CF93DF936C017B0149
:100490008B01040F151FEB015E01AE18BF08C017DA
:1004A000D10759F06991D601ED91FC910190F0814D
:1004B000E02DC6011995892B79F7C501DF91CF9100
:1004C0001F910F91FF90EF90DF90CF90BF90AF9072
:1004D0000895FC01538D448D252F30E0842F90E04A
:1004E000821B930B541710F0CF960895019708952F
:1004F000FC01918D828D981761F0A28DAE0FBF2FF8
:10050000B11D5D968C91928D9F5F9F73928F90E04D
:1005100008958FEF9FEF0895FC01918D828D9817BC
:1005200031F0828DE80FF11D858D90E008958FEFF9
:100530009FEF0895FC01918D228D892F90E0805CC2
:100540009F4F821B91098F73992708958DE393E044
:100550000E949A0221E0892B09F420E0822F08955D
:10056000FC01A48DA80FB92FB11DA35ABF4F2C9128
:10057000848D90E001968F739927848FA689B7891F
:100580002C93A089B1898C91837080648C93938D16
:10059000848D981306C00288F389E02D80818F7DB9
:1005A00080830895EF92FF920F931F93CF93DF9371
:1005B000EC0181E0888F9B8D8C8D98131AC0E8899F
:1005C000F989808185FF15C09FB7F894EE89FF896E
:1005D0006083E889F98980818370806480839FBF0C
:1005E00081E090E0DF91CF911F910F91FF90EF900C
:1005F0000895F62E0B8D10E00F5F1F4F0F7311271C
:10060000E02E8C8D8E110CC00FB607FCFACFE88956
:10061000F989808185FFF5CFCE010E94B002F1CF2C
:10062000EB8DEC0FFD2FF11DE35AFF4FF0829FB7CA
:10063000F8940B8FEA89FB8980818062CFCFCF93BA
:10064000DF93EC01888D8823B9F0AA89BB89E889FA
:10065000F9898C9185FD03C0808186FD0DC00FB6A0
:1006600007FCF7CF8C9185FFF2CF808185FFEDCF1E
:10067000CE010E94B002E9CFDF91CF91089580E0D2
:1006800090E0892B29F00E94A60281110E940000AF
:1006900080E090E0892B49F080E090E0892B29F000
:1006A0000E94000081110E94000080E090E0892BF0
:1006B00049F080E090E0892B29F00E940000811130
:1006C0000E94000080E090E0892B49F080E090E0FB
:1006D000892B29F00E94000081110C9400000895DC
:1006E0008150823108F05AC0E82FF0E08827E458A2
:1006F000FC4F8F4F0C94C2159C03A0038E039403F0
:100700009803CE03A303A903AD03B303B703BB034D
:10071000C103C503CE03C903CF03D3038091800077
:100720008F77809380000895809180008F7DF9CF2E
:1007300080918000877FF5CF84B58F7784BD089541
:1007400084B58F7DFBCF8091B0008F778093B00010
:1007500008958091B0008F7DF9CF809190008F77C0
:10076000809390000895809190008F7DF9CF8091C3
:100770009000877FF5CF8091A0008F778093A000B5
:1007800008958091A0008F7DF9CF8091A000877F90
:10079000F5CF809120018F7780932001089580917B
:1007A00020018F7DF9CF80912001877FF5CF1F93A6
:1007B000CF93DF93282F30E0F901EA56FD4F849163
:1007C000F901E45CFC4FD491F901EA50FD4FC4916A
:1007D000CC23A9F0162F81110E947003EC2FF0E0BA
:1007E000EE0FFF1FE458FD4FA591B4918FB7F89419
:1007F000EC91111108C0D095DE23DC938FBFDF91FF
:10080000CF911F910895DE2BF8CFCF93DF9390E027
:10081000FC01E45CFC4F24918A509D4FFC018491C3
:100820008823D1F090E0880F991FFC01EE59FD4F0D
:10083000A591B491FC01E458FD4FC591D49162306B
:1008400071F49FB7F8943C91822F809583238C9309
:10085000E8812E2B28839FBFDF91CF9108958FB71A
:10086000F894EC912E2B2C938FBFF6CF90917B00B8
:10087000986090937B0086538770806480937C009F
:1008800080917A00806480937A0080917A0086FD5E
:10089000FCCF809178009091790008953FB7F8944B
:1008A0008091230390912403A0912503B091260306
:1008B00026B5A89B05C02F3F19F00196A11DB11DBB
:1008C0003FBFBA2FA92F982F8827BC01CD01620FF7
:1008D000711D811D911D42E0660F771F881F991FB2
:1008E0004A95D1F708958F929F92AF92BF92CF927F
:1008F000DF92EF92FF924B015C010E944E046B016C
:100900007C010E944E046C197D098E099F09683E86
:10091000734081059105A8F321E0821A9108A1088E
:10092000B10888EEC80E83E0D81EE11CF11C8114CA
:100930009104A104B10429F7FF90EF90DF90CF90CC
:10094000BF90AF909F908F9008952FB7F8946091CB
:100950001F037091200380912103909122032FBFE8
:100960000895CF92DF92EF92FF920F931F93CF9350
:10097000DF93CDB7DEB7C054D1400FB6F894DEBFD9
:100980000FBECDBF0E94A50400912B0510912C0530
:1009900020912D0530912E056B017C01C01AD10AE2
:1009A000E20AF30A97018601003D1740210531054F
:1009B00090F480913305C05CDE4F0FB6F894DEBF33
:1009C0000FBECDBFDF91CF911F910F91FF90EF90A0
:1009D000DF90CF90089560932B0570932C05809342
:1009E0002D0590932E051092260510922505109244
:1009F0002405109223051092220562E080912705BC
:100A00000E94050461E070E080E090E00E947304C1
:100A100061E0809127050E94050460E08091270530
:100A20000E94D703809128058551823020F58BE202
:100A300091E10197F1F762E0809127050E9405049A
:100A40008091340590E08230910538F0880F991F2D
:100A5000880F991F05970197F1F7F89480E00E949D
:100A6000F6016F3F7F4F8F4F9F4F61F41092330518
:100A7000789480E0A0CF64E170E080E090E00E9494
:100A80007304D9CF81E00E94F6016F3F7F4F8F4FF3
:100A90009F4F61F38E010F5F1F4F6E012FEBC21A44
:100AA0002EEFD20A780180E00E94F601F701608300
:100AB00071838283938381E00E94F601F70164834E
:100AC000758386839783F8E0EF0EF11CEC14FD0428
:100AD00051F7789430E020E0F801C080D180E280C6
:100AE000F3804481558166817781FFEFCF16DF0661
:100AF000EF06FF0631F04F3F8FEF58076807780782
:100B000019F410923305B5CFF90183E0F595E79517
:100B10008A95E1F7EE5DFA4F8081880FC416D506FD
:100B2000E606F70610F180832F5F3F4F085F1F4FE7
:100B30002832310589F640912605209122058091C1
:100B40002305280F3327331F80912405280F311DDB
:100B500080912505820F932F911D9927481719061B
:100B600081F681E08093330526CF8160DCCF089544
:100B7000089590E080E00895CF93DF93EC0160E06A
:100B80008E810E94D70361E08E810E94D70360E0CE
:100B90008E810E94D7038BE891E00197F1F7DF91F6
:100BA000CF910895CF92DF92EF92FF920F931F9310
:100BB000CF93DF936C017C0187E0E80EF11CD0E05D
:100BC000C0E0062F10E0B8010C2E02C075956795A5
:100BD0000A94E2F76170F70181917F010E94D703C7
:100BE0002196C430D10579F7C601DF91CF911F91CD
:100BF0000F91FF90EF90DF90CF900C94BC05CF92B7
:100C0000DF92EF92FF920F931F93CF93DF93EC014C
:100C1000F62E642F8C810E94D7038D818F3F19F0AF
:100C200060E00E94D7030F2D10E08F8584FF25C060
:100C30006E0187E0C80ED11CF12CE12CB8010E2CFE
:100C400002C0759567950A94E2F76170F60181918B
:100C50006F010E94D703FFEFEF1AFF0A88E0E81642
:100C6000F10461F7CE01DF91CF911F910F91FF90B9
:100C7000EF90DF90CF900C94BC05B80184E075959F
:100C800067958A95E1F7CE010E94D2056F2DCE01BE
:100C9000DF91CF911F910F91FF90EF90DF90CF9058
:100CA0000C94D20540E0682F8AE095E00C94FF0593
:100CB00081E00E9452068BE39FE10197F1F70895CE
:100CC00090911D05891710F08FEF890FE82FF0E044
:100CD000E65FFA4F848980680C945206CF93DF93C5
:100CE000823029F4909119059860909319058093AA
:100CF0001D0510921E0580E480931F0580E18093FE
:100D0000200580E58093210561E080910E050E9419
:100D1000050480910F058F3F19F061E00E940504E2
:100D200061E0809110050E940504CAE0D5E09E01B3
:100D30002A5035408091190584FD0BC084E090E075
:100D400021962817390744F461E08E810E9405043A
:100D5000EECF88E090E0F4CF8BE39DE00197F1F7D0
:100D600060E080910E050E94D70360E0809110053D
:100D70000E94D70380910F058F3F19F060E00E9419
:100D8000D7038091190584FD34C063E08AE095E0C3
:100D90000E94D205CBE4D6E4CE010197F1F763E0DF
:100DA0008AE095E00E94D2052197F1F763E08AE09E
:100DB00095E00E94D20583E592E00197F1F762E0A9
:100DC0008AE095E00E94D2058091190580620E9418
:100DD000520684E080931A058CE00E9452060E941D
:100DE000580682E080931B0586E0DF91CF910C943A
:100DF000520680620E9452068BE496E40197F1F756
:100E00008091190580620E94520683E592E0019765
:100E1000F1F78091190580620E945206D5CF41E01A
:100E20000E94FF0581E090E00895FC01808191819E
:100E3000009711F00C9466160895FB0101900020B4
:100E4000E9F73197AF01461B570BDC01ED91FC919F
:100E50000280F381E02D19948F929F92AF92BF92FE
:100E6000EF92FF920F931F93CF93DF93CDB7DEB72F
:100E7000A1970FB6F894DEBF0FBECDBF7C01FA017B
:100E8000CB0119A2223008F42AE08E010F5D1F4F1A
:100E9000822E912CB12CA12CBF01A50194010E949E
:100EA000A015F901CA016A300CF5605DD8016E9396
:100EB0008D01232B242B252B79F790E080E01097D0
:100EC00021F0BD01C7010E941D07A1960FB6F8943D
:100ED000DEBF0FBECDBFDF91CF911F910F91FF906D
:100EE000EF90BF90AF909F908F900895695CDECF98
:100EF000CF93DF93BC018DE393E00E941D07EC01CB
:100F000066E472E08DE393E00E941D078C0F9D1F45
:100F1000DF91CF9108952F923F924F925F926F92FF
:100F20007F928F929F92AF92BF92CF92DF92EF9279
:100F3000FF921F93CF93DF93EC016A017B01722E26
:100F4000AB019601CB01B6010E949B1569E472E0EA
:100F5000811126C046015701E894B7F82FEF3FEF03
:100F60004FE75FE7C501B4010E949B1581110CC0DA
:100F70002FEF3FEF4FE75FE7C501B4010E94641315
:100F80006DE472E0181664F02FEF3FEF4FE75FE477
:100F9000C701B6010E9496151816B4F461E572E017
:100FA000CE01DF91CF911F91FF90EF90DF90CF9016
:100FB000BF90AF909F908F907F906F905F904F9079
:100FC0003F902F900C941D072FEF3FEF4FE75FEC02
:100FD000C701B6010E94641387FDE0CF20E030E036
:100FE000A901C701B6010E946413312C212C87FF8F
:100FF0000DC0E881F9810190F081E02D6DE2CE0114
:1010000019951C01F7FAF094F7F8F09410E060E0FD
:1010100070E080E09FE3711641F020E030E040E2B4
:1010200051E40E94F5141F5FF6CFA70196010E94BC
:1010300089142B013C010E9467154B015C012AE0D9
:10104000BC01A401CE010E942C077C01E20CF31C20
:101050001123E1F1C501B4010E9469139B01AC01A8
:10106000C301B2010E9488144B015C01E881F9813F
:101070000190F081E02D6EE2CE011995E80EF91E87
:10108000115020F120E030E040E251E4C501B4010C
:101090000E94CA132B013C010E9467154B01B12C21
:1010A000A12C2AE0B501A401CE010E942C07E80E74
:1010B000F91EC501B4010E9469139B01AC01C30173
:1010C000B2010E9488144B015C01DACFC701DF91A5
:1010D000CF911F91FF90EF90DF90CF90BF90AF9096
:1010E0009F908F907F906F905F904F903F902F9048
:1010F00008950F931F93CF93DF938C01EB01FC01B5
:10110000808191810097E1F0688179816115710595
:10111000A9F0428153812C813D814217530770F021
:101120000E94D9178C819D81F801958384831D824B
:101130001C82DF91CF911F910F9108950E94661636
:1011400088819981F801918380838A819B8193832F
:1011500082838C819D8195838483198218821B826E
:101160001A82E5CF0F931F93CF93DF93EC01888111
:101170009981009759F02A813B812617370730F073
:1011800081E0DF91CF911F910F9108958B016F5FE7
:101190007F4F0E94EF16009759F0998388831B8335
:1011A0000A832C813D81232B59F7FC011082E8CF63
:1011B00080E0E7CF0F931F93CF93DF93FC01008173
:1011C00011810115110531F480E0DF91CF911F915C
:1011D0000F910895C481D5812097F1F08091080482
:1011E00090910904C80FD91FBE0184E094E00E94C9
:1011F000B208882349F320910404309105048091BA
:10120000080490910904B801820F931F0E94D91716
:10121000D0930904C093080481E0D7CFEF92FF92E6
:101220000F931F93CF93DF93EC017B018A01BA01E7
:101230000E94B20828813981811114C0211531051D
:1012400019F0C9010E946616198218821D821C823B
:101250001B821A82CE01DF91CF911F910F91FF90D7
:10126000EF9008951D830C83B701C9010E94D9171F
:10127000F1CFEF92FF920F931F93CF93DF93CDB7F0
:10128000DEB7A1970FB6F894DEBF0FBECDBF7C01CD
:10129000CB01BA01F70111821082138212821582EA
:1012A00014828E010F5F1F4F22E044E00E94F51070
:1012B0000097C9F0FC0101900020E9F73197AF01D8
:1012C000481B590BBC01C7010E940E09A1960FB61D
:1012D000F894DEBF0FBECDBFDF91CF911F910F916C
:1012E000FF90EF900895F70180819181009711F0B0
:1012F0000E946616F70111821082158214821382F1
:101300001282E4CFFC0111821082138212821582B4
:101310001482FB0101900020E9F73197AF01461BD1
:10132000570B0C940E091F920F920FB60F921124B7
:101330000BB60F922F933F934F935F936F937F93CF
:101340008F939F93AF93BF93EF93FF938DE393E0BE
:101350000E94B002FF91EF91BF91AF919F918F9149
:101360007F916F915F914F913F912F910F900BBEA5
:101370000F900FBE0F901F9018951F920F920FB6EF
:101380000F9211240BB60F922F938F939F93EF938D
:10139000FF93E0914D03F0914E038081E091530360
:1013A000F091540382FD1DC09081809156038F5FA0
:1013B0008F7320915703821741F0E0915603F0E0BC
:1013C000E35CFC4F958F80935603FF91EF919F91C3
:1013D0008F912F910F900BBE0F900FBE0F901F900B
:1013E00018958081F2CF1F920F920FB60F921124A1
:1013F0002F933F938F939F93AF93BF9380911F033E
:1014000090912003A0912103B091220330911E03FB
:1014100023E0230F2D3758F50196A11DB11D209310
:101420001E0380931F0390932003A0932103B09386
:1014300022038091230390912403A0912503B0916E
:1014400026030196A11DB11D8093230390932403CD
:10145000A0932503B0932603BF91AF919F918F91E5
:101460003F912F910F900FBE0F901F90189526E877
:10147000230F0296A11DB11DD2CF1F920F920FB65E
:101480000F9211240BB60F922F933F934F935F93BC
:101490006F937F938F939F93AF93BF93EF93FF933C
:1014A000E0910E02F0910F021995FF91EF91BF911B
:1014B000AF919F918F917F916F915F914F913F91EC
:1014C0002F910F900BBE0F900FBE0F901F9018958D
:1014D0001F920F920FB60F9211240BB60F922F93FB
:1014E0003F934F935F936F937F938F939F93AF93AC
:1014F000BF93EF93FF93E0910C02F0910D021995C9
:10150000FF91EF91BF91AF919F918F917F916F91DB
:101510005F914F913F912F910F900BBE0F900FBE97
:101520000F901F9018951F920F920FB60F921124D3
:101530000BB60F922F933F934F935F936F937F93CD
:101540008F939F93AF93BF93EF93FF93E09102022A
:10155000F09103021995FF91EF91BF91AF919F9187
:101560008F917F916F915F914F913F912F910F904C
:101570000BBE0F900FBE0F901F9018951F920F92E9
:101580000FB60F9211240BB60F922F933F934F93E8
:101590005F936F937F938F939F93AF93BF93EF93DB
:1015A000FF93E0910002F09101021995FF91EF91F4
:1015B000BF91AF919F918F917F916F915F914F916B
:1015C0003F912F910F900BBE0F900FBE0F901F9069
:1015D00018951F920F920FB60F9211240BB60F920F
:1015E0002F933F934F935F936F937F938F939F932B
:1015F000AF93BF93EF93FF93E0910A02F0910B0238
:101600001995FF91EF91BF91AF919F918F917F912C
:101610006F915F914F913F912F910F900BBE0F9063
:101620000FBE0F901F9018951F920F920FB60F923A
:1016300011240BB60F922F933F934F935F936F93A9
:101640007F938F939F93AF93BF93EF93FF93E0911B
:101650000802F09109021995FF91EF91BF91AF91A6
:101660009F918F917F916F915F914F913F912F91BA
:101670000F900BBE0F900FBE0F901F9018951F92EA
:101680000F920FB60F9211240BB60F922F933F9328
:101690004F935F936F937F938F939F93AF93BF937A
:1016A000EF93FF93E0910602F09107021995FF91E5
:1016B000EF91BF91AF919F918F917F916F915F91CA
:1016C0004F913F912F910F900BBE0F900FBE0F9037
:1016D0001F9018951F920F920FB60F9211240BB600
:1016E0000F922F933F934F935F936F937F938F93BB
:1016F0009F93AF93BF93EF93FF93E0910402F09118
:1017000005021995FF91EF91BF91AF919F918F9134
:101710007F916F915F914F913F912F910F900BBEF1
:101720000F900FBE0F901F9018951F920F920FB63B
:101730000F9211240BB60F922F933F934F935F9309
:101740006F937F938F939F93AF93BF93EF93FF9389
:10175000E0912002F09121021995FF91EF91BF9144
:10176000AF919F918F917F916F915F914F913F9139
:101770002F910F900BBE0F900FBE0F901F901895DA
:10178000EDE3F3E01382128288EE93E0A0E0B0E094
:1017900084839583A683B7838CE292E091838083D0
:1017A00085EC90E09587848784EC90E09787868726
:1017B00080EC90E0918B808B81EC90E0938B828B1E
:1017C00082EC90E0958B848B86EC90E0978B868BF7
:1017D000118E128E138E148EA2E2B5E086E015965D
:1017E0008C93159786E116968C931697E2E4F3E0B6
:1017F000E4911796EC931797ECEFF2E0E4911896CA
:10180000EC93189740E85EE360E070E01D964D931E
:101810005D936D937C935097EAE0F5E0138212821A
:101820008EE392E0918380838CE084838FEF8583C5
:101830008BE0868385E0878384E0808783E08187EF
:1018400087E082871386148615861686178681E0C0
:101850000E946E0680E091E0EAE0F4E0DF019C0186
:101860001D9221503040E1F768E472E084E094E09A
:101870000E94820965E572E08EEF93E00E94820982
:1018800067E572E088EF93E00E94820969E572E003
:1018900082EF93E00E9482096BE572E08CEE93E0A8
:1018A0000E94820968E672E086EE93E00E94820957
:1018B00068E472E080EE93E00E94820968E472E0DE
:1018C0008AED93E00C948209CF93DF9300D000D08F
:1018D000CDB7DEB7789484B5826084BD84B581606D
:1018E00084BD85B5826085BD85B5816085BD8091EB
:1018F0006E00816080936E00109281008091810063
:10190000826080938100809181008160809381005A
:10191000809180008160809380008091B10084601C
:101920008093B1008091B00081608093B00080917D
:1019300091008260809391008091910081608093FA
:101940009100809190008160809390008091A1002F
:1019500082608093A1008091A10081608093A100AA
:101960008091A00081608093A0008091210182601D
:1019700080932101809121018160809321018091D8
:10198000200181608093200180917A00846080939F
:101990007A0080917A00826080937A0080917A0048
:1019A000816080937A0080917A00806880937A00C9
:1019B0001092C10061E088E00E94050461E089E0C6
:1019C0000E94050461E08AE00E94050462E082E072
:1019D0000E94050462E08EE00E940504E0914D0340
:1019E000F0914E0382E08083E0914903F0914A0335
:1019F0001082E0914B03F0914C038FEC80831092A6
:101A00005503E0915103F091520386E08083E09109
:101A10004F03F0915003808180618083E0914F03F8
:101A2000F0915003808188608083E0914F03F091B2
:101A30005003808180688083E0914F03F0915003D0
:101A400080818F7D808362E0809127050E9405045C
:101A50000E94A504605D77408109910960932B0580
:101A600070932C0580932D0590932E0587E380932A
:101A7000340582E00E946E0661E772E08AE095E03C
:101A80000E941D0760ED77E080E090E00E94730403
:101A90000E94580680E1809381001092800082E1CC
:101AA0009AE7909387008093860084E18093810079
:101AB00084E392E0909301028093000280916A0097
:101AC0008C7F816080936A00EC9A0E94A5046093E9
:101AD0002B0370932C0380932D0390932E030E946D
:101AE000A50460932F037093300380933103909388
:101AF00032030EE212E09924939424EAE22E22E0CB
:101B0000F22E3AE4C32E33E0D32E44E0A42E43E079
:101B1000B42E80913C03882309F44FC11093210215
:101B20000093200290926F0080913B03813009F472
:101B300059C130F0823009F40FC310923B033DC10C
:101B40000E94B104882341F0809128058C3009F46B
:101B500064C038F48B30F1F060E070E080EC9FE717
:101B600041C085518230C0F780902405682D70E017
:101B7000762F662766277F7780912505682B90E072
:101B800080E00E9469132DEC3CEC4CEC5DE30E947C
:101B9000CA135FC06091240570E090E080E00E946D
:101BA00069132B013C018090250587FE0AC0AC011A
:101BB0009B0160E070E080E89FEB0E9488142B019D
:101BC0003C01682D6F7070E090E080E00E946B1324
:101BD0002DEC3CEC4CEC5DE30E94CA13A301920196
:101BE0000E948914609337037093380380933903FC
:101BF00090933A030E94B104882351F08091280504
:101C00008B3030F08D3048F18551823008F4D8C0E7
:101C100060E070E080EC9FE73CC080902405682D78
:101C200070E090E080E00E9469132B013C0160911C
:101C300025056F7070E090E080E00E946B132DEC42
:101C40003CEC4CEC5DE30E94CA13A30192010E949C
:101C5000891487FEC7CF9058C5CF6091230570E0E7
:101C600090E080E00E946B132DEC3CEC4CEC5DE3CB
:101C70000E94CA132B013C016091220570E090E0A4
:101C800080E00E946B139B01AC01C301B2010E9472
:101C900089146093330370933403809335039093D6
:101CA00036030E94A50440902F03509030036090AB
:101CB0003103709032036419750986099709613DF3
:101CC00077408105910508F478C00E94A5046093CF
:101CD0002F037093300380933103909332030E945B
:101CE000580680E00E9460066EE772E08AE095E0A8
:101CF0000E941D07409137035091380360913903CA
:101D000070913A0321E08AE095E00E948B0741E060
:101D10006FED8AE095E00E94FF0561E872E08AE0DD
:101D200095E00E941D074091370350913803609160
:101D3000390370913A03CE0101960E943909BE0120
:101D40006F5F7F4F80EE93E00E947908CE0101968D
:101D50000E94150781E00E94600664E872E08AE054
:101D600095E00E941D074091330350913403609128
:101D700035037091360321E08AE095E00E948B07DD
:101D800067E872E08AE095E00E941D074091330306
:101D9000509134036091350370913603CE01019662
:101DA0000E943909BE016F5F7F4F8AED93E00E9468
:101DB0007908CE0101960E9415070E943F03A9CE23
:101DC000609122057091230576276727762790E09A
:101DD00080E00E9469132DEC3CEC4CEC5DE30E942A
:101DE000CA1357CFF7018491F6018490F5017490DE
:101DF00071109CC180E40E9436048EE30E94360478
:101E00008EE30E943604BC01990F880B990B0E9447
:101E10006B1320E030EC4FE754E40E94F51420E00F
:101E200030E040EF52E40E94CA1320E030E040E28C
:101E300052E40E94881460931C0270931D028093E8
:101E40001E0290931F0280E40E943604BC01990F89
:101E5000880B990B0E946B1320E030EC4FE754E4A1
:101E60000E94F51420E030E040EF52E40E94CA13D3
:101E700020E030E040E252E40E94881460931802AF
:101E80007093190280931A0290931B028EE30E94B2
:101E90003604BC01990F880B990B0E946B1320E04C
:101EA00030EC4FE754E40E94F51420E030E048ECB9
:101EB00052E40E94CA136093140270931502809337
:101EC00016029093170280E40E943604BC01990F19
:101ED000880B990B0E946B1320E030EC4FE754E421
:101EE0000E94F51420E030E048EC52E40E94CA134E
:101EF0006093100270931102809312029093130268
:101F00008AE892E00E94780740911C0250911D02DD
:101F100060911E0270911F0222E08DE393E00E9407
:101F20008B0766E472E08DE393E00E941D078DE964
:101F300092E00E947807409114025091150260913E
:101F400016027091170222E08DE393E00E948B0746
:101F500066E472E08DE393E00E941D070E94A504F1
:101F600040902B0350902C0360902D0370902E0313
:101F70006419750986099709693B7B4081059105BC
:101F800008F41BCF0E94A50460932B0370932C03CD
:101F900080932D0390932E03409037035090380385
:101FA0006090390370903A0320911C0230911D0219
:101FB00040911E0250911F02C301B2010E9464139E
:101FC000880F880B892180932A0320911802309171
:101FD000190240911A0250911B02C301B2010E94E2
:101FE000961518160CF0B2C0909229034090330356
:101FF00050903403609035037090360320911402A2
:10200000309115024091160250911702C301B2019E
:102010000E946413880F880B8921809328032091E4
:102020001002309111024091120250911302C3012B
:10203000B2010E94961518160CF08BC090922703DF
:1020400080912703811105C08091290360E08823D6
:1020500009F18CEA92E00E9478070E94580680916C
:102060002903882349F080E00E94600667EC72E053
:102070008AE095E00E941D0780912703882349F09C
:1020800081E00E94600664ED72E08AE095E00E94C3
:102090001D0761E08AE00E94D70380902803811029
:1020A00005C080912A0360E08823D9F00E94580679
:1020B000882049F081E00E94600661EE72E08AE0CB
:1020C00095E00E941D0780912A03882349F080E053
:1020D0000E9460066FEE72E08AE095E00E941D07A4
:1020E00061E089E00E94D703609137037091380363
:1020F0008091390390913A039B01AC010E949B159A
:1021000081110FC0609133037091340380913503C6
:10211000909136039B01AC010E949B15882309F422
:102120004CCE8DEF92E00E94780747CE81110E943D
:102130007003E72DF0E0EE0FFF1FE452FD4FA59175
:10214000B4918C91882209F455CE08CF10922903BE
:102150004DCF1092270374CF50E040E068E472E066
:1021600084E094E00E940E098EEF93E00E94DA086A
:102170008CEE93E00E94DA0880EE93E00E94DA0889
:1021800082EF93E00E94DA0886EE93E00E94DA087C
:102190008AED93E00E94DA0882EF93E00E94DA0869
:1021A00088EF93E00E94DA0808CE8AED93E00E945F
:1021B000150780EE93E00E94150786EE93E00E94DB
:1021C00015078CEE93E00E94150782EF93E00E94C2
:1021D000150788EF93E00E9415078EEF93E00E94A9
:1021E000150784E094E00C941507EF920F931F936A
:1021F000CF93DF93E80134E047FD34E1042E000C77
:10220000550B57FF03C0519541955109E32E022FFD
:10221000242FAE010E941311CE01DF91CF911F91A7
:102220000F91EF9008958F929F92AF92BF92CF92AD
:10223000DF92EF92FF920F931F93CF93DF9300D023
:1022400000D000D0CDB7DEB76A01F22EB02E102F2D
:10225000FBE3AF2EA01608F41BE31F5F012F27E05E
:10226000AE014F5F5F4F0E948C12BC018981982F95
:102270009970913009F44EC09BE2E1FC04C09E2DA0
:102280009170E0FC49C05E2D5071E82FE87083FF2B
:1022900055C084E0911101C083E0EF2DE81B8F153C
:1022A00008F0E0E0D6018E2F20E25523C9F19923F2
:1022B00029F0D6019C93C60101966C0196012D5F11
:1022C0003F4FE2FE33C08EE4D6018C9391E4119629
:1022D0009C93119712968C93D9018E2F90E28111C5
:1022E0002AC0E20FF32FF11D10828EEF9FEF299687
:1022F0000FB6F894DEBF0FBECDBFDF91CF911F9117
:102300000F91FF90EF90DF90CF90BF90AF909F9094
:102310008F9008959DE2B7CF90E2B5CF2D93815075
:102320008111FCCFCE0ED11CE0E0C1CF8EE6D601EC
:102330008C9391E6CCCF9D938150D1CF482F4470A0
:1023400082FF3DC084E0911101C083E08F1510F43D
:10235000EF2DE81BD6018E2F20E2552309F199239A
:1023600029F0D6019C93C60101966C0196012D5F60
:102370003F4FE2FE1BC089E4D6018C938EE4119698
:102380008C93119786E412968C93D9018E2F90E24C
:10239000882309F4A6CF9D938150FACF2D938150C5
:1023A0008111FCCFCE0ED11CE0E0D9CF89E6D60159
:1023B0008C938EE611968C93119786E6E4CF9B0161
:1023C00077FF02C030E020E0A1E0B0E0911102C050
:1023D000B0E0A0E0F9013196AE0FBF1F8B2C912C1D
:1023E000BB2009F461C05401EFEFAE1ABE0AAA0D7A
:1023F000BB1DFA161B0619F014F04F2D4A1B511184
:1024000088C0E3FC59C07601A42FB0E2A1114FC0EF
:10241000C40ED11C992309F45BC040E0D60111968B
:10242000F60190836D01552309F448C0012F060F72
:102430009A81582F507184FF03C0913309F40150E1
:1024400010160CF047C0093008F008E0EEE2FE2E4E
:102450005B01A01AB10885019194819491082F3FE6
:10246000320729F4D601FC92F60131966F0162170A
:10247000730794F1021713077CF5DB01A21BB30B62
:10248000AA24A394B12CAC0EBD1EAA0DBB1D11969F
:102490008C9121503109D601119628153905F4F097
:1024A000F60180836D01DBCFB12CA12CA0CFF70109
:1024B000B1937F01A150AACF9111B0CFD601942F33
:1024C00050E302C05D9391509111FCCFC40ED11C1A
:1024D00040E0ACCF01E0BACF80E3DBCF62177307F7
:1024E00031F4963388F4953311F4552369F0F601ED
:1024F0008083FD01842F90E2811108C0A40FB11DDB
:102500001C9290E080E0F3CE81E3F1CF9193815073
:10251000F3CF911183CF8ACF283008F027E03327FB
:10252000DA01990F311D87FD9160009661057105F3
:1025300039F432602E5F3D9330E32A95E1F7089538
:102540009F3F30F080387105610509F03C5F3C5FCA
:102550003D93913008F08068911DDF93CF931F93D6
:102560000F93FF92EF92192F987F9695E92F9695EA
:102570009695E90FFF27EE53FE4F99273327EE2458
:10258000FF24A701E70105900894079428F4360F6B
:10259000E71EF81E491F511D660F771F881F991FE0
:1025A0000694A1F70590079428F4E70EF81E491F3A
:1025B000561FC11D770F881F991F661F0694A1F72C
:1025C0000590079428F4F80E491F561FC71FD11D08
:1025D000880F991F661F771F0694A1F7059007942F
:1025E00020F4490F561FC71FD81F990F661F771F6A
:1025F000881F0694A9F784911095177041F0D6951D
:10260000C79557954795F794E7941A95C1F7E8E66B
:10261000F1E068941590159135916591959105902B
:102620007FE27395E118F10A430B560BC90BD009F1
:10263000C0F7E10CF11E431F561FC91FD01D7EF4C9
:10264000703311F48A95E6CFE894015030F0080F0A
:102650000AF40027021708F4202F2395022F7A335B
:1026600028F079E37D932A95E9F710C07D932A95A8
:1026700089F6069497956795379517951794E118FD
:10268000F10A430B560BC90BD00998F023957E91A4
:1026900073957A3308F070E37C932013B8F77E913A
:1026A00070617D9330F0839571E37D9370E32A959B
:1026B000E1F71124EF90FF900F911F91CF91DF91DF
:1026C000992787FD909508950E94A61308F481E04C
:1026D0000895E89409C097FB3EF490958095709515
:1026E00061957F4F8F4F9F4F9923A9F0F92F96E95E
:1026F000BB279395F695879577956795B795F111D3
:10270000F8CFFAF4BB0F11F460FF1BC06F5F7F4F6F
:102710008F4F9F4F16C0882311F096E911C0772381
:1027200021F09EE8872F762F05C0662371F096E88A
:10273000862F70E060E02AF09A95660F771F881F59
:10274000DAF7880F9695879597F90895990F0008FD
:10275000550FAA0BE0E8FEEF16161706E807F90773
:10276000C0F012161306E407F50798F0621B730B0E
:10277000840B950B39F40A2661F0232B242B252B8F
:1027800021F408950A2609F4A140A6958FEF811D32
:10279000811D08950E94DD130C944E140E94401474
:1027A00038F00E94471420F0952311F00C94371450
:1027B0000C943D1411240C9482140E945F1470F345
:1027C000959FC1F3950F50E0551F629FF001729FD6
:1027D000BB27F00DB11D639FAA27F00DB11DAA1FE5
:1027E000649F6627B00DA11D661F829F2227B00D32
:1027F000A11D621F739FB00DA11D621F839FA00DBD
:10280000611D221F749F3327A00D611D231F849F0C
:10281000600D211D822F762F6A2F11249F57504063
:102820009AF0F1F088234AF0EE0FFF1FBB1F661FDE
:10283000771F881F91505040A9F79E3F510580F0A7
:102840000C9437140C9482145F3FE4F3983ED4F355
:10285000869577956795B795F795E7959F5FC1F74B
:10286000FE2B880F911D9695879597F9089597F9F6
:102870009F6780E870E060E008959FEF80EC089526
:1028800000240A941616170618060906089500244F
:102890000A9412161306140605060895092E0394C9
:1028A000000C11F4882352F0BB0F40F4BF2B11F43D
:1028B00060FF04C06F5F7F4F8F4F9F4F089557FD9C
:1028C0009058440F551F59F05F3F71F04795880F9E
:1028D00097FB991F61F09F3F79F087950895121635
:1028E00013061406551FF2CF4695F1DF08C01616E1
:1028F00017061806991FF1CF869571056105089492
:102900000895E894BB2766277727CB0197F90895A8
:102910005058BB27AA270E94A0140C944E140E9462
:10292000401438F00E94471420F039F49F3F19F406
:1029300026F40C943D140EF4E095E7FB0C94371448
:10294000E92F0E945F1458F3BA17620773078407D0
:10295000950720F079F4A6F50C9481140EF4E09517
:102960000B2EBA2FA02D0B01B90190010C01CA0149
:10297000A0011124FF27591B99F0593F50F4503EF4
:1029800068F11A16F040A22F232F342F4427585FE6
:10299000F3CF469537952795A795F0405395C9F7FE
:1029A0007EF41F16BA0B620B730B840BBAF09150B6
:1029B000A1F0FF0FBB1F661F771F881FC2F70EC055
:1029C000BA0F621F731F841F48F487957795679528
:1029D000B795F7959E3F08F0B0CF9395880F08F014
:1029E0009927EE0F9795879508950E9409150C94E5
:1029F0004E140E94471458F00E94401440F029F4ED
:102A00005F3F29F00C94371451110C9482140C94EC
:102A10003D140E945F1468F39923B1F3552391F399
:102A2000951B550BBB27AA2762177307840738F03D
:102A30009F5F5F4F220F331F441FAA1FA9F335D09A
:102A40000E2E3AF0E0E832D091505040E695001C4E
:102A5000CAF72BD0FE2F29D0660F771F881FBB1F08
:102A6000261737074807AB07B0E809F0BB0B802DE6
:102A7000BF01FF2793585F4F3AF09E3F510578F012
:102A80000C9437140C9482145F3FE4F3983ED4F313
:102A9000869577956795B795F7959F5FC9F7880FE6
:102AA000911D9695879597F90895E1E0660F771F38
:102AB000881FBB1F621773078407BA0720F0621BC9
:102AC000730B840BBA0BEE1F88F7E09508950E94F4
:102AD000671488F09F5798F0B92F9927B751B0F035
:102AE000E1F0660F771F881F991F1AF0BA95C9F792
:102AF00014C0B13091F00E948114B1E008950C949B
:102B00008114672F782F8827B85F39F0B93FCCF34D
:102B1000869577956795B395D9F73EF4909580950E
:102B2000709561957F4F8F4F9F4F08950E94A61318
:102B300008F48FEF08950E94A613880B990B08954F
:102B4000A1E21A2EAA1BBB1BFD010DC0AA1FBB1FB1
:102B5000EE1FFF1FA217B307E407F50720F0A21B23
:102B6000B30BE40BF50B661F771F881F991F1A9490
:102B700069F760957095809590959B01AC01BD01BA
:102B8000CF010895EE0FFF1F881F8BBF0790F691AE
:102B9000E02D19940F931F93CF93DF93823091050B
:102BA00010F482E090E0E0913705F091380530E0D4
:102BB00020E0B0E0A0E0309799F42115310509F448
:102BC0004AC0281B390B24303105D8F58A819B81F6
:102BD0006115710589F1FB0193838283FE0111C0A8
:102BE000408151810281138148175907E0F048174D
:102BF000590799F4109761F012960C931297139657
:102C00001C933296CF01DF91CF911F910F910895C0
:102C10000093370510933805F4CF2115310551F095
:102C20004217530738F0A901DB019A01BD01DF010A
:102C3000F801C1CFEF01F9CF9093380580933705A4
:102C4000CDCFFE01E20FF31F819391932250310902
:102C500039832883D7CF2091350530913605232B32
:102C600041F42091240230912502309336052093BF
:102C7000350520912202309123022115310541F4BE
:102C80002DB73EB74091260250912702241B350BE9
:102C9000E0913505F0913605E217F307A0F42E1BFD
:102CA0003F0B2817390778F0AC014E5F5F4F2417B0
:102CB000350748F04E0F5F1F50933605409335059A
:102CC000819391939FCFF0E0E0E09CCFCF93DF938F
:102CD0000097E9F0FC01329713821282A091370528
:102CE000B0913805ED0130E020E01097A1F420818B
:102CF0003181820F931F20913505309136052817B9
:102D0000390709F061C0F0933605E0933505DF918E
:102D1000CF910895EA01CE17DF07E8F54A815B817C
:102D20009E0141155105B1F7E901FB83EA83499101
:102D30005991C40FD51FEC17FD0761F48081918173
:102D40000296840F951FE90199838883828193817C
:102D50009B838A83F0E0E0E012968D919C9113971B
:102D60000097B9F52D913C911197CD010296820FF4
:102D7000931F20913505309136052817390739F60C
:102D8000309751F51092380510923705B0933605FB
:102D9000A0933505BCCFD383C28340815181840F7A
:102DA000951FC817D90761F44E5F5F4F88819981DD
:102DB000480F591F518340838A819B81938382836B
:102DC0002115310509F0B0CFF0933805E0933705B0
:102DD0009ECFFD01DC01C0CF13821282D7CF4F926C
:102DE0005F926F927F928F929F92AF92BF92CF929B
:102DF000DF92EF92FF920F931F93CF93DF938C019B
:102E0000009799F4CB01DF91CF911F910F91FF9023
:102E1000EF90DF90CF90BF90AF909F908F907F907A
:102E20006F905F904F900C94CA15FC01E60FF71F4E
:102E30009C0122503109E217F30708F4AEC0D90112
:102E4000CD91DC911197C617D70720F1C530D10578
:102E500078F0CE0104978617970750F0C61BD70B62
:102E60002297C193D1936D937C93CF010E946616F4
:102E7000C801DF91CF911F910F91FF90EF90DF90EC
:102E8000CF90BF90AF909F908F907F906F905F900A
:102E90004F9008955B01AC1ABD0A4C018C0E9D1E2B
:102EA000A0913705B0913805512C412CF12CE12C23
:102EB000109731F580913505909136058815990563
:102EC00009F05CC04616570608F058C080912202EF
:102ED00090912302009741F48DB79EB7409126024E
:102EE00050912702841B950BE817F90708F055C08D
:102EF000F0933605E0933505F90171836083B8CF0F
:102F00008D919C91119712966C90129713967C90CC
:102F10001397A815B90559F56C0142E0C40ED11CF0
:102F2000CA14DB0420F1AC014A195B09DA011296DC
:102F3000159780F06282738251834083D9016D932B
:102F40007C93E114F10471F0D7011396FC93EE9396
:102F500012978ECF22968C0F9D1FF901918380834B
:102F6000F301EFCFF0933805E093370581CF481692
:102F7000590608F42C017D01D3019ACFCB010E94A0
:102F8000CA157C01009749F0AE01B8010E94D01724
:102F9000C8010E94661687016BCF10E000E068CF81
:102FA000FB01DC0102C001900D9241505040D8F766
:102FB0000895FB01DC0101900D920020E1F70895D6
:102FC00011E0C2ECD1E000E006C0802FFE010E94BB
:102FD000C2152196011DC33CD10780E00807A9F75F
:042FE000F894FFCF93
:102FE400B705B705B705B705B705B705B705B705FD
:102FF4000000B4420000404100008C420000204127
:10300400B80500003905800000000000D2023C022F
:1030140069021F039A0278028C02000000000F0765
:103024003C02B9053B020D0A006E616E00696E66D2
:10303400006F7666003C003E003B0054656D706591
:103044007261747572613A00556D69646164653AC0
:1030540000496E696369616E646F2E2E2E00543AC6
:1030640000432000553A0025200074656D70657298
:103074006174757261206D696E696D6100756D6949
:1030840064616465206D696E696D6100416C65728F
:103094007461206465206C696D697465206578636A
:1030A400656469646F3A002154454D502061636939
:1030B4006D61210021554D4944206163696D612191
:1030C4000021554D49442061626169786F210021D6
:1030D40054454D502061626169786F210046616CEE
:1030E4006861206E61206C65697475726120646F1B
:0E30F4002073656E736F7220444854210000F3
:00000001FF
